:100000000C9488000C94B4000C94B4000C94B400CC
:100010000C94B4000C94B4000C94B4000C94B40090
:100020000C94B4000C94B6000C94C63C0C94F820CC
:100030000C94B4000C94B4000C94B4000C94B40070
:100040000C94B4000C94B4000C94B4000C94B40060
:100050000C94B4000C94B4000C94B4000C94B40050
:100060000C94B4000C94B4000C94B4000C94B40040
:100070000C94B4000C94B4000C94B4000C94B40030
:100080000C94B4000C94B4000C94B4000C94B40020
:100090000C94B4000C94B400120100020000004063
:1000A000EB0335230010010234010902370002017D
:1000B00000803209040000020000000007058102F0
:1000C0004000000705020240000009040100020090
:1000D00055AA000705830340001407050404200007
:1000E000280C0350004F005000500045001E0350E4
:1000F000006F007000700065002000440045004261
:100100000055004700470045005200040309040061
:1001100011241FBECFEFD0E2DEBFCDBF198280E831
:100120008A838A8199810FB6F894809361009093B5
:1001300061000FBE81E013E0A0E0B1E0E6EEF8E878
:1001400000E00BBF02C007900D92A43FB107D9F7A2
:1001500018E0A4EFB3E001C01D92A832B107E1F7A7
:100160000E9442310C9471440C94EA001F920F9249
:100170000FB60F9200905B000F9211242F933F93C4
:100180004F935F936F937F938F939F93AF93BF939F
:10019000EF93FF93DF93CF93CDB7DEB78091F40356
:1001A0009091F503FC010995CF91DF91FF91EF91BB
:1001B000BF91AF919F918F917F916F915F914F917F
:1001C0003F912F910F9000925B000F900FBE0F9008
:1001D0001F9018951F920F920FB60F921124DF9364
:1001E000CF93CDB7DEB7CF91DF910F900FBE0F90B9
:1001F0001F901895DF93CF93CDB7DEB783E590E0DE
:10020000FC01108283E590E023E530E0F9012081D4
:100210002560FC0120838895CF91DF910895DF93BD
:10022000CF93CDB7DEB783E590E0FC01108283E584
:1002300090E023E530E0F90120812160FC0120837A
:100240008895CF91DF910895DF93CF93CDB7DEB737
:1002500083E590E0FC01108283E590E023E530E047
:10026000F90120812360FC0120838895CF91DF91E3
:100270000895DF93CF93CDB7DEB783E590E0FC011F
:10028000108283E590E023E530E0F90120812760CA
:10029000FC0120838895CF91DF910895DF93CF9360
:1002A000CDB7DEB783E590E0FC01108283E590E0F6
:1002B00023E530E0F90120812D60FC012083889541
:1002C000CF91DF910895DF93CF93CDB7DEB783E56C
:1002D00090E0FC01108283E590E023E530E0F90135
:1002E00020812F60FC0120838895CF91DF910895B4
:1002F000DF93CF93CDB7DEB784E690E024E630E01D
:10030000F90120812460FC0120838CE490E020EC42
:10031000FC012083CF91DF910895DF93CF93CDB778
:10032000DEB780910001909101010E941F2FCF91B3
:10033000DF910895DF93CF9300D0CDB7DEB79A83D6
:10034000898389819A81895B9F4FFC018081882FF5
:1003500090E08130910521F082309105C1F03EC0DE
:1003600089819A818C5B9F4FFC018081882F90E06E
:100370008330910541F08430910569F589819A8136
:100380000E94583B03C00E94F301000027C08981EE
:100390009A818C5B9F4FFC018081882F90E0833095
:1003A000910599F08430910599F082309105A9F476
:1003B00089819A81029629813A812B5B3F4FF9010D
:1003C0002081622F0E94650204C00E942C0201C09D
:1003D0000000000003C0000001C000000F900F905B
:1003E000CF91DF910895DF93CF9300D0CDB7DEB7E3
:1003F0000E94FB3A9A83898389819A81009739F117
:1004000089819A818B5B9F4F21E0FC012083898148
:100410009A818A5B9F4F23E0FC01208389819A8126
:10042000895B9F4F21E0FC01208389819A818C5B4D
:100430009F4F24E0FC0120838091000190910101F5
:100440000E94C930282F89819A81FC0122830F9054
:100450000F90CF91DF910895DF93CF9300D0CDB768
:10046000DEB780910001909101010E94C930009790
:1004700039F180910001909101010E943D309A83F1
:10048000898389819A81009729F089819A810E94C4
:10049000583B12C000D00F928DB79EB7019625E051
:1004A000FC01208322E031E0FC01328321830E94A1
:1004B000CD310F900F900F9089819A810E94FF405B
:1004C0000F900F90CF91DF910895DF93CF9300D0DD
:1004D00000D00F92CDB7DEB79C838B836D830E94D3
:1004E000FB3A9A83898389819A818B5B9F4F2D8107
:1004F000FC01208389819A819C012E5F3F4F898175
:100500009A818E5B9F4FFC01318320831FC08981BC
:100510009A818E5B9F4FFC01808191812B813C8170
:10052000F9012081FC0120839C012F5F3F4F8981CD
:100530009A818E5B9F4FFC01318320838B819C814C
:1005400001969C838B838D8181508D838D8188233F
:10055000F1F689819A818C5B9F4F24E0FC01208316
:1005600089819A818A5B9F4F23E0FC0120838981E6
:100570009A81895B9F4F22E0FC01208380910001DA
:100580009091010129813A81B9010E948D2F8981C1
:100590009A810E94163C0F900F900F900F900F9031
:1005A000CF91DF910895DF93CF93CDB7DEB77894E5
:1005B00088ED90E028ED30E0F90120812F76FC01F4
:1005C000208388ED90E028ED30E0F901208120695A
:1005D000FC01208388ED90E028ED30E0F9012081D6
:1005E0002F7BFC0120837894CF91DF910895DF93D6
:1005F000CF93CDB7DEB789E490E02EE0FC012083F5
:1006000089E490E0FC018081882F90E081709070F7
:100610000097B1F388ED90E028ED30E0F9012081FA
:100620002F7DFC0120830E94910480EE90E020EE5B
:1006300030E0F90120812E7FFC01208382EE90E0E2
:1006400022EE30E0F90120812160FC01208382EE5E
:1006500090E022EE30E0F90120812860FC01208347
:10066000CF91DF910895DF93CF93CDB7DEB789EDBA
:1006700090E0FC018081882F90E081709070882349
:10068000A1F08091F803882381F481E08093F8033E
:100690001092000480910E0490910F048260909358
:1006A0000F0480930E040E94F70289ED90E0FC0194
:1006B0008081882F90E081709070882311F080E015
:1006C00001C081E08823D1F08091F8038130B1F43A
:1006D0001092F8031092D50580910E0490910F04AA
:1006E000846090930F0480930E0488ED90E028EDD1
:1006F00030E0F90120812062FC01208380910E040A
:1007000090910F04807091700097A1F080910E0479
:1007100090910F049E7F90930F0480930E048AEEB5
:1007200090E021E0FC0120838AEE90E0FC01108241
:100730001092D50589EE90E0FC01108288EE90E0E1
:10074000FC018081882F90E088709070009711F0F4
:100750000E948B28CF91DF910895DF93CF9300D033
:10076000CDB7DEB789836A838BEE90E02BEE30E065
:10077000F90120812160FC0120838CEE90E0298129
:10078000FC0120838DEE90E02DEE30E0F901208118
:10079000322F32702A81232BFC0120838DEE90E0D2
:1007A0002DEE30E0F90120812260FC0120838EEEE5
:1007B00090E0FC018081881F8827881F0F900F9090
:1007C000CF91DF910895DF93CF9300D0CDB7DEB7FF
:1007D0001A8284EF90E0FC01808189830FC08981B7
:1007E000882F90E081709070882311F08A810AC070
:1007F0008A818F5F8A838981869589838A81873000
:1008000070F380E00F900F90CF91DF910895DF9308
:10081000CF9300D000D00F92CDB7DEB78A837C8310
:100820006B834D838D81898389EE90E02A81FC0161
:10083000208310C081EF90E02B813C81F901208161
:10084000FC0120838981815089838B819C81019661
:100850009C838B8388EE90E0FC018081882F90E060
:1008600080729070009719F08981882319F7898127
:100870000F900F900F900F900F90CF91DF910895F0
:10088000DF93CF9300D000D00F92CDB7DEB78A832D
:100890007C836B834D838D81898389EE90E02A81EF
:1008A000FC01208310C081EF90E0FC0120818B814E
:1008B0009C81FC0120838981815089838B819C816B
:1008C00001969C838B8388EE90E0FC018081882FC9
:1008D00090E080729070009719F08981882319F751
:1008E00089810F900F900F900F900F90CF91DF9113
:1008F0000895DF93CF930F92CDB7DEB7898389EE4A
:1009000090E02981FC0120838BEE90E02BEE30E01B
:10091000F90120812062FC0120830F90CF91DF91AB
:100920000895DF93CF93CDB7DEB788ED90E028ED43
:1009300030E0F90120812F7BFC01208389ED90E0DC
:10094000FC018081882F90E0827090700097E1F028
:1009500089EE90E0FC0110828BEE90E0FC0180813A
:10096000882F90E081709070882311F080E001C0A2
:1009700081E0882349F089EE90E0FC01108282E05A
:1009800060E30E94AD0301C080E0CF91DF91089544
:10099000DF93CF9300D0CDB7DEB789836A8389EA2E
:1009A00090E029EA30E0F90120812160FC012083F8
:1009B0008AEA90E02981FC0120838BEA90E02A8179
:1009C000FC0120838BEA90E02BEA30E0F9012081E2
:1009D0002260FC0120838CEA90E0FC018081807819
:1009E0000F900F90CF91DF910895DF93CF9300D0B8
:1009F000CDB7DEB79A83898389819A818930910541
:100A000010F480E02DC089819A818131910510F424
:100A100081E026C089819A818132910510F482E0BB
:100A20001FC089819A818134910510F483E018C038
:100A300089819A818138910510F484E011C08981FF
:100A40009A8121E08130920710F485E009C0898104
:100A50009A8122E08130920710F486E001C087E09D
:100A60000F900F90CF91DF910895DF93CF930F9266
:100A7000CDB7DEB719822DC088EA90E02981422FD8
:100A800050E021E030E0042E02C0220F331F0A9410
:100A9000E2F7FC01208388EA90E0FC01108287EAFB
:100AA00090E02981FC0120838BEA90E02BEA30E082
:100AB000F90120812D7FFC01208389EA90E029EA59
:100AC00030E0F90120812E7FFC01208389818F5F36
:100AD00089838981873080F20F90CF91DF910895CB
:100AE000DF93CF9300D0CDB7DEB788EF90E0FC0165
:100AF00080818A83198215C08A81882F90E029819C
:100B0000222F30E0022E02C0959587950A94E2F7D5
:100B100081709070882311F0898107C089818F5F6F
:100B200089838981873040F388E00F900F90CF91BF
:100B3000DF910895DF93CF9300D0CDB7DEB78091DA
:100B4000FA03482F50E02AE430E0429FC001439F5F
:100B5000900D529F900D112408968D5E9B4F209111
:100B60006804FC0120838091FA03482F50E02AE4B6
:100B700030E0429FC001439F900D529F900D112481
:100B800008968D5E9B4F019620916904FC0120839D
:100B90008091FA03482F50E02AE430E0429FC001E0
:100BA000439F900D529F900D112406968D5E9B4F92
:100BB00020916A04FC0120838091FA03482F50E0C1
:100BC0002AE430E0429FC001439F900D529F900D58
:100BD000112406968D5E9B4F019620916B04FC01BB
:100BE0002083198269C08981882F90E0880F991F1E
:100BF0008F5C9E4FFC01208131818091FA03682F28
:100C000070E04AE450E0649FC001659F900D749FBE
:100C1000900D1124855E9B4FFC01808191812817E6
:100C20003907D1F58981882F90E00196880F991FA7
:100C30008F5C9E4FFC01808191818A832AC08981CB
:100C4000282F30E08A81882F90E0820F931F019631
:100C5000880F991F8F5C9E4FFC012081318180910C
:100C6000FA03682F70E04AE450E0649FC001659F7A
:100C7000900D749F900D1124875E9B4FFC01808125
:100C800091812817390711F481E01BC08A818150B6
:100C90008A838A81882399F68981882F90E001963A
:100CA000880F991F8F5C9E4FFC0180819181982F46
:100CB0008981890F8E5F89838981893008F493CF78
:100CC00080E00F900F90CF91DF910895DF93CF9345
:100CD000CDB7DEB729970FB6F894DEBF0FBECDBFF4
:100CE0001B8280916104823011F080E0E9C1CE0165
:100CF000089620916204DC012C93CE01089601969F
:100D000020916304FC0120838091FA03482F50E076
:100D1000609167042AE430E0429FC001439F900D38
:100D2000529F900D1124835E9B4FDC016C93809148
:100D3000FA03482F50E0609168042AE430E0429FB3
:100D4000C001439F900D529F900D1124825E9B4FD6
:100D5000FC0160831A8288859985982F8A81890F82
:100D60008C83A3C18A81882F90E0805A9B4FDC013D
:100D70008C919A81890F8A839A818C81981740F08F
:100D80008B81882311F081E09BC180E099C1000034
:100D90008A81882F90E00196805A9B4FFC018081C8
:100DA000843001F78A81882F90E00596805A9B4F06
:100DB000DC018C918D838A81882F90E00696805A81
:100DC0009B4FFC0180818E838A81882F90E007965B
:100DD000805A9B4FDC018C918F8319824EC189818F
:100DE000882F90E08D5B9E4FFC0190818D8198173C
:100DF00009F040C18981882F90E001968D5B9E4F5C
:100E0000DC019C918E81981709F034C18981882F6B
:100E100090E002968D5B9E4FFC0190818F81981728
:100E200009F028C189818D5F89838091FA03682F39
:100E300070E08B81282F30E08A81882F90E0029625
:100E4000805A9B4FDC01EC91C901880F991F820FDA
:100E5000931F9C01220F331F220F331F220F331FBA
:100E6000281B390B4AE450E0649FC001659F900D38
:100E7000749F900D1124820F931F815E9B4FDC01A4
:100E8000EC938091FA03682F70E08B81282F30E07B
:100E90008A81882F90E00396805A9B4FDC01EC9169
:100EA000C901880F991F820F931F9C01220F331FC6
:100EB000220F331F220F331F281B390B4AE450E047
:100EC000649FC001659F900D749F900D1124820F47
:100ED000931F805E9B4FDC01EC938091FA03E82F17
:100EE000F0E08B81282F30E08D81482F50E0C90140
:100EF000880F991F820F931F9C01220F331F220F0F
:100F0000331F220F331F281B390B6AE470E0E69F62
:100F1000C001E79F900DF69F900D1124820F931F43
:100F20008F5D9B4FFC01518340838091FA03E82F32
:100F3000F0E08B81282F30E08E81482F50E0C901EE
:100F4000880F991F820F931F9C01220F331F220FBE
:100F5000331F220F331F281B390B6AE470E0E69F12
:100F6000C001E79F900DF69F900D1124820F931FF3
:100F70008D5D9B4FDC014D935C938091FA03E82FCC
:100F8000F0E08B81282F30E08F81482F50E0C9019D
:100F9000880F991F820F931F9C01220F331F220F6E
:100FA000331F220F331F281B390B6AE470E0E69FC2
:100FB000C001E79F900DF69F900D1124820F931FA3
:100FC0008B5D9B4FFC01518340838091FA03682F16
:100FD00070E08B81282F30E08A81882F90E0049682
:100FE000805A9B4FDC01EC91C901880F991F820F39
:100FF000931F9C01220F331F220F331F220F331F19
:10100000281B390B4AE450E0649FC001659F900D96
:10101000749F900D1124820F931F895D9B4FDC01FB
:10102000EC938B818F5F8B838091FA03882F90E004
:101030004AE450E0849F9001859F300D949F300DCD
:101040001124285E3B4FF9012081622F6F5F4AE433
:1010500050E0849F9001859F300D949F300D1124A6
:10106000C901885E9B4FDC016C938B81833010F04B
:1010700081E026C089818D5F89838981863008F46B
:10108000AECE8A81882F90E0805A9B4FFC018081F0
:101090009A81890F8A838A818B3F38F08B818823DC
:1010A00011F081E00DC080E00BC09A818C8198170F
:1010B00008F46DCE8B81882311F081E001C080E0BF
:1010C00029960FB6F894DEBF0FBECDBFCF91DF914A
:1010D00008951F93DF93CF93CDB7DEB729970FB64F
:1010E000F894DEBF0FBECDBF81E08B8380911304E7
:1010F00081508E838E81482F50E02AE430E0429F59
:10110000C001439F900D529F900D1124885E9B4F0C
:10111000DC018C918F8387EA90E0FC0180818C83D5
:1011200081E08B8312C087EA90E02B81DC012C9355
:101130008BEA90E0FC018081882F90E082709070B3
:10114000009739F08B818F5F8B838B81863058F3CA
:1011500001C0000087EA90E02C81DC012C931C8206
:101160007EC21D828E81682F70E08C81282F30E036
:10117000C901880F991F820F931F9C01220F331FF3
:10118000220F331F220F331F281B390B4AE450E074
:10119000649FC001659F900D749F900D1124820F74
:1011A000931F815E9B4FFC01808188878E81682F11
:1011B00070E08C81282F30E0C901880F991F820FC1
:1011C000931F9C01220F331F220F331F220F331F47
:1011D000281B390B4AE450E0649FC001659F900DC5
:1011E000749F900D1124820F931F805E9B4FDC0132
:1011F0008C918987888569850E94440B8A838E81BA
:10120000682F70E08C81282F30E0C901880F991F6A
:10121000820F931F9C01220F331F220F331F220FB7
:10122000331F281B390B4AE450E0649FC001659FBF
:10123000900D749F900D1124820F931F895D9B4F19
:10124000FC01808189838A81882F90E0805A9B4F9E
:10125000DC018C919A81890F8A83FAC18A81882F57
:1012600090E0805A9B4FFC0180819A81890F8A838C
:101270008A818B3F18F080E0FDC100008A81882FB1
:1012800090E00196805A9B4FDC018C91853031F7BC
:101290008A81882F90E00396805A9B4FFC018081C1
:1012A000833009F06FC08E81682F70E08C81282F09
:1012B00030E0C901880F991F820F931F9C01220FF4
:1012C000331F220F331F220F331F281B390B4AE411
:1012D00050E0649FC001659F900D749F900D112494
:1012E000820F931F8F5D9B4FDC018D919C91119715
:1012F0008830910509F046C08981815089838E81AB
:10130000682F70E08C81282F30E0C901880F991F69
:10131000820F931FAC01440F551F440F551F440FFC
:10132000551F481B590BEAE4F0E06E9FC0016F9F08
:10133000900D7E9F900D1124840F951F895D9B4F0A
:10134000FC018081E82FE150C901880F991F820FAD
:10135000931F9C01220F331F220F331F220F331FB5
:10136000281B390B4AE450E0649FC001659F900D33
:10137000749F900D1124820F931F895D9B4FDC0198
:10138000EC9366C187EA90E02B81FC01208389EA17
:1013900090E029EA30E0D9012C912E7FFC012083D6
:1013A0008BEA90E02BEA30E0D9012C912D7FFC01F3
:1013B000208389EA90E029EA30E0D9012C9121606C
:1013C000FC01208387EA90E02B81DC012C938DEADD
:1013D00090E02A81222F30E02A5F3F4F205A3B4F76
:1013E000F9012081DC012C938A81882F90E00396FB
:1013F000805A9B4FFC018081882F90E000249695B5
:1014000087950794969587950794982F802D282F78
:101410008A81882F90E00296805A9B4FDC018C9144
:10142000882314F480E101C080E2282B8A81882F70
:1014300090E00296805A9B4FFC0180818F77822B2F
:10144000182F8A81882F90E00496805A9B4FDC01E8
:101450008C91882F90E00E94F504882F90E082956F
:101460009295907F9827807F98278460982F812F6E
:10147000692F0E94C8048E81682F70E08C81282F0C
:1014800030E08D81882F90E04A81442F50E04E5FFC
:101490005F4F405A5B4FDA01EC91AC01440F551F8E
:1014A000440F551FC901880F991F820F931F9C017C
:1014B000220F331F220F331F220F331F281B390B1C
:1014C000240F351F4AE450E0649FC001659F900DD2
:1014D000749F900D1124820F931F885D9B4FDC0138
:1014E000EC938E81682F70E08C81282F30E08D8105
:1014F000882F90E0AC01440F551F440F551FC901C0
:10150000880F991F820F931F9C01220F331F220FF8
:10151000331F220F331F281B390B240F351F4AE4BA
:1015200050E0649FC001659F900D749F900D112441
:10153000820F931F875D9B4F2B81FC0120838E813F
:10154000682F70E08C81282F30E08D81882F90E00B
:101550004A81442F50E04C5F5F4F405A5B4FDA01A5
:10156000EC91AC01440F551F440F551FC901880F62
:10157000991F820F931F9C01220F331F220F331FCD
:10158000220F331F281B390B240F351F4AE450E06C
:10159000649FC001659F900D749F900D1124820F70
:1015A000931F865D9B4FDC01EC938E81682F70E06A
:1015B0008C81282F30E08D81882F90E04A81442F44
:1015C00050E04D5F5F4F405A5B4FDA01EC9103965C
:1015D000AC01440F551F440F551FC901880F991FB7
:1015E000820F931F9C01220F331F220F331F220FE4
:1015F000331F281B390B240F351F4AE450E0649F2A
:10160000C001659F900D749F900D1124820F931F50
:10161000815E9B4FDC01EC938A81882F90E0805A99
:101620009B4FFC0180819A81890F8A8381E09B8195
:10163000973008F480E09B819F5F9B83882311F0A3
:1016400080E018C08D818F5F8D838981815089836F
:101650008981882309F011CE8C818F5F8C839C81D6
:101660008F81981708F47DCD80915E04846080930B
:101670005E0481E029960FB6F894DEBF0FBECDBFA1
:10168000CF91DF911F910895DF93CF9300D000D0C9
:10169000CDB7DEB78B836C83809164048A8380919D
:1016A000600489833CC08981882F90E0805A9B4FD9
:1016B000FC0180819981890F898389818B3F18F092
:1016C00080E031C000008981882F90E00196805A27
:1016D0009B4FFC018081843031F78981882F90E015
:1016E0000296805A9B4FFC0190818B81981769F478
:1016F0008981882F90E00396805A9B4FFC0190814E
:101700008C81981711F489810EC08981882F90E00F
:10171000805A9B4FFC0180819981890F898389813F
:101720008A3F80F289810F900F900F900F90CF9198
:10173000DF910895DF93CF9300D00F92CDB7DEB73E
:101740008B831A826CC0198263C08091FA03682F60
:1017500070E08A81282F30E08981882F90E0AC01E9
:10176000440F551F440F551FC901880F991F820F41
:10177000931F9C01220F331F220F331F220F331F91
:10178000281B390B240F351F4AE450E0649FC00129
:10179000659F900D749F900D1124820F931F885D9B
:1017A0009B4FFC0190818B81981779F58091FA030A
:1017B000682F70E08A81282F30E08981882F90E09F
:1017C000AC01440F551F440F551FC901880F991FC5
:1017D000820F931F9C01220F331F220F331F220FF2
:1017E000331F281B390B240F351F4AE450E0649F38
:1017F000C001659F900D749F900D1124820F931F5F
:10180000875D9B4FFC0180810FC089818F5F898339
:101810008981833008F499CF8A818F5F8A838A8196
:10182000833008F490CF80E00F900F900F90CF910D
:10183000DF910895DF93CF93CDB7DEB727970FB62B
:10184000F894DEBF0FBECDBF9F838E838091FA03D5
:10185000482F50E02AE430E0429FC001439F900DA2
:10186000529F900D11248B5E9B4FFC0180818C83D5
:1018700081EA90E02091FA03622F70E04AE450E0A0
:10188000649F9001659F300D749F300D11242C5E74
:101890003B4FF9012081FC01208380910E0490913F
:1018A0000F049D7F90930F0480930E0480EA90E0D4
:1018B000FC018081882F90E08072907021E0009779
:1018C00009F420E02D8380EA90E020EA30E0F9017D
:1018D00020812062FC0120831FC089ED90E0FC0183
:1018E0008081882F90E0827090700097A9F088E046
:1018F0008B8389EA90E029EA30E0F90120812064B5
:10190000FC01208388EA90E021E0FC01208388EA42
:1019100090E0FC011082BFC380910E0490910F04EF
:10192000807092700097C9F28D81882349F480EA13
:1019300090E020EA30E0F90120812F7DFC01208336
:1019400087EA90E0FC0110828AEA90E02AEA30E01F
:10195000F90120812F7CFC01208386EA90E026EAB1
:1019600030E0F9012081277FFC01208389EA90E0A3
:1019700029EA30E0F90120812F7BFC0120838FEAE6
:1019800090E02091C305FC0120838FEA90E0209134
:10199000C405FC0120838FEA90E025EC35E0F901D5
:1019A0002081FC0120838FEA90E025EC35E02F5F59
:1019B0003F4FF9012081FC0120838FEA90E027EC62
:1019C00035E0F9012081FC0120838FEA90E027ECCB
:1019D00035E02F5F3F4FF9012081FC0120838FEA22
:1019E00090E029EC35E0F9012081FC0120838FEAA9
:1019F00090E029EC35E02F5F3F4FF9012081FC0199
:101A0000208386EA90E026EA30E0F90120812F77F2
:101A1000FC01208334C089ED90E0FC018081882F97
:101A200090E0827090700097A9F088E08B8389EA3B
:101A300090E029EA30E0F90120812064FC01208354
:101A400088EA90E021E0FC01208388EA90E0FC0134
:101A5000108221C386EA90E0FC018081882F90E00B
:101A600080719070009759F085EF90E0FC018081C3
:101A70008F718B8385EF90E0FC0110820CC386EAA6
:101A800090E0FC018081882F90E088709070009732
:101A900011F280910E0490910F049D7F90930F049A
:101AA00080930E0480EA90E0FC018081882F90E012
:101AB0008072907021E0009709F420E02D8380EA85
:101AC00090E020EA30E0F90120812062FC012083CF
:101AD00089EA90E029EA30E0F90120812064FC01E4
:101AE00020838091C9059091CA059A8389831FC07C
:101AF00089ED90E0FC018081882F90E082709070E9
:101B00000097A9F088E08B8389EA90E029EA30E029
:101B1000F90120812064FC01208388EA90E021E023
:101B2000FC01208388EA90E0FC011082B4C280911D
:101B30000E0490910F04807092700097C9F28D810D
:101B4000882349F480EA90E020EA30E0F90120811E
:101B50002F7DFC0120838091C30588230CF04FC1A9
:101B600089EA90E029EA30E0F90120812F7DFC012B
:101B700020838AEA90E02AEA30E0F90120812F7C74
:101B80002061FC012083B0C089EA90E029EA30E0BE
:101B9000F90120812F7BFC0120834AC089ED90E070
:101BA000FC018081882F90E0827090700097A9F0EE
:101BB00088E08B8389EA90E029EA30E0F90120810E
:101BC0002064FC01208388EA90E021E0FC0120836E
:101BD00088EA90E0FC0110825EC286EA90E0FC0197
:101BE0008081882F90E080719070009759F085EF88
:101BF00090E0FC0180818F718B8385EF90E0FC0188
:101C0000108249C286EA90E0FC018081882F90E032
:101C100082709070009761F080E28B8386EA90E09A
:101C200026EA30E0F90120812D7FFC01208333C2B8
:101C300086EA90E0FC018081882F90E081709070AE
:101C4000882311F080E001C081E0882309F0A6CF4D
:101C500086EF90E0FC0180818B839B818C819817BB
:101C600091F48B81882F90E029813A81A901481B4A
:101C7000590BCA019A8389838091CB058130B1F4D5
:101C80001A82198213C01A82198210C08FEA90E05A
:101C9000FC0120818E819F81FC0120838E819F81A8
:101CA00001969F838E838B8181508B838B818823C8
:101CB00069F789EA90E029EA30E0F901208120649F
:101CC000FC01208386EA90E026EA30E0F9012081D9
:101CD0002E7FFC01208386EA90E026EA30E0F901BD
:101CE00020812F77FC01208389819A81009709F058
:101CF0004BCF8AEA90E02AEA30E0F90120812F7C7C
:101D00002062FC01208389EA90E029EA30E0F901B1
:101D100020812F7BFC01208386EA90E026EA30E0D8
:101D2000F90120812B7FFC01208386EA90E026EADE
:101D300030E0F90120812F77FC0120834AC089ED32
:101D400090E0FC018081882F90E082709070009775
:101D5000A9F088E08B8389EA90E029EA30E0F90174
:101D600020812064FC01208388EA90E021E0FC01CE
:101D7000208388EA90E0FC0110828DC186EA90E021
:101D8000FC018081882F90E080719070009759F05D
:101D900085EF90E0FC0180818F718B8385EF90E06F
:101DA000FC01108278C186EA90E0FC018081882FD6
:101DB00090E082709070009761F080E28B8386EAF9
:101DC00090E026EA30E0F90120812D7FFC0120839C
:101DD00062C186EA90E0FC018081882F90E08470E7
:101DE0009070009709F4ABCF86EA90E026EA30E0E5
:101DF000F90120812B7FFC0120831B824CC18AEAE0
:101E000090E02AEA30E0F90120812F7C2062FC0179
:101E1000208386EA90E026EA30E0F90120812B7FDA
:101E2000FC0120839FC089EA90E029EA30E0F901B3
:101E300020812F7BFC0120838C818B838C81282F38
:101E400030E089819A818217930728F489818B83F6
:101E50001A8219821CC08B81882F90E029813A81D7
:101E6000A901481B590BCA019A83898310C08FEAC4
:101E700090E02E813F81F9012081FC0120838E8139
:101E80009F8101969F838E838B8181508B838B8171
:101E9000882369F786EA90E026EA30E0F90120819C
:101EA0002F77FC0120834AC089ED90E0FC018081FE
:101EB000882F90E0827090700097A9F088E08B8363
:101EC00089EA90E029EA30E0F90120812064FC01F0
:101ED000208388EA90E021E0FC01208388EA90E0FA
:101EE000FC011082D8C086EA90E0FC018081882F36
:101EF00090E080719070009759F085EF90E0FC01C0
:101F000080818F718B8385EF90E0FC011082C3C0CC
:101F100086EA90E0FC018081882F90E082709070CA
:101F2000009761F080E28B8386EA90E026EA30E059
:101F3000F90120812D7FFC012083ADC086EA90E06D
:101F4000FC018081882F90E084709070009709F4E4
:101F5000ABCF86EA90E026EA30E0F90120812B7FC2
:101F6000FC01208389819A81009709F05CCF89EA7E
:101F700090E029EA30E0F90120812064FC0120830F
:101F80008AEA90E02AEA30E0F90120812F7C206182
:101F9000FC01208389EA90E029EA30E0F901208100
:101FA0002F7BFC0120834AC089ED90E0FC018081F9
:101FB000882F90E0827090700097A9F088E08B8362
:101FC00089EA90E029EA30E0F90120812064FC01EF
:101FD000208388EA90E021E0FC01208388EA90E0F9
:101FE000FC01108258C086EA90E0FC018081882FB5
:101FF00090E080719070009759F085EF90E0FC01BF
:1020000080818F718B8385EF90E0FC01108243C04B
:1020100086EA90E0FC018081882F90E082709070C9
:10202000009761F080E28B8386EA90E026EA30E058
:10203000F90120812D7FFC0120832DC086EA90E0EC
:10204000FC018081882F90E081709070882311F0CE
:1020500080E001C081E0882309F0A6CF86EA90E005
:1020600026EA30E0F90120812E7FFC01208389EAF5
:1020700090E029EA30E0F90120812064FC0120830E
:1020800086EA90E026EA30E0F90120812F77FC0112
:1020900020831B8200008B8127960FB6F894DEBF49
:1020A0000FBECDBFCF91DF910895DF93CF930F92F5
:1020B000CDB7DEB7198206C089810E94731089816D
:1020C0008F5F898389818823B9F31092FA0381EAAB
:1020D00090E020911404FC012083109213040F90CF
:1020E000CF91DF910895DF93CF9300D000D00F926E
:1020F000CDB7DEB78D8380911304282F30E08D811A
:10210000882F90E001962817390709F05BC01982E3
:1021100055C01A824CC08D81682F70E08981282FAC
:1021200030E08A81882F90E0AC01440F551F440FA6
:10213000551FC901880F991F820F931F9C01220F01
:10214000331F220F331F220F331F281B390B240F7D
:10215000351F4AE450E0649FC001659F900D749F55
:10216000900D1124820F931F875D9B4FFC0180818E
:102170008B838B818823C1F087EA90E0FC0180810A
:102180008C8387EA90E02B81FC0120838BEA90E02E
:102190002BEA30E0F90120812D7FFC01208387EAC2
:1021A00090E02C81FC0120838A818F5F8A838A8161
:1021B000833008F4B0CF89818F5F89838981833030
:1021C00008F4A7CF8D81482F50E02AE430E0429FE9
:1021D000C001439F900D529F900D11248C5E9B4F28
:1021E000FC0110828D81482F50E02AE430E0429FAC
:1021F000C001439F900D529F900D11248B5E9B4F09
:10220000FC0110828D81482F50E02AE430E0429F8B
:10221000C001439F900D529F900D11248A5E9B4FE9
:10222000FC0110828D81482F50E02AE430E0429F6B
:10223000C001439F900D529F900D1124895E9B4FCA
:10224000FC0110828D81482F50E02AE430E0429F4B
:10225000C001439F900D529F900D1124885E9B4FAB
:10226000FC0110828D81482F50E02AE430E0429F2B
:10227000C001439F900D529F900D1124875E9B4F8C
:10228000FC01118210828D81482F50E02AE430E059
:10229000429FC001439F900D529F900D1124855E77
:1022A0009B4FFC01118210828D81482F50E02AE45F
:1022B00030E0429FC001439F900D529F900D11242A
:1022C000835E9B4FFC0110828D81482F50E02AE4F1
:1022D00030E0429FC001439F900D529F900D11240A
:1022E000825E9B4FFC011082198296C18D81682FFE
:1022F00070E08981282F30E0C901880F991F820F73
:10230000931F9C01220F331F220F331F220F331FF5
:10231000281B390B4AE450E0649FC001659F900D73
:10232000749F900D1124820F931F815E9B4FFC01BF
:1023300010828D81682F70E08981282F30E0C901DB
:10234000880F991F820F931F9C01220F331F220FAA
:10235000331F220F331F281B390B4AE450E0649FC0
:10236000C001659F900D749F900D1124820F931FE3
:10237000805E9B4FFC0110828D81682F70E0898107
:10238000282F30E0C901880F991F820F931F9C01ED
:10239000220F331F220F331F220F331F281B390B2D
:1023A0004AE450E0649FC001659F900D749F900DBA
:1023B0001124820F931F8F5D9B4FFC0111821082AD
:1023C0008D81682F70E08981282F30E0C901880F46
:1023D000991F820F931F9C01220F331F220F331F5F
:1023E000220F331F281B390B4AE450E0649FC001C1
:1023F000659F900D749F900D1124820F931F8D5D2A
:102400009B4FFC01118210828D81682F70E08981C1
:10241000282F30E0C901880F991F820F931F9C015C
:10242000220F331F220F331F220F331F281B390B9C
:102430004AE450E0649FC001659F900D749F900D29
:102440001124820F931F8B5D9B4FFC011182108220
:102450008D81682F70E08981282F30E0C901880FB5
:10246000991F820F931F9C01220F331F220F331FCE
:10247000220F331F281B390B4AE450E0649FC00130
:10248000659F900D749F900D1124820F931F895D9D
:102490009B4FFC0110821A82B8C08D81682F70E0BA
:1024A0008981282F30E08A81882F90E0AC01440F89
:1024B000551F440F551FC901880F991F820F931F85
:1024C0009C01220F331F220F331F220F331F281BA3
:1024D000390B240F351F4AE450E0649FC001659F0B
:1024E000900D749F900D1124820F931F885D9B4F58
:1024F000FC0110828D81682F70E08981282F30E0E7
:102500008A81882F90E0AC01440F551F440F551F5E
:10251000C901880F991F820F931F9C01220F331F3F
:10252000220F331F220F331F281B390B240F351F97
:102530004AE450E0649FC001659F900D749F900D28
:102540001124820F931F875D9B4FFC0110828D81A8
:10255000682F70E08981282F30E08A81882F90E0F1
:10256000AC01440F551F440F551FC901880F991F17
:10257000820F931F9C01220F331F220F331F220F44
:10258000331F281B390B240F351F4AE450E0649F8A
:10259000C001659F900D749F900D1124820F931FB1
:1025A000865D9B4FFC0110828D81682F70E08981D0
:1025B000282F30E08A81882F90E00396AC01440FE9
:1025C000551F440F551FC901880F991F820F931F74
:1025D0009C01220F331F220F331F220F331F281B92
:1025E000390B240F351F4AE450E0649FC001659FFA
:1025F000900D749F900D1124820F931F815E9B4F4D
:10260000FC0110828A818F5F8A838A81833008F47B
:1026100044CF89818F5F89838981833008F466CEB6
:102620000F900F900F900F900F90CF91DF91089522
:10263000DF93CF93CDB7DEB789E490E02EE0FC01C5
:10264000208389E490E0FC018081882F90E08170F4
:1026500090700097B1F388ED90E028ED30E0F9013B
:1026600020812F76FC01208388ED90E028ED30E07A
:10267000F90120812069FC01208388ED90E028ED9C
:1026800030E0F90120812F7DFC01208380EE90E075
:1026900020EE30E0F90120812E7FFC01208387EDC0
:1026A00090E027ED30E0F90120812061FC012083DA
:1026B00088ED90E028ED30E0F90120812064FC01F4
:1026C00020838DED90E02DED30E0F9012081246034
:1026D000FC01208380EA90E020EA30E0F9012081CB
:1026E0002260FC01208310925F040E945510CF915C
:1026F000DF910895DF93CF93CDB7DEB780915F046C
:10270000882F90E08530910509F418C48630910532
:10271000BCF48230910509F47DC2833091053CF40C
:10272000009759F18130910509F4BBC098C58330F9
:10273000910509F496C28430910509F4CCC38FC584
:102740008830910509F46FC4893091054CF48630C6
:10275000910509F462C48730910509F461C47FC50D
:102760008A30910509F474C58A3091050CF4E8C4E7
:102770008B30910509F470C572C580915E048E7F1F
:1027800080935E0480915E048B7F80935E048091D1
:102790005E048D7F80935E0410920F0410920E04ED
:1027A0001092FD031092FA038FED90E0FC018081FE
:1027B000882F90E084709070009751F48FED90E036
:1027C000FC018081882F90E0827090700097D9F092
:1027D0008FED90E02FED30E0F90120812B7FFC019F
:1027E00020838FED90E02FED30E0F90120812D7FE7
:1027F000FC0120838DED90E02DED30E0F90120818A
:102800002160FC01208388ED90E028ED30E0F901A3
:1028100020812F7EFC0120838EE290E02EE230E0CA
:10282000F90120812068FC0120838DE290E02DE2F7
:1028300030E0F90120812068FC01208387ED90E0E1
:1028400027ED30E0F90120812F7EFC0120838FED00
:1028500090E0FC018081882F90E081709070882347
:1028600009F401C58FED90E02FED30E0F9012081F2
:102870002E7FFC01208388ED90E028ED30E0F90107
:1028800020812061FC0120838DED90E02DED30E072
:10289000F90120812260FC01208381E080935F04A4
:1028A000EDC48FE990E0FC018081882F90E0817079
:1028B0009070882329F48091FC03813009F037C19E
:1028C0008FE990E02EEFFC01208380915E048E7FE3
:1028D00080935E0480915E048B7F80935E04809180
:1028E0005E048D7F80935E0410920F0410920E049C
:1028F0001092FD031092FC0380EA90E020EA30E0A1
:10290000F90120812260FC012083789480915E048B
:102910008E7F80935E0480915E048B7F80935E0443
:1029200080915E048D7F80935E048EE990E02EE9B5
:1029300030E0F90120812160FC01208380EA90E0F1
:1029400020EA30E0F90120812062FC01208310920E
:10295000FF031092FE0330C080910E0490910F048B
:1029600080709270009791F080910E0490910F0406
:102970009D7F90930F0480930E048091FE039091AD
:10298000FF0301969093FF038093FE0389ED90E08F
:10299000FC018081882F90E082709070009709F090
:1029A000C6C08FED90E0FC018081882F90E084709C
:1029B0009070009709F0BBC08091FE039091FF03D7
:1029C0008436910548F280EA90E020EA30E0F9018F
:1029D00020812D7FFC0120838EE990E02EE930E0FC
:1029E000F90120812260FC01208380910E049091E6
:1029F0000F049D7F90930F0480930E0400008EE9D6
:102A000090E0FC018081882F90E0827090700097A8
:102A1000B1F78FE990E02BEFFC0120831092FF03C8
:102A20001092FE0326C080910E0490910F048070D6
:102A300092700097A9F08FE990E0FC018081882FC7
:102A400090E082709070009759F08FE990E02EEF3F
:102A5000FC0120838FE990E02DEFFC01208311C061
:102A60008091FE039091FF0301969093FF03809362
:102A7000FE038091FE039091FF03FFEF8F3F9F07BE
:102A800091F680EA90E020EA30E0F90120812260AE
:102A9000FC01208387EA90E0FC0110828DEA90E03F
:102AA000FC01108280E060E30E94C8041092FF03E2
:102AB0001092FE032EC080910E0490910F0480703E
:102AC0009270009791F080910E0490910F049D7F79
:102AD00090930F0480930E048091FE039091FF0366
:102AE00001969093FF038093FE0389ED90E0FC0133
:102AF0008081882F90E0827090700097C1F48FEDF4
:102B000090E0FC018081882F90E0847090700097A5
:102B100071F48091FE039091FF038436910558F281
:102B200082E080935F041092FF031092FE038FED0A
:102B300090E0FC018081882F90E084709070009775
:102B4000A9F48FED90E0FC018081882F90E08270E5
:102B50009070009759F489ED90E0FC018081882FF6
:102B600090E081709070882309F07FC38FED90E032
:102B70002FED30E0F90120812B7FFC0120838DEDCA
:102B800090E02DED30E0F90120812B7FFC012083C6
:102B900010925F048DED90E02DED30E0F901208181
:102BA0002160FC01208388ED90E028ED30E0F90100
:102BB00020812F7EFC01208388ED90E028ED30E01D
:102BC000F90120812061FC0120838FED90E02FED41
:102BD00030E0F90120812D7FFC0120838DED90E014
:102BE0002DED30E0F90120812260FC0120838DED84
:102BF00090E02DED30E0F90120812460FC0120837C
:102C00008EE990E02EE930E0F90120812E7FFC0171
:102C1000208334C380910E0490910F0480709270D1
:102C2000009709F424C380910E0490910F049D7FB6
:102C300090930F0480930E048091FE039091FF0304
:102C400021E08436910508F420E001969093FF037B
:102C50008093FE03222309F40CC383E080935F0476
:102C60000DC31092FA0381EA90E020911404FC0154
:102C7000208388E08093150480E88093C30586E074
:102C80008093C40580E091E09093C6058093C505CC
:102C90001092C8051092C70580E490E09093CA0591
:102CA0008093C90581E08093CB0580E694E00E9483
:102CB0001A0C882309F00BC11092FF031092FE0337
:102CC0002EC080910E0490910F0480709270009736
:102CD00091F080910E0490910F049D7F90930F04CA
:102CE00080930E048091FE039091FF0301969093D0
:102CF000FF038093FE0389ED90E0FC018081882F23
:102D000090E082709070009789F48FED90E0FC0164
:102D10008081882F90E084709070009739F48091C2
:102D2000FE039091FF038431910558F280EA90E010
:102D300020EA30E0F90120812D7FFC0120838EE91B
:102D400090E02EE930E0F90120812260FC0120832F
:102D500080910E0490910F049D7F90930F048093B7
:102D60000E0400008EE990E0FC018081882F90E045
:102D7000827090700097B1F78FE990E02BEFFC0123
:102D800020831092FF031092FE0326C080910E0450
:102D900090910F04807092700097A9F08FE990E0F5
:102DA000FC018081882F90E082709070009759F02C
:102DB0008FE990E02EEFFC0120838FE990E02DEF6A
:102DC000FC01208311C08091FE039091FF030196C6
:102DD0009093FF038093FE038091FE039091FF0385
:102DE000FFEF8F3F9F0791F680EA90E020EA30E006
:102DF000F90120812260FC0120831092FF031092D0
:102E0000FE0387EA90E0FC0110828DEA90E0FC016D
:102E1000108280E060E30E94C8042EC080910E04FE
:102E200090910F0480709270009791F080910E0441
:102E300090910F049D7F90930F0480930E048091D6
:102E4000FE039091FF0301969093FF038093FE038E
:102E500089ED90E0FC018081882F90E08270907075
:102E6000009789F48FED90E0FC018081882F90E03D
:102E700084709070009739F48091FE039091FF0365
:102E8000883C910558F28091670480931504109254
:102E9000C30585E08093C40585E090E09093C60566
:102EA0008093C5051092C8051092C7051092CA05F7
:102EB0001092C9051092CB0580E694E00E941A0C8E
:102EC00085E08093140484E080935F04D7C187E099
:102ED00080935F04D3C180E88093C30586E080932C
:102EE000C40580E091E09093C6058093C5051092DB
:102EF000C8051092C70582E190E09093CA058093BF
:102F0000C9051092CB0580E694E00E941A0C882334
:102F100089F40E949A05813049F480915E048160B1
:102F200080935E0485E080935F04A8C185E0809370
:102F30005F04A4C187E080935F04A0C180E8809310
:102F4000C30586E08093C40580E092E09093C605B7
:102F50008093C5051092C8051092C7058FEF90E0C9
:102F60009093CA058093C9051092CB0580E694E042
:102F70000E941A0C882309F04CC00E946606882320
:102F800009F443C0809113048F5F809313040E945F
:102F90006908882309F46FC11092C30589E0809302
:102FA000C40581E090E09093C6058093C50510921A
:102FB000C8051092C7051092CA051092C905109253
:102FC000CB0580E694E00E941A0C8823D1F486E0B9
:102FD00080935F0480EA90E020EA30E0F9012081EC
:102FE0002260FC01208380EA90E020EA30E0F901D1
:102FF00020812F7DFC01208381E08093FD03789464
:103000003DC187E080935F0439C187E080935F040E
:1030100035C187E080935F0431C11092FD032EC15A
:1030200010925F042BC18091FA03482F50E02AE4EC
:1030300030E0429FC001439F900D529F900D11249C
:10304000835E9B4FFC018081882F90E0807290709E
:103050000097D9F01092C30583E08093C40581E006
:1030600090E09093C6058093C50581E090E0909331
:10307000C8058093C7051092CA051092C905109221
:10308000CB0580E694E00E941A0C80EA90E0FC01F7
:103090008081882F90E09C012072307081E090E068
:1030A0002115310511F480E090E09093FF038093A7
:1030B000FE0380EA90E020EA30E0F90120812F7DD4
:1030C000FC0120838FE990E02FE930E0F9012081B5
:1030D0002F7DFC0120838EE990E02EE930E0F9019C
:1030E00020812E7FFC0120838FE990E02FE930E0E2
:1030F000F90120812F7BFC01208380EA90E020EA07
:1031000030E0F90120812064FC01208388ED90E00B
:1031100028ED30E0F90120812062FC01208389E460
:1031200090E029E430E0F90120812D7FFC0120832B
:1031300089E490E0FC01108289E080935F049EC0E6
:1031400080910E0490910F0480709470009729F480
:103150008091FB03813009F090C08091FB038130A6
:1031600051F580EA90E020EA30E0F90120812F7BE0
:10317000FC01208389E490E02EE0FC01208389E4B7
:1031800090E0FC018081882F90E081709070009722
:10319000B1F388ED90E028ED30E0F90120812F7D3A
:1031A000FC0120838FE990E02FE930E0F9012081D4
:1031B0002F7BFC0120838EE990E02EE930E0F901BD
:1031C00020812160FC0120838EE990E02EE930E02F
:1031D000F90120812460FC01208300008FE990E048
:1031E000FC018081882F90E0887090700097B1F387
:1031F0008FE990E02FE930E0F90120812F7EFC017A
:1032000020831092FB038FE990E02FE930E0F90171
:103210002081277FFC01208380910E0490910F0470
:103220009B7F90930F0480930E048091FE039091F6
:10323000FF03009749F080EA90E020EA30E0F901CE
:1032400020812062FC01208386E080935F0416C009
:103250008BE080935F0412C010925F040FC0109245
:103260005F0400000BC0000009C0000007C00000A0
:1032700005C0000003C0000001C00000CF91DF9135
:103280000895DF93CF93CDB7DEB72D970FB6F8949F
:10329000DEBF0FBECDBF89877B876A875D874C877E
:1032A0001A821F8280EA90E0FC018081882F90E0E2
:1032B0008072907021E0009709F420E0288780EA6E
:1032C00090E020EA30E0F90120812062FC012083B7
:1032D00087EA90E02985FC0120838AEA90E02AEAC7
:1032E00030E0F90120812F7C2062FC01208386EAF6
:1032F00090E026EA30E0F90120812B7FFC01208359
:1033000089EA90E029EA30E0F90120812F7BFC0175
:10331000208358C18BEA90E0FC018081882F90E0E7
:10332000807790709C013595279535952795359533
:1033300027953595279588E090E002C0880F991F62
:103340002A95E2F789838981282F30E08A859B8539
:103350008217930728F48A858E838A85898313C010
:1033600089818E8310C08FEA90E02C853D85F9011C
:103370002081FC0120838C859D8501969D878C870B
:103380008981815089838981882369F7109210048B
:103390001D821C821B8286EA90E026EA30E0F90159
:1033A00020812B7FFC01208386EA90E026EA30E032
:1033B000F90120812F77FC012083E4C089ED90E0A2
:1033C000FC018081882F90E0827090700097B1F0AE
:1033D00080E88A8388EA90E02985422F50E021E046
:1033E00030E0042E02C0220F331F0A94E2F7FC01E2
:1033F000208388EA90E0FC011082F6C080911004DE
:103400008A3F10F11092100481E09B81992309F406
:1034100080E09B819F5F9B838823B1F080E88A8353
:1034200088EA90E02985422F50E021E030E0042E28
:1034300002C0220F331F0A94E2F7FC01208388EABE
:1034400090E0FC011082D0C086EA90E0FC0180810F
:10345000882F90E080719070009709F446C085EF46
:1034600090E0FC0180818F718A8385EF90E0FC0100
:1034700010828A818830C9F581E09F81953608F4F1
:1034800080E09F819F5F9F83882309F0ACC01982F1
:103490001EC080910E0490910F048070927000976E
:1034A00061F080910E0490910F049D7F90930F0422
:1034B00080930E0489818F5F898389ED90E0FC0100
:1034C0008081882F90E082709070009721F489812C
:1034D0008230F8F201C0000089EA90E029EA30E089
:1034E000F90120812F7BFC01208386EA90E0FC011A
:1034F0008081882F90E082709070009761F080E268
:103500008A8386EA90E026EA30E0F90120812D7F67
:10351000FC01208369C086EA90E0FC018081882F4D
:1035200090E080749070009769F186EA90E026EA56
:1035300030E0F90120812F7BFC01208321E08C8188
:103540009D818131910508F420E08C819D81019657
:103550009D838C832223B1F080E48A8388EA90E003
:103560002985422F50E021E030E0042E02C0220FD6
:10357000331F0A94E2F7FC01208388EA90E0FC0103
:10358000108232C086EA90E0FC018081882F90E0B2
:1035900084709070009709F411CF8E81882F90E08D
:1035A0002A853B85A901481B590BCA019B878A873D
:1035B0001A8286EA90E026EA30E0F90120812B7F2A
:1035C000FC0120838A859B85009709F0A3CE00002B
:1035D0008CEA90E0FC018081882F90E083709070ED
:1035E0000097B1F701C0000089EA90E029EA30E0D5
:1035F000F90120812064FC0120838885882349F417
:1036000080EA90E020EA30E0F90120812F7DFC0182
:1036100020838A812D960FB6F894DEBF0FBECDBFF2
:10362000CF91DF910895DF93CF93CDB7DEB72E977B
:103630000FB6F894DEBF0FBECDBF8A877C876B873D
:103640005E874D8719828B859C85FC0180819181E5
:103650009C838B838B859C85FC011182108280EA80
:1036600090E0FC018081882F90E08072907021E0D2
:10367000009709F420E0298780EA90E020EA30E012
:10368000F90120812062FC01208387EA90E02A85ED
:10369000FC01208389EA90E029EA30E0F9012081E9
:1036A0002062FC0120838AEA90E02AEA30E0F901F6
:1036B00020812F7C2061FC01208386EA90E026EAAD
:1036C00030E0F90120812E7FFC012083D9C189EAF5
:1036D00090E029EA30E0F90120812F7BFC01208372
:1036E00086EA90E026EA30E0F90120812F77FC019C
:1036F0002083109210041A8218861F82BBC089EDA5
:1037000090E0FC018081882F90E08270907000979B
:10371000B1F080E8898388EA90E02A85422F50E062
:1037200021E030E0042E02C0220F331F0A94E2F79A
:10373000FC01208388EA90E0FC011082AFC18091F7
:1037400010048A3F10F11092100481E09A819923AD
:1037500009F480E09A819F5F9A838823B1F080E822
:10376000898388EA90E02A85422F50E021E030E00A
:10377000042E02C0220F331F0A94E2F7FC012083BB
:1037800088EA90E0FC01108289C186EA90E0FC01A1
:103790008081882F90E080719070009759F085EFBC
:1037A00090E0FC0180818F71898385EF90E0FC01BE
:1037B000108274C186EA90E0FC018081882F90E03D
:1037C000827090700097F9F080E2898388EA90E037
:1037D0002A85422F50E021E030E0042E02C0220F63
:1037E000331F0A94E2F7FC01208388EA90E0FC0191
:1037F000108286EA90E026EA30E0F90120812D7FF0
:10380000FC0120834BC186EA90E0FC018081882F77
:1038100090E080749070009769F186EA90E026EA63
:1038200030E0F90120812F7BFC01208321E08F8192
:1038300098858131910508F420E08F819885019663
:1038400098878F832223B1F080E4898388EA90E00F
:103850002A85422F50E021E030E0042E02C0220FE2
:10386000331F0A94E2F7FC01208388EA90E0FC0110
:10387000108214C186EA90E0FC018081882F90E0DC
:1038800081709070882311F080E001C081E088236E
:1038900009F035CF198289EA90E029EA30E0F90190
:1038A00020812064FC01208387EF90E0FC0180816F
:1038B000882F90E0382F222786EF90E0FC0180814E
:1038C000882F90E0282B392B8B819C8182179307BE
:1038D00008F4A2C087EF90E0FC018081882F90E07F
:1038E000382F222786EF90E0FC018081882F90E01E
:1038F000282B392B8B819C812817390778F587EF86
:1039000090E0FC018081882F90E0382F222786EFFD
:1039100090E0FC018081882F90E0282B392B8BEAE6
:1039200090E0FC018081882F90E080779070AC015E
:10393000559547955595479555954795559547956F
:1039400088E090E0042E02C0880F991F0A94E2F7E5
:103950002817390718F41C821B8218C087EF90E0E3
:10396000FC018081882F90E0382F222786EF90E09D
:10397000FC018081882F90E0822B932B2B813C814E
:10398000A901481B590BCA019C838B838B859C859D
:10399000FC012081318187EF90E0FC018081882F3C
:1039A00090E0582F442786EF90E0FC018081882F1B
:1039B00090E0842B952B280F391F8B859C85FC016B
:1039C0003183208387EF90E0FC018081882F90E095
:1039D000382F222786EF90E0FC018081882F90E02D
:1039E000822B932B9E838D8312C08FEA90E0FC0183
:1039F00020818D859E85FC0120838D859E85019685
:103A00009E878D878D819E8101979E838D838D8179
:103A10009E81009751F72BC08B859C85FC012081EE
:103A200031818B819C81280F391F8B859C85FC01FE
:103A3000318320838B819C819E838D8312C08FEA8A
:103A400090E0FC0120818D859E85FC0120838D8581
:103A50009E8501969E878D878D819E8101979E838D
:103A60008D838D819E81009751F71C821B8286EA8F
:103A700090E026EA30E0F90120812E7FFC012083CE
:103A80008B819C81009709F022CE89EA90E029EA97
:103A900030E0F90120812064FC012083898588239E
:103AA00049F480EA90E020EA30E0F90120812F7D9E
:103AB000FC01208389812E960FB6F894DEBF0FBEDD
:103AC000CDBFCF91DF910895DF93CF930F92CDB704
:103AD000DEB7198229C08981282F30E0C901880FFB
:103AE000991F820F931F9C01220F331F220F331F38
:103AF000820F931F865A9A4FFC0110828981282FCA
:103B000030E0C901880F991F820F931F9C01220F7B
:103B1000331F220F331F820F931F8A599A4FFC01C4
:103B2000108289818F5F898389818730A0F20F900D
:103B3000CF91DF910895DF93CF930F92CDB7DEB78A
:103B400019821AC08981282F30E0C901880F991F76
:103B5000820F931F9C01220F331F220F331F820FEE
:103B6000931F865A9A4FFC018081813011F481E0C5
:103B700007C089818F5F89838981873018F380E04E
:103B80000F90CF91DF910895DF93CF93CDB7DEB73C
:103B900027970FB6F894DEBF0FBECDBF89837B8316
:103BA0006A835D834C833F832E8387EA90E029817B
:103BB000FC0120838981282F30E0C901880F991FDB
:103BC000820F931F9C01220F331F220F331F820F7E
:103BD000931F865A9A4FFC018081813011F480E056
:103BE00016C10E949B1D8823B9F480EA90E0FC0175
:103BF0008081882F90E08072907021E0009709F416
:103C000020E02093CD0580EA90E020EA30E0F90141
:103C100020812062FC0120838981282F30E0C901A6
:103C2000880F991F820F931F9C01220F331F220FB1
:103C3000331F820F931F865A9A4F21E0FC01208385
:103C40008981282F30E0C901880F991F820F931FA7
:103C50009C01220F331F220F331F820F931F855A9F
:103C60009A4F2A813B81FC01318320838981282F4F
:103C700030E0C901880F991F820F931F9C01220F0A
:103C8000331F220F331F820F931F835A9A4FFC0159
:103C9000118210828981282F30E0C901880F991F75
:103CA000820F931F9C01220F331F220F331F820F9D
:103CB000931F8F599A4F2C813D81FC0131832083C2
:103CC0008981282F30E0C901880F991F820F931F27
:103CD0009C01220F331F220F331F820F931F8D5918
:103CE0009A4F2E813F81FC01318320838981282FC7
:103CF00030E0C901880F991F820F931F9C01220F8A
:103D0000331F220F331F820F931F8A599A4FFC01D2
:103D100010828981282F30E0C901880F991F820FF6
:103D2000931F9C01220F331F220F331F820F931FFB
:103D300089599A4F20E130E0FC01318320831092B1
:103D4000100488EA90E02981422F50E021E030E021
:103D5000042E02C0220F331F0A94E2F7FC012083D5
:103D600088EA90E0FC0110828EEA90E02EEA30E0D2
:103D7000F90120812260FC0120838EEA90E02EEA86
:103D800030E0F90120812064FC0120838EEA90E07C
:103D90002EEA30E0F90120812061FC0120838EEAC7
:103DA00090E02EEA30E0F90120812160FC012083BF
:103DB00086EA90E026EA30E0F90120812D7FFC01BF
:103DC000208386EA90E026EA30E0F90120812F7B0B
:103DD000FC01208389EA90E029EA30E0F9012081A2
:103DE0002062FC0120838AEA90E02AEA30E0F901AF
:103DF00020812F7C2061FC01208389EA90E029EA60
:103E000030E0F90120812F7BFC01208381E027969F
:103E10000FB6F894DEBF0FBECDBFCF91DF910895EE
:103E2000DF93CF93CDB7DEB72A970FB6F894DEBFF6
:103E30000FBECDBF8C837E836D8358874F833A87B7
:103E400029878F8198859B838A8387EA90E02C81DC
:103E5000FC0120838C81282F30E0C901880F991F35
:103E6000820F931F9C01220F331F220F331F820FDB
:103E7000931F865A9A4FFC018081813011F480E0B3
:103E8000AEC10E949B1D8823B9F480EA90E0FC013A
:103E90008081882F90E08072907021E0009709F473
:103EA00020E02093CD0580EA90E020EA30E0F9019F
:103EB00020812062FC0120838C81282F30E0C90101
:103EC000880F991F820F931F9C01220F331F220F0F
:103ED000331F820F931F865A9A4F21E0FC012083E3
:103EE0008C81282F30E0C901880F991F820F931F02
:103EF0009C01220F331F220F331F820F931F855AFD
:103F00009A4F2D813E81FC01318320838C81282FA3
:103F100030E0C901880F991F820F931F9C01220F67
:103F2000331F220F331F820F931F835A9A4FFC01B6
:103F3000118210828C81282F30E0C901880F991FCF
:103F4000820F931F9C01220F331F220F331F820FFA
:103F5000931F8F599A4F2F813885FC01318320831D
:103F60008C81282F30E0C901880F991F820F931F81
:103F70009C01220F331F220F331F820F931F8D5975
:103F80009A4F29853A85FC01318320838C81282F23
:103F900030E0C901880F991F820F931F9C01220FE7
:103FA000331F220F331F820F931F8A599A4FFC0130
:103FB00010828C81282F30E0C901880F991F820F51
:103FC000931F9C01220F331F220F331F820F931F59
:103FD00089599A4F20E130E0FC01318320838C81A4
:103FE000282F30E0C901880F991F820F931F9C0171
:103FF000220F331F220F331F820F931F815A9A4FB4
:10400000FC011182108288EA90E02C81422F50E05E
:1040100021E030E0042E02C0220F331F0A94E2F7A1
:10402000FC01208388EA90E0FC01108289EA90E09C
:1040300029EA30E0F90120812F7BFC0120838BEA03
:1040400090E0FC018081882F90E0807790709C0147
:104050003595279535952795359527953595279548
:1040600088E090E002C0880F991F2A95E2F78983C3
:104070008981282F30E08D819E818217930728F453
:104080008D8189831E821D820BC08981882F90E0DB
:104090002D813E81A901481B590BCA019E838D8346
:1040A0008C81282F30E08C81482F50E0CA01880F86
:1040B000991F840F951FAC01440F551F440F551FC6
:1040C000840F951F815A9A4FFC014081518189814B
:1040D000882F90E0480F591FC901880F991F820F40
:1040E000931F9C01220F331F220F331F820F931F38
:1040F000815A9A4FFC015183408310C08FEA90E0AF
:104100002A813B81F9012081FC0120838A819B81E6
:1041100001969B838A838981815089838981882341
:1041200069F7109210048C81282F30E0C901880FA4
:10413000991F820F931F9C01220F331F220F331FE1
:10414000820F931F8A599A4FFC01108286EA90E0F1
:1041500026EA30E0F90120812B7FFC01208386EAEA
:1041600090E026EA30E0F90120812D7FFC012083D8
:1041700086EA90E026EA30E0F90120812F7BFC01FD
:1041800020838EEA90E02EEA30E0F901208122605F
:10419000FC0120838EEA90E02EEA30E0F9012081D4
:1041A0002061FC0120838EEA90E02EEA30E0F901E4
:1041B00020812064FC0120838EEA90E02EEA30E02A
:1041C000F90120812460FC01208386EA90E026EA40
:1041D00030E0F90120812F77FC01208381E02A96CD
:1041E0000FB6F894DEBF0FBECDBFCF91DF9108951B
:1041F0001F920F920FB60F9200905B000F92112446
:104200002F933F934F935F936F937F938F939F93DE
:10421000AF93BF93EF93FF93DF93CF93CDB7DEB709
:104220002997DEBFCDBF1E8287EA90E0FC01808126
:104230008093CC050E9470058F8387EA90E02F81E0
:10424000FC0120838F81282F30E0C901880F991F3E
:10425000820F931F9C01220F331F220F331F820FE7
:10426000931F8D599A4FFC0180819181998788878E
:1042700086EA90E0FC018081882F90E08071907048
:10428000009709F473C08F81282F30E085EF90E00C
:10429000FC018081482F4F71C901880F991F820F3F
:1042A000931F9C01220F331F220F331F820F931F76
:1042B0008B599A4FFC0140838F81282F30E0C90130
:1042C000880F991F820F931F9C01220F331F220F0B
:1042D000331F820F931F865A9A4FFC0110828EEA79
:1042E00090E02EEA30E0F90120812B7FFC01208351
:1042F0008EEA90E02EEA30E0F90120812E7FFC0169
:1043000020838EEA90E02EEA30E0F90120812D7FB3
:10431000FC0120838EEA90E02EEA30E0F901208152
:104320002F7EFC0120838EEA90E02EEA30E0F90136
:1043300020812F7BFC01208388EA90E02F81422F8F
:1043400050E021E030E0042E02C0220F331F0A9417
:10435000E2F7FC01208388EA90E0FC01108285EFFF
:1043600090E0FC01108281E08E8346C586EA90E0F1
:10437000FC018081882F90E082709070009709F492
:104380006AC08F81282F30E0C901880F991F820FE2
:10439000931F9C01220F331F220F331F820F931F85
:1043A0008B599A4F20E2FC0120838F81282F30E027
:1043B000C901880F991F820F931F9C01220F331F81
:1043C000220F331F820F931F865A9A4FFC011082CF
:1043D0008EEA90E02EEA30E0F90120812B7FFC018B
:1043E00020838EEA90E02EEA30E0F90120812E7FD2
:1043F000FC0120838EEA90E02EEA30E0F901208172
:104400002D7FFC0120838EEA90E02EEA30E0F90156
:1044100020812F7EFC0120838EEA90E02EEA30E09E
:10442000F90120812F7BFC01208388EA90E02F8115
:10443000422F50E021E030E0042E02C0220F331F53
:104440000A94E2F7FC01208388EA90E0FC011082E4
:1044500081E08E83D1C486EA90E0FC018081882FC0
:1044600090E080749070009709F4BAC086EA90E0FA
:1044700026EA30E0F90120812F7BFC0120838F8127
:10448000282F30E0C901880F991F820F931FAC01BC
:10449000440F551F440F551F840F951F89599A4F7C
:1044A000FC0180819181AC0141505040C901880FCD
:1044B000991F820F931FBC01660F771F660F771F2E
:1044C000860F971F89599A4FFC0151834083C90178
:1044D000880F991F820F931F9C01220F331F220FF9
:1044E000331F820F931F89599A4FFC01808191815C
:1044F000009709F075C08AEA90E0FC0180818295FE
:10450000869586958370833009F46AC08F81282F41
:1045100030E0C901880F991F820F931F9C01220F61
:10452000331F220F331F820F931F8B599A4F20E4A2
:10453000FC0120838F81282F30E0C901880F991F4B
:10454000820F931F9C01220F331F220F331F820FF4
:10455000931F865A9A4FFC0110828EEA90E02EEA51
:1045600030E0F90120812B7FFC0120838EEA90E06E
:104570002EEA30E0F90120812E7FFC0120838EEAB3
:1045800090E02EEA30E0F90120812D7FFC012083AC
:104590008EEA90E02EEA30E0F90120812F7EFC01C6
:1045A00020838EEA90E02EEA30E0F90120812F7B13
:1045B000FC01208388EA90E02F81422F50E021E027
:1045C00030E0042E02C0220F331F0A94E2F7FC01F0
:1045D000208388EA90E0FC01108281E08E830CC485
:1045E00086EA90E0FC018081882F90E081709070D5
:1045F000882309F424C28F81282F30E0C901880F55
:10460000991F820F931F9C01220F331F220F331F0C
:10461000820F931F8F599A4FFC01408151818F81E6
:10462000282F30E0C901880F991F820F931F9C012A
:10463000220F331F220F331F820F931F835A9A4F6B
:10464000FC0180819181840F951F9A8389838F81DA
:10465000282F30E0C901880F991F820F931F9C01FA
:10466000220F331F220F331F820F931F855A9A4F39
:10467000FC01408151818F81282F30E0C901880FD2
:10468000991F820F931F9C01220F331F220F331F8C
:10469000820F931F835A9A4FFC01808191819A0166
:1046A000281B390BC9019C838B8389EA90E029EA96
:1046B00030E0F90120812064FC01208387EF90E045
:1046C000FC018081882F90E0382F222786EF90E030
:1046D000FC018081882F90E0282B392B8B819C81D5
:1046E0008217930708F4B4C087EF90E0FC01808143
:1046F000882F90E0382F222786EF90E0FC01808100
:10470000882F90E0282B392B8B819C812817390723
:1047100078F587EF90E0FC018081882F90E0382FBA
:10472000222786EF90E0FC018081882F90E0282BE3
:10473000392B8BEA90E0FC018081882F90E0807714
:104740009070AC015595479555954795559547956A
:104750005595479588E090E0042E02C0880F991F78
:104760000A94E2F72817390718F41C821B8218C034
:1047700087EF90E0FC018081882F90E0382F22277E
:1047800086EF90E0FC018081882F90E0822B932BB4
:104790002B813C81A901481B590BCA019C838B8347
:1047A0008F81282F30E08F81482F50E0CA01880F79
:1047B000991F840F951FAC01440F551F440F551FBF
:1047C000840F951F835A9A4FFC014081518187EFD6
:1047D00090E0FC018081882F90E0782F662786EF9B
:1047E00090E0FC018081882F90E0862B972B480F6A
:1047F000591FC901880F991F820F931F9C01220F17
:10480000331F220F331F820F931F835A9A4FFC01CD
:104810005183408387EF90E0FC01808186EF90E038
:10482000FC0180818D8310C08FEA90E0FC01208123
:1048300089819A81FC01208389819A8101969A83DA
:1048400089838D8181508D838D81882369F744C050
:104850008F81282F30E08F81482F50E0CA01880FC8
:10486000991F840F951FAC01440F551F440F551F0E
:10487000840F951F835A9A4FFC01408151818B818F
:104880009C81480F591FC901880F991F820F931FE0
:104890009C01220F331F220F331F820F931F835A55
:1048A0009A4FFC01518340838B818D8310C08FEA26
:1048B00090E0FC01208189819A81FC01208389811B
:1048C0009A8101969A8389838D8181508D838D8110
:1048D000882369F71C821B8286EA90E026EA30E092
:1048E000F90120812E7FFC0120838B819C81009720
:1048F000F1F189EA90E029EA30E0F90120812F7B8B
:10490000FC01208386EA90E026EA30E0F90120816C
:104910002F77FC012083109210048F81282F30E024
:10492000C901880F991F820F931F9C01220F331F0B
:10493000220F331F820F931F8A599A4FFC01108256
:104940008F81282F30E0C901880F991F820F931F94
:104950009C01220F331F220F331F820F931F89598F
:104960009A4F20E130E0FC013183208368C08F81C1
:10497000282F30E0C901880F991F820F931F9C01D7
:10498000220F331F220F331F820F931F865A9A4F15
:10499000FC0110828F81282F30E0C901880F991FF8
:1049A000820F931F9C01220F331F220F331F820F90
:1049B000931F8B599A4FFC0110828EEA90E02EEAE9
:1049C00030E0F90120812B7FFC0120838EEA90E00A
:1049D0002EEA30E0F90120812E7FFC0120838EEA4F
:1049E00090E02EEA30E0F90120812D7FFC01208348
:1049F0008EEA90E02EEA30E0F90120812F7EFC0162
:104A000020838EEA90E02EEA30E0F90120812F7BAE
:104A1000FC01208388EA90E02F81422F50E021E0C2
:104A200030E0042E02C0220F331F0A94E2F7FC018B
:104A3000208388EA90E0FC01108281E08E8386EA80
:104A400090E0FC018081882F90E084709070009746
:104A500009F4D2C186EA90E026EA30E0F90120812B
:104A60002B7FFC0120838F81282F30E08F81482FFE
:104A700050E0CA01880F991F840F951FAC01440FA5
:104A8000551F440F551F840F951F835A9A4FFC01E1
:104A9000608171818F81482F50E0CA01880F991F72
:104AA000840F951FAC01440F551F440F551F840FF1
:104AB000951F815A9A4FFC0180819181AB01480F6B
:104AC000591FC901880F991F820F931F9C01220F44
:104AD000331F220F331F820F931F835A9A4FFC01FB
:104AE000518340838F81282F30E0C901880F991F9F
:104AF000820F931F9C01220F331F220F331F820F3F
:104B0000931F815A9A4FFC01118210828F81282FA6
:104B100030E0C901880F991F820F931F9C01220F5B
:104B2000331F220F331F820F931F8F599A4FFC019F
:104B3000408151818F81282F30E0C901880F991F52
:104B4000820F931F9C01220F331F220F331F820FEE
:104B5000931F835A9A4FFC0180819181840F951F86
:104B60009A8389838F81282F30E0C901880F991F8C
:104B7000820F931F9C01220F331F220F331F820FBE
:104B8000931F855A9A4FFC01408151818F81282FB4
:104B900030E0C901880F991F820F931F9C01220FDB
:104BA000331F220F331F820F931F835A9A4FFC012A
:104BB000808191819A01281B390BC9019C838B83C9
:104BC0008B819C81009709F4B0C089EA90E029EAC2
:104BD00030E0F90120812F7BFC0120838BEA90E0FB
:104BE000FC018081882F90E0807790709C01359542
:104BF000279535952795359527953595279588E0FF
:104C000090E002C0880F991F2A95E2F78D838D816D
:104C1000282F30E08B819C818217930728F48B81A9
:104C20008D831C821B820BC08D81882F90E02B818D
:104C30003C81A901481B590BCA019C838B838F813E
:104C4000282F30E08F81482F50E0CA01880F991F2C
:104C5000840F951FAC01440F551F440F551F840F3F
:104C6000951F815A9A4FFC01408151818D81882F77
:104C700090E0480F591FC901880F991F820F931F99
:104C80009C01220F331F220F331F820F931F815A63
:104C90009A4FFC015183408310C08FEA90E0298134
:104CA0003A81F9012081FC01208389819A81019652
:104CB0009A8389838D8181508D838D81882369F7C3
:104CC000109210048F81282F30E0C901880F991F9E
:104CD000820F931F9C01220F331F220F331F820F5D
:104CE000931F8A599A4FFC0110828F81282F30E040
:104CF000C901880F991F820F931F9C01220F331F38
:104D0000220F331F820F931F89599A4F20E130E001
:104D1000FC013183208386EA90E026EA30E0F90145
:104D200020812F77FC01208367C08F81282F30E0FE
:104D3000C901880F991F820F931F9C01220F331FF7
:104D4000220F331F820F931F865A9A4FFC01108245
:104D50008F81282F30E0C901880F991F820F931F80
:104D60009C01220F331F220F331F820F931F8B5979
:104D70009A4FFC0110828EEA90E02EEA30E0F901B1
:104D800020812B7FFC0120838EEA90E02EEA30E028
:104D9000F90120812E7FFC0120838EEA90E02EEA2B
:104DA00030E0F90120812D7FFC0120838EEA90E024
:104DB0002EEA30E0F90120812F7EFC0120838EEA6B
:104DC00090E02EEA30E0F90120812F7BFC01208366
:104DD00088EA90E02F81422F50E021E030E002C0CD
:104DE000220F331F4A95E2F7FC01208388EA90E006
:104DF000FC01108281E08E8387EA90E02091CC054F
:104E0000FC0120830E949B1D882369F48091CD05BD
:104E1000882349F480EA90E020EA30E0F90120811B
:104E20002F7DFC0120838E81882369F18F81282FBB
:104E300030E0C901880F991F820F931F9C01220F38
:104E4000331F220F331F820F931F8B599A4FFC0180
:104E500060818F81282F30E0C901880F991F820F50
:104E6000931F9C01220F331F220F331F820F931FAA
:104E7000835A9A4FFC014081518128853985862FBC
:104E8000BA01F90109952996DEBFCDBFCF91DF9117
:104E9000FF91EF91BF91AF919F918F917F916F9112
:104EA0005F914F913F912F910F9000925B000F9077
:104EB0000FBE0F901F901895DF93CF9300D000D0B6
:104EC000CDB7DEB78B836C8381EF90E0FC018081EE
:104ED000898381EF90E0FC0180818A8380E00F90DC
:104EE0000F900F900F90CF91DF910895DF93CF93A4
:104EF0000F92CDB7DEB7898389EE90E021E0FC0107
:104F0000208383E860E30E94AD0389EE90E022E015
:104F1000FC01208380E860E30E94AD0389EE90E00D
:104F200023E0FC01208383E860E30E94AD0389EE67
:104F300090E024E0FC01208383E860E30E94AD035D
:104F40000F90CF91DF910895DF93CF9300D0CDB72D
:104F5000DEB79A83898380E00F900F90CF91DF9125
:104F60000895DF93CF9300D00F92CDB7DEB79A8329
:104F700089836B8389819A81009709F040C089EE0B
:104F800090E021E0FC0120838BEE90E02BEE30E0FE
:104F9000F90120812061FC0120838AEE90E022E06B
:104FA000FC0120838AEE90E0FC0110828BEE90E001
:104FB0002BEE30E0F90120812860FC01208389EE8E
:104FC00090E022E0FC0120838BEE90E02BEE30E0BD
:104FD000F90120812061FC0120838AEE90E024E029
:104FE000FC0120838AEE90E0FC0110828BEE90E0C1
:104FF0002BEE30E0F90120812860FC0120838981BB
:105000009A818130910509F040C089EE90E023E05B
:10501000FC0120838BEE90E02BEE30E0F901208143
:105020002061FC0120838AEE90E028E0FC012083CF
:105030008AEE90E0FC0110828BEE90E02BEE30E0E7
:10504000F90120812860FC01208389EE90E024E0B2
:10505000FC0120838BEE90E02BEE30E0F901208103
:105060002061FC0120838AEE90E020E1FC01208396
:105070008AEE90E0FC0110828BEE90E02BEE30E0A7
:10508000F90120812860FC0120830F900F900F9080
:10509000CF91DF910895DF93CF9300D0CDB7DEB7E6
:1050A00089836A838981882F90E08330910569F52F
:1050B0008A81882F90E08130910581F082309105BE
:1050C000C1F0009709F584E08093D6058BE091E06C
:1050D0009093D8058093D70581E018C08CE0809329
:1050E000D60581EE90E09093D8058093D70581E0B6
:1050F0000DC08EE18093D6058DEE90E09093D8059B
:105100008093D70581E002C0000080E00F900F90EF
:10511000CF91DF910895DF93CF9300D0CDB7DEB765
:1051200088EE90E028EE30E0F90120812B7FFC0131
:10513000208381EF90E0FC018081898381EF90E002
:10514000FC0180818A838A81882F90E086309105D6
:1051500041F1873091059CF48130910509F43FC0FD
:105160008230910524F4009709F445C071C0833062
:10517000910509F43AC08530910519F169C089306B
:10518000910529F18A30910524F48830910599F030
:105190005FC08A309105A9F18B30910509F439C0BF
:1051A00057C08981803809F03CC00E94B829882303
:1051B00009F439C06AC089818038B9F50E94EF2AA4
:1051C00064C08981882399F50E944A295EC089813B
:1051D000882379F50E948B29882369F156C089813B
:1051E0000E94582C882349F150C089810E94BF2B0E
:1051F000882329F14AC089810E94342B882309F130
:1052000044C089818138F9F40E94F22C8823E9F0A6
:105210003CC089818130D9F40E945E2D8823A1F59C
:1052200017C0000015C0000013C0000011C000002E
:105230000FC000000DC000000BC0000009C000003E
:1052400007C0000005C0000003C0000001C000004E
:1052500089816A810E945C278823B9F48BEE90E0F3
:105260002BEE30E0F90120812062FC01208388EEE2
:1052700090E028EE30E0F9012081277FFC012083B7
:1052800081E08093CE0501C000000F900F90CF9178
:10529000DF910895DF93CF930F92CDB7DEB781EF03
:1052A00090E0FC018081898383EE90E023EE30E082
:1052B000F9012081322F307829812F77232BFC01AF
:1052C000208388EE90E028EE30E0F9012081277FEE
:1052D000FC01208388EE90E028EE30E0F901208187
:1052E0002E7FFC012083000088EE90E0FC0180818D
:1052F000882F90E0817090700097B1F383EE90E07A
:1053000023EE30E0F90120812068FC0120830F901A
:10531000CF91DF910895DF93CF930F92CDB7DEB792
:1053200081EF90E0FC01808189838981823010F0D7
:1053300080E01AC088EE90E028EE30E0F90120818C
:10534000277FFC01208389818093D50588EE90E03A
:1053500028EE30E0F90120812E7FFC01208380912E
:10536000D5050E94762781E00F90CF91DF910895B7
:105370001F93DF93CF93CDB7DEB72B970FB6F8947B
:10538000DEBF0FBECDBF198281EF90E0FC018081AE
:105390008B8381EF90E0FC0180818C838C81882F4E
:1053A00090E08130910521F08230910559F014C0D0
:1053B00082E18093D60588E990E09093D8058093A8
:1053C000D70513C087E38093D6058AEA90E09093CF
:1053D000D8058093D70509C08C816B810E944B282A
:1053E000882311F480E0F1C0000081EF90E0FC011F
:1053F00080818D8381EF90E0FC0180818D83CE01DF
:105400000A9621EF30E0F9012081FC012083CE01D2
:105410000A96019621EF30E0F9012081FC012083FA
:1054200088EE90E028EE30E0F9012081277FFC0132
:1054300020838091D605282F30E08A859B85281708
:10544000390750F48091D6058F73882319F481E0D1
:10545000898306C0198204C08A859B858093D605FE
:1054600088EE90E028EE30E0F90120812F7EFC01EB
:1054700020831E8257C088EE90E0FC018081882F37
:1054800090E080719070009769F401C0000088EE90
:1054900090E0FC018081882F90E0817090700097EF
:1054A00051F301C000001A8224C081E09A81903437
:1054B00009F080E09A819F5F9A838823F9F421EFB5
:1054C00030E08091D7059091D80598878F83019619
:1054D0009093D8058093D7058F819885FC0114910E
:1054E00019878985F90180838091D6058150809341
:1054F000D6058091D6058823C1F601C0000088EE4C
:1055000090E0FC018081882F90E08071907000977E
:10551000C9F488EE90E028EE30E0F90120812E7F7A
:10552000FC0120838091D605882369F088EE90E005
:10553000FC018081882F90E080719070009709F4C1
:10554000A5CF01C0000089818130F9F488EE90E098
:10555000FC018081882F90E0807190700097B9F4F1
:10556000000088EE90E0FC018081882F90E081703F
:1055700090700097B1F388EE90E028EE30E0F901EA
:1055800020812E7FFC01208303C0000001C00000A9
:1055900088EE90E0FC018081882F90E0807190700F
:1055A0000097B1F388EE90E028EE30E0F901208119
:1055B0002F7EFC01208388EE90E028EE30E0F90198
:1055C00020812B7FFC01208381E02B960FB6F8947D
:1055D000DEBF0FBECDBFCF91DF911F910895DF9346
:1055E000CF93CDB7DEB788EE90E028EE30E0F9013A
:1055F0002081277FFC01208381EF90E02091D50559
:10560000FC01208388EE90E028EE30E0F901208153
:105610002E7FFC01208388EE90E028EE30E0F90137
:1056200020812F77FC012083000088EE90E0FC01B0
:105630008081882F90E0847090700097B1F388EE9D
:1056400090E028EE30E0F90120812B7FFC012083DF
:1056500088EE90E028EE30E0F90120812F77FC0100
:105660002083CF91DF910895DF93CF9300D00F92E5
:10567000CDB7DEB78B8381EF90E0FC018081898319
:1056800081EF90E0FC018081898381EF90E0FC0153
:1056900080818A838B81882F90E081389105B1F0D9
:1056A0008238910509F180389105B1F588EE90E0D6
:1056B00028EE30E0F9012081277FFC01208381EF73
:1056C00090E020910104FC01208328C088EE90E046
:1056D00028EE30E0F9012081277FFC01208381EF53
:1056E00090E0FC0110821AC088EE90E028EE30E0D5
:1056F000F9012081277FFC0120838A818F778A83AB
:1057000081EF90E02A81222F30E022533A4FF901B5
:105710002081FC01208302C080E02BC081EF90E05B
:10572000FC01108288EE90E028EE30E0F901208143
:105730002E7FFC012083000088EE90E0FC01808138
:10574000882F90E0847090700097B1F388EE90E01D
:1057500028EE30E0F90120812B7FFC01208388EEC8
:1057600090E028EE30E0F90120812F77FC012083C2
:1057700081E00F900F900F90CF91DF910895DF930C
:10578000CF9300D000D0CDB7DEB78C838C81882F2B
:1057900090E081309105A9F082309105A1F0009749
:1057A00009F07EC081EF90E0FC01808189838981CE
:1057B000882F90E08130910511F480E072C080E084
:1057C00070C080E06EC081EF90E0FC018081898331
:1057D00081EF90E0FC0180818A838981882311F028
:1057E00080E05FC081EF90E0FC0180818F778B8348
:1057F0008B81882391F48BEE90E02BEE30E0F90161
:1058000020812062FC01208388EE90E028EE30E0C9
:10581000F9012081277FFC01208389EE90E02B8114
:10582000FC0120838BEE90E0FC018081882F90E0CA
:1058300081709070882311F080E001C081E088239E
:1058400031F089EE90E0FC01108280E02AC08BEEFE
:1058500090E02BEE30E0F90120812062FC012083F2
:1058600089EE90E0FC0110828B81882F90E08253BA
:105870009A4F21E0FC01208388EE90E028EE30E092
:10588000F9012081277FFC01208388EE90E028EE3B
:1058900030E0F90120812E7FFC01208381E001C0EE
:1058A00080E00F900F900F900F90CF91DF910895AF
:1058B000DF93CF9300D000D0CDB7DEB78C838C813F
:1058C000882F90E08130910569F08230910561F078
:1058D000009709F07FC081EF90E0FC01808189830F
:1058E00080E079C080E077C081EF90E0FC018081AA
:1058F000898381EF90E0FC0180818A8389818823FC
:1059000011F080E068C081EF90E0FC0180818F772A
:105910008B8389EE90E02B81FC0120838BEE90E05D
:10592000FC018081882F90E081709070882311F0B5
:1059300080E001C081E0882331F089EE90E0FC0135
:10594000108280E048C08B81882329F18BEE90E0A3
:105950002BEE30E0F90120812061FC0120838AEEEA
:1059600090E02B81422F50E021E030E0042E02C075
:10597000220F331F0A94E2F7FC0120838AEE90E0A5
:10598000FC0110828BEE90E02BEE30E0F9012081DB
:105990002860FC01208389EE90E0FC0110828B815D
:1059A000882F90E082539A4FFC01108288EE90E09D
:1059B00028EE30E0F9012081277FFC01208388EE6A
:1059C00090E028EE30E0F90120812E7FFC01208359
:1059D00081E001C080E00F900F900F900F90CF9169
:1059E000DF9108950F931F93DF93CF9300D000D0E2
:1059F000CDB7DEB781EF90E0FC018081898381EF34
:105A000090E0FC0180818A83CE01039621EF30E093
:105A1000F9012081FC012083CE010396019621EF3C
:105A200030E0F9012081FC0120838A81882319F468
:105A30008A81882311F080E038C088EE90E028EE5B
:105A400030E0F9012081277FFC01208301EF10E085
:105A50008B819C810E94A427F801808388EE90E0CE
:105A600028EE30E0F90120812E7FFC012083000028
:105A700088EE90E0FC018081882F90E08470907027
:105A80000097B1F388EE90E028EE30E0F901208134
:105A90002B7FFC01208388EE90E028EE30E0F901B6
:105AA00020812F77FC01208381E00F900F900F90D1
:105AB0000F90CF91DF911F910F910895DF93CF93B6
:105AC00000D000D0CDB7DEB781EF90E0FC0180813F
:105AD000898381EF90E0FC0180818A83CE01039667
