:10000000F9C000001CC100000C94502618C100006B
:1000100016C1000014C1000012C1000010C1000090
:100020000EC100000CC100000C94BC0C0C94E10C3F
:1000300006C1000004C100000C94A60E0C94F20E40
:100040000C943E0F0C948A0F0C94D60F0C94221033
:100050000C946E100C94BA100C9406110C9452115E
:10006000EEC00000ECC00000EAC00000E8C00000E4
:10007000E6C00000E4C00000E2C00000E0C00000F4
:10008000DEC00000DCC00000DAC00000D8C0000004
:10009000D6C00000D4C00000D2C00000D0C0000014
:1000A000CEC00000CCC00000CAC00000C8C0000024
:1000B000C6C00000C4C00000C2C000000C9496146A
:1000C0000C94E2140C942E150C947A150C94C6150D
:1000D0000C9412160C945E160C94AA160C94F61638
:1000E0000C944217ACC00000AAC00000A8C00000D9
:1000F000A6C00000A4C00000A2C00000A0C0000074
:100100000C948A3D9CC000009AC0000098C000007A
:1001100096C0000094C0000092C0000090C0000093
:100120008EC000008CC000008AC0000088C00000A3
:1001300086C000000C949E110C94EA110C943612A7
:100140000C9482120C94CE120C941A130C94661315
:100150000C94B2130C94FE130C944A1470C000005B
:100160006EC000006CC000006AC0000068C00000E3
:1001700066C0000064C0000062C0000060C00000F3
:100180005EC000005CC000005AC0000058C0000003
:1001900056C0000054C0000052C0000050C0000013
:1001A0004EC000004CC000004AC0000048C0000023
:1001B0000C948E170C94DA170C9426180C94721861
:1001C0000C94BE180C940A190C9456190C94A2198C
:1001D0000C94EE190C943A1A32C0000030C00000A2
:1001E0002EC000002CC000002AC0000028C0000063
:1001F00026C0000011241FBECFEFDFE3DEBFCDBF5E
:1002000000E00CBF18BE19BE1ABE1BBE14E2A0E06F
:10021000B0E2EEE5FBE900E00BBF02C007900D92F3
:10022000A035B107D9F718E2A0E5B4E201C01D92EC
:10023000A431B107E1F70E94D21C0C94AD4DE0CE81
:100240000F93DF93CF93CDB7DEB76097CDBFDEBFFF
:10025000002309F459C029833A834B835C836D835F
:100260007E838F839887E0E2E01B2D813E814F8162
:1002700058851E16BCF01D861E861F86188A8E2F76
:10028000992787FD9095909581959F4F04C056952D
:100290004795379527958A95D2F729873A874B87CF
:1002A0005C872AC0CA01B901002E04C096958795C3
:1002B000779567950A94D2F76D877E878F87988B9D
:1002C000DA01C90104C0880F991FAA1FBB1FEA9554
:1002D000D2F729813A814B815C8104C056954795BC
:1002E000379527950A95D2F7822B932BA42BB52B04
:1002F00089879A87AB87BC8729853A854B855C853A
:100300006D857E858F8598896096CDBFDEBFCF9144
:10031000DF910F910895EF92FF920F931F937B014E
:100320008C0120E030E040E05FE48CD387FD0FC01B
:10033000C801B70120E030E040E05FE487D1DCD3C2
:100340009B01AC01205030404040504805C0C801DE
:10035000B701D2D39B01AC01B901CA011F910F9122
:10036000FF90EF900895A0E0B0E0E9EBF1E00C948D
:10037000FD48FC01EA018081823008F438C1DB01CC
:100380009C91923008F430C1843059F4943009F0D3
:100390002EC1918111968C911197981709F021C166
:1003A00026C1943009F420C19230B1F4823009F0B2
:1003B0001EC1CA01AF0128E0DA010D90AD01DC01D8
:1003C0000D92CD012150C1F7DB0111968C9111974F
:1003D0009181892389830AC1823009F405C1C280D1
:1003E000D380DB0112966D907C9013972481358128
:1003F000468157811496ED90FD900D911C911797B1
:10040000C601861997095C0197FF04C0AA24BB2482
:10041000A81AB90AB0E2AB16B1040CF061C0181604
:1004200019066CF5370148010A2C04C0969487948C
:10043000779467940A94D2F781E090E0A0E0B0E06E
:100440000A2C04C0880F991FAA1FBB1F0A94D2F759
:100450000197A109B1098E219F21A023B123EE2488
:10046000FF248701E3940097A105B10519F4EE2458
:10047000FF248701E628F728082919293CC000979E
:10048000D1F1CA0CDB1C39014A010A2C04C0969434
:100490008794779467940A94D2F781E090E0A0E083
:1004A000B0E00A2C04C0880F991FAA1FBB1F0A9432
:1004B000D2F70197A109B10982239323A423B5237D
:1004C00021E030E040E050E00097A105B10519F4CB
:1004D00020E030E0A90126293729482959290BC0F5
:1004E0006C147D0424F4EE24FF24870104C063010E
:1004F00020E030E0A9018181FB019181891709F495
:1005000045C0882349F0D801C701821B930BA40B77
:10051000B50B9C01AD0104C02E193F09400B510BD6
:1005200057FD04C01982CA82DB820BC081E0898337
:10053000CA82DB8250954095309521953F4F4F4FB1
:100540005F4F2C833D834E835F830DC0880F991FBF
:10055000AA1FBB1F8C839D83AE83BF838A819B812F
:1005600001978A839B838C819D81AE81BF819C0191
:10057000AD0121503040404050402F3FEFEF3E074B
:10058000EFEF4E07EFE35E0708F30BC08983CA82E3
:10059000DB822E0D3F1D401F511F2C833D834E8358
:1005A0005F8383E088832C813D814E815F8157FF8B
:1005B0001DC0DA01C90181709070A070B0705695AD
:1005C000479537952795822B932BA42BB52B8C839E
:1005D0009D83AE83BF838A819B8101968A839B839F
:1005E00005C0E2E3F4E203C0FB0101C0FE01CF015C
:1005F000CDB7DEB7EEE00C941649A0E2B0E0E3E040
:10060000F3E00C94054969837A838B839C832D8363
:100610003E834F83588789E0E82EF12CEC0EFD1EB7
:10062000CE010196B70187D38E010F5E1F4FCE0119
:100630000596B80180D3C701B801AE01475E5F4F90
:1006400092DEABD2A096E6E00C941E49A0E2B0E0A8
:10065000ECE2F3E00C94054969837A838B839C83F5
:100660002D833E834F8358878E01075F1F4FCE0136
:100670000196B80160D391E1E92EF12CEC0EFD1E3C
:10068000CE010596B70157D38A8991E089278A8BD5
:10069000C801B701AE01475E5F4F65DE7ED2A0960E
:1006A000E6E00C941E49A0E2B0E0E9E5F3E00C942A
:1006B000F94869837A838B839C832D833E834F83A0
:1006C0005887CE010196BE01675F7F4F34D3CE01BC
:1006D0000596BE016F5E7F4F2ED39985923078F0DC
:1006E00089898230C0F0943019F4823041F4CBC053
:1006F000843019F4923079F4C6C0923051F481E01C
:100700002A859A89291709F480E08A87CE010996FB
:10071000BCC0823051F481E02A859A89291709F4F6
:1007200080E08A8BCE014196B0C06D847E848F8438
:100730009888ED88FE880F89188DE0E2F0E080E06F
:1007400090E0DC01AA24BB24650120E030E0A9018F
:10075000B3016170707061157105D1F02E0D3F1DF0
:10076000401F511F15012601280E391E4A1E5B1E0F
:1007700081E090E0A0E0B0E02E153F054007510772
:1007800018F080E090E0DC01820D931DA41DB51DE2
:10079000AA0CBB1CCC1CDD1C17FF09C061E0262E77
:1007A000312C412C512CA228B328C428D5283197AC
:1007B00049F0EE0CFF1C001F111F9694879477944C
:1007C0006794C6CF6B897C89EB85FC856E0F7F1F94
:1007D0006E5F7F4F6B8F7C8F61E0EA857A89E717C8
:1007E00009F460E06A8F6B8D7C8D10C0FC01E170B4
:1007F000F070309729F056954795379527955068B2
:10080000B695A795979587956F5F7F4FB7FDEECF0C
:100810000CC0880F991FAA1FBB1F57FD8160220FB4
:10082000331F441F551F615070408030E0E09E0729
:10083000E0E0AE07E0E4BE0760F36B8F7C8F6FE70C
:10084000E62EF12C012D112DE822F9220A231B237B
:1008500060E4E616F1040105110561F487FD0AC0A4
:10086000211531054105510529F0805C9F4FAF4F9F
:10087000BF4F80788D8F9E8FAF8FB8A383E0898F15
:10088000CE01499602C082E394E287D1A096E2E1CC
:100890000C941249A8E1B0E0E0E5F4E00C940149C1
:1008A00069837A838B839C832D833E834F83588710
:1008B0008E01075F1F4FCE010196B8013CD281E146
:1008C000E82EF12CEC0EFD1ECE010596B70133D2B9
:1008D0009985923008F483C08989823008F47BC0FE
:1008E0002A853A8923272A87943011F0923021F4FF
:1008F000981709F06CC071C0843039F41D861E86CB
:100900001F86188A1B861C866AC0823019F484E010
:10091000898765C08B859C852B893C89821B930BBD
:100920008B879C872D853E854F855889ED88FE886D
:100930000F89188D2E153F054007510738F4220FF7
:10094000331F441F551F01978B879C876FE170E011
:10095000A12CB12CC12CA0E4DA2E80E090E0DC01C7
:100960002E153F054007510740F08A299B29AC29E5
:10097000BD292E193F09400B510BD694C794B7944B
:10098000A794220F331F441F551F6150704041F739
:100990006FE7E62EF12C012D112DE822F9220A2312
:1009A0001B2360E4E616F1040105110561F487FDDF
:1009B0000AC0211531054105510529F0805C9F4F82
:1009C000AF4FBF4F80788D879E87AF87B88B8E01E2
:1009D000075F1F4F04C0870102C002E314E2C80191
:1009E000DCD06896EAE00C941A49A8E1B0E0EBEF9D
:1009F000F4E00C94054969837A838B839C832D836F
:100A00003E834F8358878E01075F1F4FCE010196AB
:100A1000B80191D181E1E82EF12CEC0EFD1ECE0142
:100A20000596B70188D18985823038F0898982306E
:100A300020F0C801B701E8D101C08FEF6896E6E069
:100A40000C941E49A8E1B0E0E8E2F5E00C940549F9
:100A500069837A838B839C832D833E834F8358875E
:100A60008E01075F1F4FCE010196B80164D181E16D
:100A7000E82EF12CEC0EFD1ECE010596B7015BD1E0
:100A80008985823038F08989823020F0C801B70129
:100A9000BBD101C08FEF6896E6E00C941E49A8E137
:100AA000B0E0E5E5F5E00C94054969837A838B8332
:100AB0009C832D833E834F8358878E01075F1F4F92
:100AC000CE010196B80137D181E1E82EF12CEC0E70
:100AD000FD1ECE010596B7012ED18985823038F0F2
:100AE0008989823020F0C801B7018ED101C081E030
:100AF0006896E6E00C941E49ACE0B0E0E2E8F5E070
:100B00000C94094969837A838B839C83CE01019677
:100B1000BE016B5F7F4F0FD18D81823081F18230BA
:100B200070F1843021F48E81882369F10AC02F810D
:100B3000388537FD24C06E812F3131053CF06623A6
:100B400011F120E030E040E050E821C08EE190E07B
:100B5000821B930B29853A854B855C8504C056958D
:100B60004795379527958A95D2F7662381F050955A
:100B70004095309521953F4F4F4F5F4F08C020E083
:100B800030E0A90104C02FEF3FEF4FEF5FE7B9015D
:100B9000CA012C96E2E00C942249EF92FF920F9347
:100BA0001F93CF93DF93FC012481358146815781C8
:100BB00061818081823020F44061EFEFF0E0A3C0DA
:100BC000843009F49BC0823009F492C021153105AC
:100BD0004105510509F48FC00280F381E02D8FEFAC
:100BE000E238F8070CF05AC0C2E8DFEFCE1BDF0B8B
:100BF000CA31D1056CF579018A010C2E04C0169515
:100C00000795F794E7940A94D2F781E090E0A0E08A
:100C1000B0E00C2E04C0880F991FAA1FBB1F0A94B6
:100C2000D2F70197A109B10982239323A423B52305
:100C300021E030E040E050E00097A105B10519F453
:100C400020E030E0A9012E293F29402B512B03C081
:100C500020E030E0A901DA01C9018F779070A0701F
:100C6000B07080349105A105B10539F427FF09C0A2
:100C7000205C3F4F4F4F5F4F04C0215C3F4F4F4FB1
:100C80005F4FE1E0F0E0203080E0380780E0480787
:100C900080E4580728F5E0E0F0E022C0E038F105F4
:100CA0006CF5E158FF4FDA01C9018F779070A070A1
:100CB000B07080349105A105B10539F427FF09C052
:100CC000205C3F4F4F4F5F4F04C0215C3F4F4F4F61
:100CD0005F4F57FF05C05695479537952795319635
:100CE00087E056954795379527958A95D1F70BC09C
:100CF000E0E0F0E005C0E0E0F0E005C0EFEFF0E09C
:100D000020E030E0A9018E2F879588278795942FC2
:100D10009F77679566276795E695E22EA92FA82B02
:100D2000FE2FF62B622F732F8A2F9F2FCDB7DEB7A2
:100D3000E6E00C941E49DC01FB012C9111963C91DC
:100D4000119712968C911297482F4F7750E0982F59
:100D5000991F9927991F13966C911397862F880FC7
:100D6000892B90E0661F6627661F6183009739F51F
:100D7000211531054105510511F482E029C082E8B1
:100D80009FEF8283938367E0220F331F441F551F19
:100D90006A95D1F783E0808309C0220F331F441F77
:100DA000551F82819381019782839383203080E055
:100DB000380780E0480780E4580778F320C08F3F69
:100DC000910579F4211531054105510519F484E0A7
:100DD0008083089544FF03C081E0808310C01082A7
:100DE0000EC08F5790408283938383E0808387E097
:100DF000220F331F441F551F8A95D1F75064248357
:100E00003583468357830895FC01DB01908192303E
:100E100008F449C08C91823008F445C0943051F4F4
:100E200061818430B1F511962C91119730E0261B29
:100E3000310941C0843021F0923041F48230B1F167
:100E400011968C9111978823A1F12DC06181823078
:100E500001F111968C9111976817D9F42281338191
:100E600012968D919C9113978217930794F02817EF
:100E70003907BCF0248135814681578114968D91C4
:100E80009D910D90BC91A02D82179307A407B507E3
:100E900018F4662341F00DC0281739074A075B078D
:100EA00028F4662331F021E030E005C020E030E096
:100EB00002C02FEF3FEFC9010895DF93CF930F9248
:100EC000CDB7DEB78FE390E0FC0180818983F89491
:100ED00089810F90CF91DF910895DF93CF930F9287
:100EE000CDB7DEB789838FE390E02981FC012083B1
:100EF0000F90CF91DF910895DF93CF930F920F92D0
:100F0000CDB7DEB78A83D9DF898380E590E020E51D
:100F100030E0F90130812A81232BFC012083898173
:100F2000DCDF0F900F90CF91DF910895DF93CF9387
:100F30000F920F92CDB7DEB78A838A81883009F08D
:100F4000FFCF80E590E022E0FC012283B6DF8983B9
:100F500080E590E020E530E0F90130812A81232B03
:100F6000FC0120838981B9DF0F900F90CF91DF9131
:100F70000895DF93CF930F920F92CDB7DEB78A8398
:100F80009CDF898380E590E020E530E0F901208155
:100F9000322F2A8120952323FC01208389819DDF24
:100FA0000F900F90CF91DF910895DF93CF930F9221
:100FB000CDB7DEB789838981883019F089819CDFBC
:100FC00002C08981B3DF0F90CF91DF910895DF9345
:100FD000CF930F92CDB7DEB7898380E590E0FC0117
:100FE00091818981982381E0992309F480E00F9011
:100FF000CF91DF910895DF93CF9300D0CDB7DEB7C7
:101000008A836B835ADF89838A81882F90E08130BD
:10101000910521F08230910541F14EC08B818430E1
:1010200021F08B81883009F0FFCF8B81883051F41B
:1010300080E590E020E530E0F90126812160FC01A7
:10104000268309C080E590E020E530E0F9012681A3
:101050002E7FFC01268388E690E028E630E0F90147
:1010600020812160FC01208328C08B81843021F005
:101070008B81883009F0FFCF8B81883051F480E577
:1010800090E020E530E0F90126812260FC01268312
:1010900009C080E590E020E530E0F90126812D7F50
:1010A000FC01268380E690E020E630E0F901208113
:1010B0002160FC01208301C0FFCF89810EDF2396D0
:1010C000CDBFDEBFCF91DF910895DF93CF930F9215
:1010D000CDB7DEB789830000898179DF982F81E061
:1010E00089278823C9F70F90CF91DF910895DF9367
:1010F000CF930F920F92CDB7DEB789836A83998120
:101100008A81292F282B81E490E0622FD5D30F907C
:101110000F90CF91DF910895DF93CF9300D00F927E
:10112000CDB7DEB780E790E089839A831B820DC03C
:1011300089819A812FEFFC01208389819A81019610
:1011400089839A838B818F5F8B838B81873080F338
:1011500084E060E0CCDF1C8282E027DF82E0B5DF44
:1011600080E490E061E0A8D380E490E0FC0180811D
:10117000813009F0FFCF82E068E03DDF9C8181E0B3
:101180008927882311F081E0F4DE2496CDBFDEBFED
:10119000CF91DF910895DF93CF9300D00F92CDB719
:1011A000DEB78A839B836C8388DE89838A819B81F7
:1011B00080599F4F2A813B8120593F4FF90120815F
:1011C000322F2C8120952323FC012083898185DE09
:1011D0002496CDBFDEBFCF91DF910895DF93CF93EB
:1011E0000F92CDB7DEB789838981869586958695DE
:1011F000882F90E0C096880F991F82959295907FD6
:101200009827807F98270F90CF91DF910895DF93E3
:10121000CF930F92CDB7DEB789838981882F90E075
:101220009C012770307081E090E0022E02C0880F90
:10123000991F0A94E2F70F90CF91DF910895DF9301
:10124000CF9300D0CDB7DEB78B838B81C7DF898387
:101250009A838B81DCDF282F89819A81FC01268388
:101260002396CDBFDEBFCF91DF910895DF93CF935B
:1012700000D0CDB7DEB78B838B81B0DF89839A83B3
:101280008B81C5DF282F89819A81FC0125832396D4
:10129000CDBFDEBFCF91DF910895DF93CF9300D014
:1012A000CDB7DEB789839A836B8389819A812B813D
:1012B000FC0123832396CDBFDEBFCF91DF9108953C
:1012C000DF93CF930F920F92CDB7DEB789839A83C6
:1012D00089819A81FC0183810F900F90CF91DF91DA
:1012E0000895DF93CF930F920F92CDB7DEB7898326
:1012F0009A8389819A81FC018281881F8827881FAF
:101300000F900F90CF91DF910895DF93CF930F92BD
:101310000F92CDB7DEB789839A8389819A81FC01C8
:101320008081282F206189819A81FC0120830F9080
:101330000F90CF91DF910895DF93CF9300D00F925C
:10134000CDB7DEB789839A836B837C8389819A8149
:10135000B7DF282F8B819C81FC0120832496CDBF91
:10136000DEBFCF91DF910895DF93CF930F920F925D
:10137000CDB7DEB789839A8389819A81B2DF0F90D6
:101380000F90CF91DF910895DF93CF93CDB7DEB764
:1013900080E098E4A8EEB1E0BC01CD01CF91DF91EF
:1013A0000895DF93CF930F92CDB7DEB7198281E016
:1013B0008983EADFDC01CB012981222F30E0022E74
:1013C00004C0B695A795979587950A94D2F7BC0166
:1013D000CD010F90CF91DF910895DF93CF93CDB7DB
:1013E000DEB7DFDFDC01CB01BC01CD01CF91DF91A6
:1013F0000895DF93CF93CDB7DEB7EFDFDC01CB01EC
:10140000BC01CD01CF91DF910895DF93CF93CDB78C
:10141000DEB7EFDFDC01CB01BC01CD01CF91DF9165
:101420000895DF93CF930F920F92CDB7DEB78983E4
:101430009A8389819A8128E0803C920721F483E095
:1014400090E068E0A8DE89819A8129E0803C9207DB
:1014500021F484E090E068E09EDE89819A812AE0B0
:10146000803C920721F485E090E068E094DE898179
:101470009A812BE0803C920721F486E090E068E0BE
:101480008ADE89819A8141DF0F900F90CF91DF91A1
:101490000895CF92DF92EF92FF920F931F93DF9305
:1014A000CF93CDB7DEB72D97CDBFDEBF89839A83AB
:1014B0006B837C834D830E831F8328873987CA867D
:1014C000DB86EC86FD8689819A812B813C81B9017E
:1014D00004D19BDF8B019C0189819A814E815F81C0
:1014E0006885798523D389819A81FC018081282FA1
:1014F0008D81882F90E0880F991F880F991F8C701D
:10150000822B282F89819A81FC0120832D96CDBFC3
:10151000DEBFCF91DF911F910F91FF90EF90DF9091
:10152000CF900895DF93CF93CDB7DEB72A97CDBF85
:10153000DEBF8E839F83688779874A8719821A82E4
:1015400022C02885398589819A81820F931FFC01E9
:1015500020818E819F818B839C832D838B819C81B5
:101560006D819BDE00008E819F81FEDE982F81E0E1
:1015700089278823C1F78A8581508A8789819A8142
:10158000019689839A838A858823D9F680E090E042
:101590002A96CDBFDEBFCF91DF910895DF93CF9321
:1015A00000D000D0CDB7DEB78C839D836E838C8155
:1015B0009D8189839A838E818B8389819A816B81B6
:1015C0006CDE00008C819D81CFDE982F81E0892721
:1015D0008823C1F780E090E02696CDBFDEBFCF9193
:1015E000DF910895DF93CF9300D000D0CDB7DEB761
:1015F0008D839E838D819E8189839A838FEF8B83D8
:1016000089819A816B8149DE00008D819E81ACDEEB
:10161000982F81E089278823C1F78D819E819E01C3
:101620002C5F3F4FB90188DE8C812696CDBFDEBF8F
:10163000CF91DF910895DF93CF93CDB7DEB7299790
:10164000CDBFDEBF8C839D836E837F8348875987A0
:1016500023C08C819D8189839A838FEF8B838981BD
:101660009A816B811ADE00008C819D817DDE982F2E
:1016700081E089278823C1F78C819D812E813F815C
:10168000B9015ADE888599850197888799878E8167
:101690009F8101968E839F83888599850097C9F6DF
:1016A00080E090E02996CDBFDEBFCF91DF91089515
:1016B000DF93CF9300D00F92CDB7DEB789839A83A3
:1016C0006B837C838B819C81FC018081B8DD2496B7
:1016D000CDBFDEBFCF91DF910895DF93CF9300D0D0
:1016E0000F92CDB7DEB789839A836B837C838B811E
:1016F0009C81FC018081BADD2496CDBFDEBFCF91F5
:10170000DF910895DF93CF930F92CDB7DEB7898332
:101710008981869586958695882F90E0C096880F5A
:10172000991F82959295907F9827807F98270F9098
:10173000CF91DF910895DF93CF930F92CDB7DEB7AE
:1017400089838981882F90E09C012770307081E027
:1017500090E0022E02C0880F991F0A94E2F70F90C2
:10176000CF91DF9108950F931F93DF93CF9300D014
:10177000CDB7DEB789836A837B838981C3DF8C0120
:101780008981D9DF482F2A813B81C801642FA901B3
:1017900099D02396CDBFDEBFCF91DF911F910F91DE
:1017A0000895DF93CF93CDB7DEB780E260E073E0BA
:1017B000DADF81E260E073E0D6DF82E260E073E0CE
:1017C000D2DF83E260E073E0CEDF84E260E073E0CA
:1017D000CADF85E260E073E0C6DF86E260E073E0C6
:1017E000C2DF87E260E073E0BEDF88E268E170E0BC
:1017F000BADF89E268E170E0B6DF8AE268E170E0B2
:10180000B2DF8BE268E170E0AEDF8CE268E170E0AD
:10181000AADF8DE268E170E0A6DF8EE268E170E0A9
:10182000A2DF8FE268E170E09EDF83E160E070E0BC
:101830009ADF84E160E073E096DF87E160E073E0C7
:1018400092DF85E160E073E08EDF86E160E070E0CA
:101850008ADF83E160E070E086DF8CE160E073E0C6
:1018600082DF8FE160E073E07EDF8DE160E073E0B6
:101870007ADF88E160E073E076DF8BE160E073E0BF
:1018800072DF8EE160E070E06EDF8AE169E170E0B6
:101890006ADF87E060E073E066DF80E060E070E0D0
:1018A00062DF82E060E070E05EDF89E060E070E0CF
:1018B0005ADFCF91DF9108951BBEFC0128ED24BFB4
:1018C00060830895DF93CF9300D000D0CDB7DEB70B
:1018D0008A839B836C834D835E8319821EC08C81B7
:1018E000882F90E02981222F30E0022E02C09595AA
:1018F00087950A94E2F781709070882359F02A81C5
:101900003B818981882F90E04096820F931F2D8123
:10191000FC01208389818F5F898389818830F8F277
:101920008D819E81807091700097D1F08D819E8114
:1019300080709270009739F08A819B8105962C8186
:10194000FC01208306C08A819B8106962C81FC01C4
:1019500020838A819B8101962C81FC01208306C013
:101960008A819B8102962C81FC0120832696CDBF23
:10197000DEBFCF91DF9108951F920F920FB60F92A5
:10198000009038000F921124109238008F939F938B
:10199000DF93CF93CDB7DEB78091172590911825AF
:1019A00001968093172590931825CF91DF919F91F1
:1019B0008F910F90009238000F900FBE0F901F90E4
:1019C00018951F920F920FB60F92009038000F9249
:1019D000009039000F9200903B000F92112410925A
:1019E00038001092390010923B002F933F934F9391
:1019F0005F936F937F938F939F93AF93BF93EF9377
:101A0000FF93DF93CF93CDB7DEB72897CDBFDEBF6F
:101A100020911725309118258091192590911A252C
:101A20002817390708F463C080E094E021E0FC0146
:101A3000228380911D2590911E25009709F457C09F
:101A40008091172590911825CC01A0E0B0E0AC0161
:101A50003327222780E094E0FC0180859185CC012A
:101A6000A0E0B0E0822B932BA42BB52B89839A8323
:101A7000AB83BC838091192590911A25CC01A0E0FD
:101A8000B0E0AC013327222780911B2590911C25C3
:101A9000CC01A0E0B0E0822B932BA42BB52B8D833F
:101AA0009E83AF83B8872D813E814F815885898180
:101AB0009A81AB81BC81281739074A075B0758F028
:101AC0008D819E81AF81B8850196A11DB11D89834D
:101AD0009A83AB83BC8320911D2530911E2589817B
:101AE0009A81AB81BC81BC01CD01F9011995289681
:101AF000CDBFDEBFCF91DF91FF91EF91BF91AF914D
:101B00009F918F917F916F915F914F913F912F9115
:101B10000F9000923B000F90009239000F900092BE
:101B200038000F900FBE0F901F9018950F931F93C2
:101B3000DF93CF93CDB7DEB76297CDBFDEBF898786
:101B40009A874B875C876D877E870F87188B298BD9
:101B50003A8B8F859889A989BA8928EE33E040E0CD
:101B600050E0BC01CD010E94D74829833A834B83C2
:101B70005C838B859C85AD85BE8528EE33E040E097
:101B800050E0BC01CD010E94D7482D833E834F8396
:101B9000588789819A81AB81BC812D813E814F819B
:101BA0005885BC01CD010E94D748DA01C9018031B6
:101BB0009105A105B10509F449C081319105A1053F
:101BC000B10580F484309105A105B10549F1883053
:101BD0009105A105B10571F182309105A105B1050D
:101BE00099F064C080349105A105B10509F446C09F
:101BF00080389105A105B10509F44CC080329105EA
:101C0000A105B10579F152C089859A85FC018081D1
:101C1000282F206889859A85FC01208381E047C0B0
:101C200089859A85FC01208189859A85FC0120831C
:101C300081E03DC089859A85FC018081282F21683B
:101C400089859A85FC01208381E031C089859A8548
:101C5000FC018081282F216089859A85FC012083E1
:101C600081E025C089859A85FC018081282F226822
:101C700089859A85FC01208381E019C089859A8530
:101C8000FC018081282F226089859A85FC012083B0
:101C900081E00DC089859A85FC018081282F236011
:101CA00089859A85FC01208381E001C08FEF6296CF
:101CB000CDBFDEBFCF91DF911F910F910895DF93CC
:101CC000CF930F92CDB7DEB78FE390E0FC01808118
:101CD0008983F89489810F90CF91DF910895DF93E4
:101CE000CF930F92CDB7DEB789838FE390E0298140
:101CF000FC0120830F90CF91DF910895DF93CF9364
:101D000000D0CDB7DEB78A839B838A819B818F5EAB
:101D10009A4DFC0180818F3F09F4FFCFD0DF89838A
:101D20008A819B818F5E9A4DFC018081282F2F5FD5
:101D30008A819B818F5E9A4DFC0120838981CFDF50
:101D40002396CDBFDEBFCF91DF9108951F920F92F2
:101D50000FB60F92009038000F92009039000F924A
:101D600000903B000F92112410923800109239001D
:101D700010923B002F933F934F935F936F937F930A
:101D80008F939F93AF93BF93EF93FF93DF93CF9383
:101D9000CDB7DEB78091502490915124009731F057
:101DA0008091502490915124FC011995CF91DF919D
:101DB000FF91EF91BF91AF919F918F917F916F9123
:101DC0005F914F913F912F910F9000923B000F90A8
:101DD000009239000F90009238000F900FBE0F90C4
:101DE0001F9018951F920F920FB60F920090380017
:101DF0000F92009039000F9200903B000F92112437
:101E0000109238001092390010923B002F933F93AC
:101E10004F935F936F937F938F939F93AF93BF93F2
:101E2000EF93FF93DF93CF93CDB7DEB7809152242A
:101E300090915324009731F0809152249091532433
:101E4000FC011995CF91DF91FF91EF91BF91AF9177
:101E50009F918F917F916F915F914F913F912F91C2
:101E60000F9000923B000F90009239000F9000926B
:101E700038000F900FBE0F901F9018951F920F9271
:101E80000FB60F92009038000F92009039000F9219
:101E900000903B000F9211241092380010923900EC
:101EA00010923B002F933F934F935F936F937F93D9
:101EB0008F939F93AF93BF93EF93FF93DF93CF9352
:101EC000CDB7DEB78091542490915524009731F01E
:101ED0008091542490915524FC011995CF91DF9164
:101EE000FF91EF91BF91AF919F918F917F916F91F2
:101EF0005F914F913F912F910F9000923B000F9077
:101F0000009239000F90009238000F900FBE0F9092
:101F10001F9018951F920F920FB60F9200903800E5
:101F20000F92009039000F9200903B000F92112405
:101F3000109238001092390010923B002F933F937B
:101F40004F935F936F937F938F939F93AF93BF93C1
:101F5000EF93FF93DF93CF93CDB7DEB780915624F5
:101F600090915724009731F08091562490915724F6
:101F7000FC011995CF91DF91FF91EF91BF91AF9146
:101F80009F918F917F916F915F914F913F912F9191
:101F90000F9000923B000F90009239000F9000923A
:101FA00038000F900FBE0F901F9018951F920F9240
:101FB0000FB60F92009038000F92009039000F92E8
:101FC00000903B000F9211241092380010923900BB
:101FD00010923B002F933F934F935F936F937F93A8
:101FE0008F939F93AF93BF93EF93FF93DF93CF9321
:101FF000CDB7DEB78091582490915924009731F0E5
:102000008091582490915924FC011995CF91DF912A
:10201000FF91EF91BF91AF919F918F917F916F91C0
:102020005F914F913F912F910F9000923B000F9045
:10203000009239000F90009238000F900FBE0F9061
:102040001F9018951F920F920FB60F9200903800B4
:102050000F92009039000F9200903B000F921124D4
:10206000109238001092390010923B002F933F934A
:102070004F935F936F937F938F939F93AF93BF9390
:10208000EF93FF93DF93CF93CDB7DEB780915A24C0
:1020900090915B24009731F080915A2490915B24B9
:1020A000FC011995CF91DF91FF91EF91BF91AF9115
:1020B0009F918F917F916F915F914F913F912F9160
:1020C0000F9000923B000F90009239000F90009209
:1020D00038000F900FBE0F901F9018951F920F920F
:1020E0000FB60F92009038000F92009039000F92B7
:1020F00000903B000F92112410923800109239008A
:1021000010923B002F933F934F935F936F937F9376
:102110008F939F93AF93BF93EF93FF93DF93CF93EF
:10212000CDB7DEB780915C2490915D24009731F0AB
:1021300080915C2490915D24FC011995CF91DF91F1
:10214000FF91EF91BF91AF919F918F917F916F918F
:102150005F914F913F912F910F9000923B000F9014
:10216000009239000F90009238000F900FBE0F9030
:102170001F9018951F920F920FB60F920090380083
:102180000F92009039000F9200903B000F921124A3
:10219000109238001092390010923B002F933F9319
:1021A0004F935F936F937F938F939F93AF93BF935F
:1021B000EF93FF93DF93CF93CDB7DEB780915E248B
:1021C00090915F24009731F080915E2490915F247C
:1021D000FC011995CF91DF91FF91EF91BF91AF91E4
:1021E0009F918F917F916F915F914F913F912F912F
:1021F0000F9000923B000F90009239000F900092D8
:1022000038000F900FBE0F901F9018951F920F92DD
:102210000FB60F92009038000F92009039000F9285
:1022200000903B000F921124109238001092390058
:1022300010923B002F933F934F935F936F937F9345
:102240008F939F93AF93BF93EF93FF93DF93CF93BE
:10225000CDB7DEB78091602490916124009731F072
:102260008091602490916124FC011995CF91DF91B8
:10227000FF91EF91BF91AF919F918F917F916F915E
:102280005F914F913F912F910F9000923B000F90E3
:10229000009239000F90009238000F900FBE0F90FF
:1022A0001F9018951F920F920FB60F920090380052
:1022B0000F92009039000F9200903B000F92112472
:1022C000109238001092390010923B002F933F93E8
:1022D0004F935F936F937F938F939F93AF93BF932E
:1022E000EF93FF93DF93CF93CDB7DEB78091622456
:1022F00090916324009731F080916224909163243F
:10230000FC011995CF91DF91FF91EF91BF91AF91B2
:102310009F918F917F916F915F914F913F912F91FD
:102320000F9000923B000F90009239000F900092A6
:1023300038000F900FBE0F901F9018951F920F92AC
:102340000FB60F92009038000F92009039000F9254
:1023500000903B000F921124109238001092390027
:1023600010923B002F933F934F935F936F937F9314
:102370008F939F93AF93BF93EF93FF93DF93CF938D
:10238000CDB7DEB78091642490916524009731F039
:102390008091642490916524FC011995CF91DF917F
:1023A000FF91EF91BF91AF919F918F917F916F912D
:1023B0005F914F913F912F910F9000923B000F90B2
:1023C000009239000F90009238000F900FBE0F90CE
:1023D0001F9018951F920F920FB60F920090380021
:1023E0000F92009039000F9200903B000F92112441
:1023F000109238001092390010923B002F933F93B7
:102400004F935F936F937F938F939F93AF93BF93FC
:10241000EF93FF93DF93CF93CDB7DEB78091662420
:1024200090916724009731F0809166249091672401
:10243000FC011995CF91DF91FF91EF91BF91AF9181
:102440009F918F917F916F915F914F913F912F91CC
:102450000F9000923B000F90009239000F90009275
:1024600038000F900FBE0F901F9018951F920F927B
:102470000FB60F92009038000F92009039000F9223
:1024800000903B000F9211241092380010923900F6
:1024900010923B002F933F934F935F936F937F93E3
:1024A0008F939F93AF93BF93EF93FF93DF93CF935C
:1024B000CDB7DEB78091682490916924009731F000
:1024C0008091682490916924FC011995CF91DF9146
:1024D000FF91EF91BF91AF919F918F917F916F91FC
:1024E0005F914F913F912F910F9000923B000F9081
:1024F000009239000F90009238000F900FBE0F909D
:102500001F9018951F920F920FB60F9200903800EF
:102510000F92009039000F9200903B000F9211240F
:10252000109238001092390010923B002F933F9385
:102530004F935F936F937F938F939F93AF93BF93CB
:10254000EF93FF93DF93CF93CDB7DEB780916A24EB
:1025500090916B24009731F080916A2490916B24C4
:10256000FC011995CF91DF91FF91EF91BF91AF9150
:102570009F918F917F916F915F914F913F912F919B
:102580000F9000923B000F90009239000F90009244
:1025900038000F900FBE0F901F9018951F920F924A
:1025A0000FB60F92009038000F92009039000F92F2
:1025B00000903B000F9211241092380010923900C5
:1025C00010923B002F933F934F935F936F937F93B2
:1025D0008F939F93AF93BF93EF93FF93DF93CF932B
:1025E000CDB7DEB780916C2490916D24009731F0C7
:1025F00080916C2490916D24FC011995CF91DF910D
:10260000FF91EF91BF91AF919F918F917F916F91CA
:102610005F914F913F912F910F9000923B000F904F
:10262000009239000F90009238000F900FBE0F906B
:102630001F9018951F920F920FB60F9200903800BE
:102640000F92009039000F9200903B000F921124DE
:10265000109238001092390010923B002F933F9354
:102660004F935F936F937F938F939F93AF93BF939A
:10267000EF93FF93DF93CF93CDB7DEB780916E24B6
:1026800090916F24009731F080916E2490916F2487
:10269000FC011995CF91DF91FF91EF91BF91AF911F
:1026A0009F918F917F916F915F914F913F912F916A
:1026B0000F9000923B000F90009239000F90009213
:1026C00038000F900FBE0F901F9018951F920F9219
:1026D0000FB60F92009038000F92009039000F92C1
:1026E00000903B000F921124109238001092390094
:1026F00010923B002F933F934F935F936F937F9381
:102700008F939F93AF93BF93EF93FF93DF93CF93F9
:10271000CDB7DEB78091702490917124009731F08D
:102720008091702490917124FC011995CF91DF91D3
:10273000FF91EF91BF91AF919F918F917F916F9199
:102740005F914F913F912F910F9000923B000F901E
:10275000009239000F90009238000F900FBE0F903A
:102760001F9018951F920F920FB60F92009038008D
:102770000F92009039000F9200903B000F921124AD
:10278000109238001092390010923B002F933F9323
:102790004F935F936F937F938F939F93AF93BF9369
:1027A000EF93FF93DF93CF93CDB7DEB78091722481
:1027B00090917324009731F080917224909173244A
:1027C000FC011995CF91DF91FF91EF91BF91AF91EE
:1027D0009F918F917F916F915F914F913F912F9139
:1027E0000F9000923B000F90009239000F900092E2
:1027F00038000F900FBE0F901F9018951F920F92E8
:102800000FB60F92009038000F92009039000F928F
:1028100000903B000F921124109238001092390062
:1028200010923B002F933F934F935F936F937F934F
:102830008F939F93AF93BF93EF93FF93DF93CF93C8
:10284000CDB7DEB78091742490917524009731F054
:102850008091742490917524FC011995CF91DF919A
:10286000FF91EF91BF91AF919F918F917F916F9168
:102870005F914F913F912F910F9000923B000F90ED
:10288000009239000F90009238000F900FBE0F9009
:102890001F9018951F920F920FB60F92009038005C
:1028A0000F92009039000F9200903B000F9211247C
:1028B000109238001092390010923B002F933F93F2
:1028C0004F935F936F937F938F939F93AF93BF9338
:1028D000EF93FF93DF93CF93CDB7DEB7809176244C
:1028E00090917724009731F080917624909177240D
:1028F000FC011995CF91DF91FF91EF91BF91AF91BD
:102900009F918F917F916F915F914F913F912F9107
:102910000F9000923B000F90009239000F900092B0
:1029200038000F900FBE0F901F9018951F920F92B6
:102930000FB60F92009038000F92009039000F925E
:1029400000903B000F921124109238001092390031
:1029500010923B002F933F934F935F936F937F931E
:102960008F939F93AF93BF93EF93FF93DF93CF9397
:10297000CDB7DEB78091782490917924009731F01B
:102980008091782490917924FC011995CF91DF9161
:10299000FF91EF91BF91AF919F918F917F916F9137
:1029A0005F914F913F912F910F9000923B000F90BC
:1029B000009239000F90009238000F900FBE0F90D8
:1029C0001F9018951F920F920FB60F92009038002B
:1029D0000F92009039000F9200903B000F9211244B
:1029E000109238001092390010923B002F933F93C1
:1029F0004F935F936F937F938F939F93AF93BF9307
:102A0000EF93FF93DF93CF93CDB7DEB780917A2416
:102A100090917B24009731F080917A2490917B24CF
:102A2000FC011995CF91DF91FF91EF91BF91AF918B
:102A30009F918F917F916F915F914F913F912F91D6
:102A40000F9000923B000F90009239000F9000927F
:102A500038000F900FBE0F901F9018951F920F9285
:102A60000FB60F92009038000F92009039000F922D
:102A700000903B000F921124109238001092390000
:102A800010923B002F933F934F935F936F937F93ED
:102A90008F939F93AF93BF93EF93FF93DF93CF9366
:102AA000CDB7DEB780917C2490917D24009731F0E2
:102AB00080917C2490917D24FC011995CF91DF9128
:102AC000FF91EF91BF91AF919F918F917F916F9106
:102AD0005F914F913F912F910F9000923B000F908B
:102AE000009239000F90009238000F900FBE0F90A7
:102AF0001F9018951F920F920FB60F9200903800FA
:102B00000F92009039000F9200903B000F92112419
:102B1000109238001092390010923B002F933F938F
:102B20004F935F936F937F938F939F93AF93BF93D5
:102B3000EF93FF93DF93CF93CDB7DEB780917E24E1
:102B400090917F24009731F080917E2490917F2492
:102B5000FC011995CF91DF91FF91EF91BF91AF915A
:102B60009F918F917F916F915F914F913F912F91A5
:102B70000F9000923B000F90009239000F9000924E
:102B800038000F900FBE0F901F9018951F920F9254
:102B90000FB60F92009038000F92009039000F92FC
:102BA00000903B000F9211241092380010923900CF
:102BB00010923B002F933F934F935F936F937F93BC
:102BC0008F939F93AF93BF93EF93FF93DF93CF9335
:102BD000CDB7DEB78091802490918124009731F0A9
:102BE0008091802490918124FC011995CF91DF91EF
:102BF000FF91EF91BF91AF919F918F917F916F91D5
:102C00005F914F913F912F910F9000923B000F9059
:102C1000009239000F90009238000F900FBE0F9075
:102C20001F9018951F920F920FB60F9200903800C8
:102C30000F92009039000F9200903B000F921124E8
:102C4000109238001092390010923B002F933F935E
:102C50004F935F936F937F938F939F93AF93BF93A4
:102C6000EF93FF93DF93CF93CDB7DEB780918224AC
:102C700090918324009731F0809182249091832455
:102C8000FC011995CF91DF91FF91EF91BF91AF9129
:102C90009F918F917F916F915F914F913F912F9174
:102CA0000F9000923B000F90009239000F9000921D
:102CB00038000F900FBE0F901F9018951F920F9223
:102CC0000FB60F92009038000F92009039000F92CB
:102CD00000903B000F92112410923800109239009E
:102CE00010923B002F933F934F935F936F937F938B
:102CF0008F939F93AF93BF93EF93FF93DF93CF9304
:102D0000CDB7DEB78091842490918524009731F06F
:102D10008091842490918524FC011995CF91DF91B5
:102D2000FF91EF91BF91AF919F918F917F916F91A3
:102D30005F914F913F912F910F9000923B000F9028
:102D4000009239000F90009238000F900FBE0F9044
:102D50001F9018951F920F920FB60F920090380097
:102D60000F92009039000F9200903B000F921124B7
:102D7000109238001092390010923B002F933F932D
:102D80004F935F936F937F938F939F93AF93BF9373
:102D9000EF93FF93DF93CF93CDB7DEB78091862477
:102DA00090918724009731F0809186249091872418
:102DB000FC011995CF91DF91FF91EF91BF91AF91F8
:102DC0009F918F917F916F915F914F913F912F9143
:102DD0000F9000923B000F90009239000F900092EC
:102DE00038000F900FBE0F901F9018951F920F92F2
:102DF0000FB60F92009038000F92009039000F929A
:102E000000903B000F92112410923800109239006C
:102E100010923B002F933F934F935F936F937F9359
:102E20008F939F93AF93BF93EF93FF93DF93CF93D2
:102E3000CDB7DEB78091882490918924009731F036
:102E40008091882490918924FC011995CF91DF917C
:102E5000FF91EF91BF91AF919F918F917F916F9172
:102E60005F914F913F912F910F9000923B000F90F7
:102E7000009239000F90009238000F900FBE0F9013
:102E80001F9018951F920F920FB60F920090380066
:102E90000F92009039000F9200903B000F92112486
:102EA000109238001092390010923B002F933F93FC
:102EB0004F935F936F937F938F939F93AF93BF9342
:102EC000EF93FF93DF93CF93CDB7DEB780918A2442
:102ED00090918B24009731F080918A2490918B24DB
:102EE000FC011995CF91DF91FF91EF91BF91AF91C7
:102EF0009F918F917F916F915F914F913F912F9112
:102F00000F9000923B000F90009239000F900092BA
:102F100038000F900FBE0F901F9018951F920F92C0
:102F20000FB60F92009038000F92009039000F9268
:102F300000903B000F92112410923800109239003B
:102F400010923B002F933F934F935F936F937F9328
:102F50008F939F93AF93BF93EF93FF93DF93CF93A1
:102F6000CDB7DEB780918C2490918D24009731F0FD
:102F700080918C2490918D24FC011995CF91DF9143
:102F8000FF91EF91BF91AF919F918F917F916F9141
:102F90005F914F913F912F910F9000923B000F90C6
:102FA000009239000F90009238000F900FBE0F90E2
:102FB0001F9018951F920F920FB60F920090380035
:102FC0000F92009039000F9200903B000F92112455
:102FD000109238001092390010923B002F933F93CB
:102FE0004F935F936F937F938F939F93AF93BF9311
:102FF000EF93FF93DF93CF93CDB7DEB780918E240D
:1030000090918F24009731F080918E2490918F249D
:10301000FC011995CF91DF91FF91EF91BF91AF9195
:103020009F918F917F916F915F914F913F912F91E0
:103030000F9000923B000F90009239000F90009289
:1030400038000F900FBE0F901F9018951F920F928F
:103050000FB60F92009038000F92009039000F9237
:1030600000903B000F92112410923800109239000A
:1030700010923B002F933F934F935F936F937F93F7
:103080008F939F93AF93BF93EF93FF93DF93CF9370
:10309000CDB7DEB78091902490919124009731F0C4
:1030A0008091902490919124FC011995CF91DF910A
:1030B000FF91EF91BF91AF919F918F917F916F9110
:1030C0005F914F913F912F910F9000923B000F9095
:1030D000009239000F90009238000F900FBE0F90B1
:1030E0001F9018951F920F920FB60F920090380004
:1030F0000F92009039000F9200903B000F92112424
:10310000109238001092390010923B002F933F9399
:103110004F935F936F937F938F939F93AF93BF93DF
:10312000EF93FF93DF93CF93CDB7DEB780919224D7
:1031300090919324009731F0809192249091932460
:10314000FC011995CF91DF91FF91EF91BF91AF9164
:103150009F918F917F916F915F914F913F912F91AF
:103160000F9000923B000F90009239000F90009258
:1031700038000F900FBE0F901F9018951F920F925E
:103180000FB60F92009038000F92009039000F9206
:1031900000903B000F9211241092380010923900D9
:1031A00010923B002F933F934F935F936F937F93C6
:1031B0008F939F93AF93BF93EF93FF93DF93CF933F
:1031C000CDB7DEB78091942490919524009731F08B
:1031D0008091942490919524FC011995CF91DF91D1
:1031E000FF91EF91BF91AF919F918F917F916F91DF
:1031F0005F914F913F912F910F9000923B000F9064
:10320000009239000F90009238000F900FBE0F907F
:103210001F9018951F920F920FB60F9200903800D2
:103220000F92009039000F9200903B000F921124F2
:10323000109238001092390010923B002F933F9368
:103240004F935F936F937F938F939F93AF93BF93AE
:10325000EF93FF93DF93CF93CDB7DEB780919624A2
:1032600090919724009731F0809196249091972423
:10327000FC011995CF91DF91FF91EF91BF91AF9133
:103280009F918F917F916F915F914F913F912F917E
:103290000F9000923B000F90009239000F90009227
:1032A00038000F900FBE0F901F9018951F920F922D
:1032B0000FB60F92009038000F92009039000F92D5
:1032C00000903B000F9211241092380010923900A8
:1032D00010923B002F933F934F935F936F937F9395
:1032E0008F939F93AF93BF93EF93FF93DF93CF930E
:1032F000CDB7DEB78091982490919924009731F052
:103300008091982490919924FC011995CF91DF9197
:10331000FF91EF91BF91AF919F918F917F916F91AD
:103320005F914F913F912F910F9000923B000F9032
:10333000009239000F90009238000F900FBE0F904E
:103340001F9018951F920F920FB60F9200903800A1
:103350000F92009039000F9200903B000F921124C1
:10336000109238001092390010923B002F933F9337
:103370004F935F936F937F938F939F93AF93BF937D
:10338000EF93FF93DF93CF93CDB7DEB780919A246D
:1033900090919B24009731F080919A2490919B24E6
:1033A000FC011995CF91DF91FF91EF91BF91AF9102
:1033B0009F918F917F916F915F914F913F912F914D
:1033C0000F9000923B000F90009239000F900092F6
:1033D00038000F900FBE0F901F9018951F920F92FC
:1033E0000FB60F92009038000F92009039000F92A4
:1033F00000903B000F921124109238001092390077
:1034000010923B002F933F934F935F936F937F9363
:103410008F939F93AF93BF93EF93FF93DF93CF93DC
:10342000CDB7DEB780919C2490919D24009731F018
:1034300080919C2490919D24FC011995CF91DF915E
:10344000FF91EF91BF91AF919F918F917F916F917C
:103450005F914F913F912F910F9000923B000F9001
:10346000009239000F90009238000F900FBE0F901D
:103470001F9018951F920F920FB60F920090380070
:103480000F92009039000F9200903B000F92112490
:10349000109238001092390010923B002F933F9306
:1034A0004F935F936F937F938F939F93AF93BF934C
:1034B000EF93FF93DF93CF93CDB7DEB780919E2438
:1034C00090919F24009731F080919E2490919F24A9
:1034D000FC011995CF91DF91FF91EF91BF91AF91D1
:1034E0009F918F917F916F915F914F913F912F911C
:1034F0000F9000923B000F90009239000F900092C5
:1035000038000F900FBE0F901F901895DF93CF9348
:1035100000D0CDB7DEB78A839B830E945F0E89837C
:103520008A819B8128E08030920759F483E090E003
:1035300061E00E94CB0883E090E064E00E94CB0849
:103540007BC08A819B8128E08034920759F483E014
:1035500090E062E00E94CB0883E090E064E00E948B
:10356000CB086AC08A819B8129E08030920759F498
:1035700084E090E061E00E94CB0884E090E064E0A9
:103580000E94CB0859C08A819B8129E08034920730
:1035900059F484E090E062E00E94CB0884E090E07F
:1035A00064E00E94CB0848C08A819B812AE0803079
:1035B000920759F485E090E061E00E94CB0885E035
:1035C00090E064E00E94CB0837C08A819B812AE0AA
:1035D0008034920759F485E090E062E00E94CB08C5
:1035E00085E090E064E00E94CB0826C08A819B8140
:1035F0002BE08030920759F486E090E061E00E9471
:10360000CB0886E090E064E00E94CB0815C08A8178
:103610009B812BE08034920759F486E090E062E0D1
:103620000E94CB0886E090E064E00E94CB0804C0D2
:1036300089810E946F0E07C081E090E00E947E0E9B
:1036400089810E946F0E2396CDBFDEBFCF91DF919F
:103650000895DF93CF9300D00F92CDB7DEB7898363
:103660009A836B837C8389819A8128E080309207DA
:1036700039F48B819C8180935424909355245AC0B3
:1036800089819A8128E08034920739F48B819C816A
:1036900080936024909361244DC089819A8129E0B0
:1036A0008030920739F48B819C81809368249093B9
:1036B000692440C089819A8129E08034920739F4D5
:1036C0008B819C81809374249093752433C089816D
:1036D0009A812AE08030920739F48B819C81809313
:1036E0007C2490937D2426C089819A812AE08034AD
:1036F000920739F48B819C8180938824909389244C
:1037000019C089819A812BE08030920739F48B812E
:103710009C8180939024909391240CC089819A81FC
:103720002BE08034920731F48B819C8180939C2420
:1037300090939D242496CDBFDEBFCF91DF91089555
:10374000DF93CF930F920F92CDB7DEB789839A8321
:1037500089819A81FC01108211820F900F90CF9184
:10376000DF910895DF93CF9300D00F92CDB7DEB7EE
:103770008B839C838B819C81FC018081918100974C
:1037800019F480E090E018C08B819C81FC0180815D
:10379000918189839A8307C089819A81FC01808104
:1037A000918189839A8389819A81FC0180819181A9
:1037B000009791F789819A812496CDBFDEBFCF9182
:1037C000DF910895DF93CF9300D000D0CDB7DEB75F
:1037D0008B839C836D837E838D819E81FC0110820F
:1037E00011828B819C81BEDF89839A8389819A8132
:1037F000009741F48B819C812D813E81FC012083C7
:10380000318307C02D813E8189819A81FC0120830B
:1038100031832696CDBFDEBFCF91DF910895DF9330
:10382000CF9300D00F92CDB7DEB78B839C838B8173
:103830009C81FC018081918189839A838B819C8109
:10384000FC0180819181009769F08B819C81FC0152
:1038500080819181FC01208131818B819C81FC01DF
:103860002083318389819A812496CDBFDEBFCF9199
:10387000DF910895DF93CF93CDB7DEB72897CDBF03
:10388000DEBF8D839E836F8378878D819E81FC014F
:1038900080819181009709F440C01B821C828D8138
:1038A0009E81FC018081918189839A8331C0298125
:1038B0003A818F81988528173907F9F48B819C818B
:1038C000009759F489819A81FC01208131818D8191
:1038D0009E81FC01208331830AC089819A81FC0189
:1038E000208131818B819C81FC01208331838981FE
:1038F0009A81FC011082118211C089819A818B8387
:103900009C8389819A81FC018081918189839A833A
:1039100089819A81009759F601C000002896CDBF91
:10392000DEBFCF91DF910895DF93CF9300D000D019
:10393000CDB7DEB78D839E831B821C828D819E81D5
:10394000FC018081918189839A8314C08B819C8141
:10395000853191051CF08B819C8112C08B819C81EB
:1039600001968B839C8389819A81FC01808191815E
:1039700089839A8389819A81009741F78B819C8101
:103980002696CDBFDEBFCF91DF910895DF93CF9311
:10399000CDB7DEB780EA90E027E0FC012283CF912B
:1039A000DF9108950F931F93DF93CF93CDB7DEB7C9
:1039B000AF97CDBFDEBF80E090E0AAE7B4E4898393
:1039C0009A83AB83BC8369817A818B819C8120E05F
:1039D00030E04AE755E40E945303DC01CB018D83BC
:1039E0009E83AF83B88711E06D817E818F8198853A
:1039F00020E030E040E85FE30E944F0588230CF0B0
:103A000010E0112329F081E090E089879A8746C071
:103A100011E06D817E818F81988520E03FEF4FE737
:103A200057E40E94F50418160CF010E0112361F120
:103A300069817A818B819C8120E030E040E251E411
:103A40000E945303DC01CB01BC01CD010E948B011C
:103A5000DC01CB0189879A8712C080E991E08B87CE
:103A60009C878B859C858C01C8010197F1F78C019F
:103A70000B871C8789859A85019789879A8789850D
:103A80009A85009751F717C06D817E818F81988547
:103A90000E948B01DC01CB0189879A8789859A85F1
:103AA0008D879E878D859E858C01F8013197F1F772
:103AB0008F010D871E870E94D10B0E948C087FD337
:103AC00065DF7ED059D000D08DB79EB7019625E036
:103AD000FC01208320E030E2FC012183328387D087
:103AE0000F900F900F900E94C14880E496E020E470
:103AF00036E0F90122852860FC01228780E496E007
:103B000020E436E0F90121852160FC01218780E471
:103B100096E020E436E0F90123892260FC01238B42
:103B200078948EEB9AEB888F998F188A198A82E0A5
:103B30008F8782E291E18BA39CA389E98B8F89E92E
:103B40008C8F89E98D8F89E98E8F89E98F8F89E93B
:103B500088A389E989A389E98AA383E08A8F0E94DF
:103B6000E52C1FD080E090E0AF96CDBFDEBFCF91B7
:103B7000DF911F910F910895DF93CF93CDB7DEB7FB
:103B80000E94E6260E948030CF91DF910895DF9356
:103B9000CF93CDB7DEB70DD00E94F3260E949330AD
:103BA000FBCFDF93CF93CDB7DEB7F1DFCF91DF91BE
:103BB0000895DF93CF93CDB7DEB7CF91DF9108950E
:103BC000DF93CF93CDB7DEB700D08DB79EB7019608
:103BD00025E0FC01208321E130E2FC0121833283D6
:103BE00006D00F900F900F90CF91DF910895DF9343
:103BF000CF9300D000D0CDB7DEB7CE010F968D8326
:103C00009E830E942B278B839C838B819C818C5B62
:103C10009F4F24E0FC0120838B819C818A5B9F4F16
:103C200022E0FC0120838B819C81895B9F4F22E0F5
:103C3000FC0120838C858B3008F059C08D859E85D2
:103C4000FC018081882309F452C08B819C810097FC
:103C500009F44DC08B819C818B5B9F4FFC011082CE
:103C60008B819C81029689839A838B819C810296A9
:103C70002D813E814D855E85BA01A9010E94B44A1D
:103C800013C08B819C818B5B9F4FFC018081282F0F
:103C90002F5F8B819C818B5B9F4FFC0120838981EF
:103CA0009A81019689839A8389819A81FC01808116
:103CB000882339F78B819C818B5B9F4FFC0180812E
:103CC000882F90E02B813C81820F931F0296FC018C
:103CD00010828B819C818B5B9F4FFC018081282F00
:103CE0002F5F8B819C818B5B9F4FFC0120832696ED
:103CF000CDBFDEBFCF91DF910895DF93CF930F92B9
:103D00000F92CDB7DEB789839A8389819A81895BC7
:103D10009F4FFC018081882F90E08230910531F126
:103D20008330910509F443C08130910509F050C0FA
:103D300089819A818C5B9F4FFC018081882F90E064
:103D40008230910579F08330910524F4813091051A
:103D500041F04FC08330910531F08430910521F05E
:103D600048C003C002C001C0000043C089819A81DD
:103D70008C5B9F4FFC018081882F90E08230910501
:103D800079F08330910524F48130910541F031C000
:103D90008330910531F08430910521F02AC006C0AE
:103DA00005C004C089819A8133D2000022C000D0AE
:103DB0008DB79EB7019625E0FC01208322E330E217
:103DC000FC012183328313DF0F900F900F9011C0FD
:103DD00000D08DB79EB7019625E0FC01208329E530
:103DE00030E2FC012183328302DF0F900F900F90AD
:103DF00000000F900F90CF91DF910895DF93CF9344
:103E00000F92CDB7DEB78983898186958695869591
:103E1000882F90E0C096880F991F82959295907F89
:103E20009827807F98270F90CF91DF910895DF9397
:103E3000CF930F92CDB7DEB789838981882F90E029
:103E40009C012770307081E090E0022E02C0880F44
:103E5000991F0A94E2F70F90CF91DF910895DF93B5
:103E6000CF9300D00F92CDB7DEB78B836C838B815D
:103E7000C5DF89839A838C81882341F08B81D7DFCA
:103E8000282F89819A81FC01258307C08B81CFDF90
:103E9000282F89819A81FC0126832496CDBFDEBF1D
:103EA000CF91DF910895DF93CF9300D00F92CDB7DC
:103EB000DEB78C838C81BBDF89838C819FDF8A8313
:103EC0009B838A819B812981FC0127832496CDBF16
:103ED000DEBFCF91DF910895DF93CF930F920F92C2
:103EE000CDB7DEB789839A8389819A81895B9F4F99
:103EF000FC018081882F90E08230910509F454C044
:103F0000833091050CF074C0009721F08130910549
:103F100031F16FC089819A81FC0182816FD061E0AB
:103F20009EDF89819A81FC018281282F30E000D0B8
:103F30000F920F928DB79EB7019644E1FC0140832A
:103F400040E750E2FC0141835283FC012383348328
:103F50004EDE0F900F900F900F900F904AC0898106
:103F60009A81FC0182814AD060E079DF89819A815F
:103F7000FC018281282F30E000D00F920F928DB784
:103F80009EB7019644E1FC01408349E850E2FC0100
:103F900041835283FC012383348329DE0F900F90E9
:103FA0000F900F900F9025C089819A81FC0182812A
:103FB00025D079DF89819A81FC018281282F30E028
:103FC00000D00F920F928DB79EB7019644E1FC018D
:103FD000408341EA50E2FC0141835283FC01238388
:103FE000348305DE0F900F900F900F900F9001C05B
:103FF00000000F900F90CF91DF910895DF93CF9342
:104000000F920F92CDB7DEB78A838A81805E898353
:1040100089810F900F90CF91DF910895DF93CF9317
:104020000F92CDB7DEB7898389818695869586956F
:10403000882F90E0C096880F991F82959295907F67
:104040009827807F98270F90CF91DF910895DF9375
:10405000CF930F92CDB7DEB789838981882F90E007
:104060009C012770307081E090E0022E02C0880F22
:10407000991F0A94E2F70F90CF91DF910895DF9393
:10408000CF9300D00F92CDB7DEB78B836C838B813B
:10409000C5DF89839A838C81882341F08B81D7DFA8
:1040A000282F89819A81FC01258307C08B81CFDF6E
:1040B000282F89819A81FC0126832496CDBFDEBFFB
:1040C000CF91DF9108950F931F93DF93CF9300D08B
:1040D000CDB7DEB78B838B81A1DF89839A838981FA
:1040E0009A81FC018085882F90E08C0100951095C5
:1040F0008B81ADDF882F90E08023912321E0009712
:1041000009F420E0822F2396CDBFDEBFCF91DF914F
:104110001F910F910895DF93CF9300D00F92CDB7E9
:10412000DEB78C838C8193DF89838C8177DF8A83F0
:104130009B838A819B812981FC0127832496CDBFA3
:10414000DEBFCF91DF910895DF93CF930F920F924F
:10415000CDB7DEB789839A8389819A81FC018081FA
:10416000282F206489819A81FC0120830F900F9071
:10417000CF91DF910895DF93CF930F920F92CDB738
:10418000DEB789839A8389819A81FC018281881FA5
:104190008827881F0F900F90CF91DF910895DF93AC
:1041A000CF930F920F92CDB7DEB789839A8389811F
:1041B0009A81E1DF0F900F90CF91DF910895CF9218
:1041C000DF92EF92FF920F931F93DF93CF93CDB7C0
:1041D000DEB780EC98E00E94110A24E434E280EC1F
:1041E00098E0B90140E008E418EE21E030E0CC248A
:1041F000DD2476010E94490A80EC98E0A5DFCF918A
:10420000DF911F910F91FF90EF90DF90CF90089575
:10421000DF93CF9300D0CDB7DEB78A839B838AEA42
:1042200089838A819B81009709F44EC024E434E29B
:1042300080EC98E0B9010E94580B80EC98E029814D
:10424000FC012383000080EC98E0A9DF982F81E037
:1042500089278823C1F78A819B819C012B5B3F4F73
:1042600080EC98E0B90141E00E94920A8A819B812A
:104270009C012A5B3F4F80EC98E0B90141E00E942D
:10428000920A8A819B819C01295B3F4F80EC98E0D8
:10429000B90141E00E94920A8A819B819C012E5FB4
:1042A0003F4F8A819B818B5B9F4FFC01408180EC5B
:1042B00098E0B9010E94920A24E434E280EC98E08C
:1042C000B9010E946D0B03C086E260E0D8DE7894ED
:1042D0002396CDBFDEBFCF91DF9108950F931F933B
:1042E000DF93CF93CDB7DEB7C456D040CDBFDEBF8E
:1042F000F894CE018C599F4F28E8FC012083ABD560
:1043000089839A8389819A81009721F485E203DF6A
:104310007894B1C424E434E280EC98E0B9010E94BE
:10432000580B1B829E012C593F4F80EC98E0B9013D
:1043300041E00E94920A80E090E0A0E2B1E48C8328
:104340009D83AE83BF836C817D818E819F812BEAAB
:104350003AEA4AEA5EE30E945303DC01CB01888714
:104360009987AA87BB8711E0688579858A859B85AF
:1043700020E030E040E85FE30E944F0588230CF026
:1043800010E0112319F081E08C87A3C011E068854B
:1043900079858A859B8520E030E04FE753E40E94D1
:1043A000F50418160CF010E0112309F489C06C8193
:1043B0007D818E819F8120E030E04AE754E40E94B5
:1043C0004A04DC01CB018D879E87AF87B88B6D8552
:1043D0007E858F85988920E030E04AE753E40E948B
:1043E0005303DC01CB01898B9A8BAB8BBC8B11E027
:1043F00069897A898B899C8920E030E040E85FE315
:104400000E944F0588230CF010E0112329F081E071
:1044100090E08D8B9E8B46C011E069897A898B89EB
:104420009C8920E03FEF4FE757E40E94F5041816FF
:104430000CF010E0112361F16D857E858F859889E0
:1044400020E030E040E251E40E945303DC01CB0164
:10445000BC01CD010E948B01DC01CB018D8B9E8BB9
:1044600012C089E190E08F8B988F8F89988D8C0195
:10447000C8010197F1F78C010F8B188F8D899E89E8
:1044800001978D8B9E8B8D899E89009751F728C04F
:1044900069897A898B899C890E948B01DC01CB0117
:1044A0008D8B9E8B8D899E89898F9A8F898D9A8D10
:1044B0008C01F8013197F1F78F01098F1A8F10C025
:1044C000688579858A859B850E948B01DC01CB01FB
:1044D0008C878C858B8F8B8D182F1A95F1F71B8FFE
:1044E00089819A819C012B5B3F4F80EC98E0B90158
:1044F00041E050E00E941B0B80E090E0A0E2B1E4BC
:104500008C8F9D8FAE8FBF8F6C8D7D8D8E8D9F8D8F
:104510002BEA3AEA4AEA5EE30E945303DC01CB014C
:1045200088A399A3AAA3BBA311E068A179A18AA13A
:104530009BA120E030E040E85FE30E944F05882324
:104540000CF010E0112319F081E08CA3A3C011E05E
:1045500068A179A18AA19BA120E030E04FE753E454
:104560000E94F50418160CF010E0112309F489C01C
:104570006C8D7D8D8E8D9F8D20E030E04AE754E478
:104580000E944A04DC01CB018DA39EA3AFA3B8A770
:104590006DA17EA18FA198A520E030E04AE753E409
:1045A0000E945303DC01CB0189A79AA7ABA7BCA744
:1045B00011E069A57AA58BA59CA520E030E040E834
:1045C0005FE30E944F0588230CF010E0112329F0CF
:1045D00081E090E08DA79EA746C011E069A57AA56D
:1045E0008BA59CA520E03FEF4FE757E40E94F50420
:1045F00018160CF010E0112361F16DA17EA18FA1BE
:1046000098A520E030E040E251E40E945303DC0131
:10461000CB01BC01CD010E948B01DC01CB018DA738
:104620009EA712C089E190E08FA798AB8FA598A9AB
:104630008C01C8010197F1F78C010FA718AB8DA56C
:104640009EA501978DA79EA78DA59EA5009751F7C2
:1046500028C069A57AA58BA59CA50E948B01DC01C9
:10466000CB018DA79EA78DA59EA589AB9AAB89A9E5
:104670009AA98C01F8013197F1F78F0109AB1AABB8
:1046800010C068A179A18AA19BA10E948B01DC01C5
:10469000CB018CA38CA18BAB8BA9182F1A95F1F7AA
:1046A0001BAB89819A818B5B9F4FFC0180818B833F
:1046B0008B81882319F08B81883870F024E434E2F0
:1046C00080EC98E0B9010E946D0B789484E223DDC0
:1046D00089819A81F4D3CFC289819A819C012A5B16
:1046E0003F4F80EC98E0B90141E050E00E941B0B85
:1046F00080E090E0A0E2B1E48CAB9DABAEABBFAB91
:104700006CA97DA98EA99FA92BEA3AEA4AEA5EE341
:104710000E945303DC01CB0188AF99AFAAAFBBAFB6
:1047200011E068AD79AD8AAD9BAD20E030E040E8A6
:104730005FE30E944F0588230CF010E0112319F06D
:1047400081E08CAFF3C011E068AD79AD8AAD9BAD6F
:1047500020E030E04FE753E40E94F50418160CF017
:1047600010E0112309F4D9C06CA97DA98EA99FA9D5
:1047700020E030E04AE754E40E944A04DC01CB0127
:104780009E01235C3F4FF90180839183A283B38311
:104790008E010F5B1F4FCE01CD96FC0160817181B0
:1047A0008281938120E030E04AE753E40E94530382
:1047B000DC01CB01F80180839183A283B383CE0116
:1047C0008F5B9F4F11E0FC01608171818281938139
:1047D00020E030E040E85FE30E944F0588230CF0C2
:1047E00010E0112349F0CE018B5B9F4F21E030E0B8
:1047F000FC012083318373C0CE018F5B9F4F11E09A
:10480000FC01608171818281938120E03FEF4FE75D
:1048100057E40E94F50418160CF010E0112309F477
:104820004CC0CE01CD96FC01608171818281938163
:1048300020E030E040E251E40E945303DC01CB0170
:104840008E010B5B1F4FBC01CD010E948B01DC016F
:10485000CB01F8018083918327C0CE01895B9F4FF4
:1048600029E130E0FC0120833183CE01895B9F4F39
:10487000FC01808191818C01C8010197F1F78C01C5
:10488000CE01895B9F4FFC0100831183CE018B5BBE
:104890009F4F9E012B5B3F4FF901208131812150B9
:1048A0003040FC0120833183CE018B5B9F4FFC01A4
:1048B00080819181009789F64CC08E010B5B1F4F60
:1048C000CE018F5B9F4FFC0160817181828193815A
:1048D0000E948B01DC01CB01F80180839183CE0122
:1048E000875B9F4F9E012B5B3F4FF90120813181F8
:1048F000FC0120833183CE01875B9F4FFC018081C7
:1049000091818C01C8010197F1F78C01CE01875B81
:104910009F4FFC01008311831CC068AD79AD8AAD47
:104920009BAD0E948B01DC01CB018CAFCE01855B7E
:104930009F4F2CADFC012083CE01855B9F4FFC0176
:104940008081182F1A95F1F7CE01855B9F4FFC01EE
:10495000108389819A819C01295B3F4F80EC98E00C
:10496000B90141E050E00E941B0B89819A819C01B2
:104970002E5F3F4F89819A818E5B9F4FFC01208380
:1049800031839E01245B3F4F80E090E0A0E2B1E4E0
:10499000F90180839183A283B3838E01005B1F4F53
:1049A000CE01845B9F4FFC01608171818281938184
:1049B0002BEA3AEA4AEA5EE30E945303DC01CB01A8
:1049C000F80180839183A283B383CE01805B9F4FE4
:1049D00011E0FC01608171818281938120E030E0EF
:1049E00040E85FE30E944F0588230CF010E011239C
:1049F00039F0CE018C5A9F4F21E0FC01208305C184
:104A0000CE01805B9F4F11E0FC016081718182814A
:104A1000938120E030E04FE753E40E94F50418163C
:104A20000CF010E0112309F4DFC0CE01845B9F4F2E
:104A3000FC01608171818281938120E030E04AE74E
:104A400054E40E944A04DC01CB019E012B5A3F4FE3
:104A5000F90180839183A283B3838E01075A1F4F8C
:104A6000CE018B5A9F4FFC016081718182819381BD
:104A700020E030E04AE753E40E945303DC01CB011D
:104A8000F80180839183A283B383CE01875A9F4F1D
:104A900011E0FC01608171818281938120E030E02E
:104AA00040E85FE30E944F0588230CF010E01123DB
:104AB00049F0CE01835A9F4F21E030E0FC01208372
:104AC000318374C0CE01875A9F4F11E0FC01608191
:104AD00071818281938120E03FEF4FE757E40E948C
:104AE000F50418160CF010E0112309F44DC0CE01A6
:104AF0008B5A9F4FFC01608171818281938120E0FC
:104B000030E040E251E40E945303DC01CB018E010E
:104B1000035A1F4FBC01CD010E948B01DC01CB0168
:104B2000F8018083918327C0CE01815A9F4F29E1EC
:104B300030E0FC0120833183CE01815A9F4FFC017C
:104B4000808191818C01C8010197F1F78C01CE0120
:104B5000815A9F4FFC0100831183CE01835A9F4FDE
:104B60009E01235A3F4FF90120813181215030406D
:104B7000FC0120833183CE01835A9F4FFC01808149
:104B80009181009789F658C08E01035A1F4FCE01BC
:104B9000875A9F4FFC0160817181828193810E94BD
:104BA0008B01DC01CB01F80180839183CE018F5909
:104BB0009F4F9E01235A3F4FF90120813181FC0113
:104BC00020833183CE018F599F4FFC0180819181D9
:104BD0008C01C8010197F1F78C01CE018F599F4FCD
:104BE000FC010083118328C08E010C5A1F4FCE0197
:104BF000805B9F4FFC0160817181828193810E9463
:104C00008B01DC01CB01F8018083CE018D599F4FD0
:104C10009E012C5A3F4FF9012081FC012083CE01D7
:104C20008D599F4FFC018081182F1A95F1F7CE0105
:104C30008D599F4FFC01108389819A818E5B9F4F14
:104C4000FC01408151818B81282F30E080EC98E07D
:104C5000BA01A9010E941B0B789489819A818C5B0F
:104C60009F4F22E0FC01208324E434E280EC98E0B2
:104C7000B9010E946D0BCC59DF4FCDBFDEBFCF9184
:104C8000DF911F910F910895DF93CF93CDB7DEB7DA
:104C900083E119DA882309F021DBCF91DF910895B0
:104CA0001F920F920FB60F92009038000F92009053
:104CB00039000F9200903B000F921124109238009F
:104CC0001092390010923B002F933F934F935F93C4
:104CD0006F937F938F939F93AF93BF93EF93FF93C4
:104CE000DF93CF93CDB7DEB7CFDFCF91DF91FF91C9
:104CF000EF91BF91AF919F918F917F916F915F9154
:104D00004F913F912F910F9000923B000F90009296
:104D100039000F90009238000F900FBE0F901F9037
:104D20001895DF93CF930F92CDB7DEB78983898132
:104D3000869586958695882F90E0C096880F991F56
:104D400082959295907F9827807F98270F90CF919A
:104D5000DF910895DF93CF930F92CDB7DEB78983AC
:104D60008981882F90E09C012770307081E090E06D
:104D7000022E02C0880F991F0A94E2F70F90CF917C
:104D8000DF910895DF93CF9300D00F92CDB7DEB7B8
:104D90008B836C838B81C5DF89839A838C81882385
:104DA00041F08B81D7DF282F89819A81FC012583EF
:104DB00007C08B81CFDF282F89819A81FC01268350
:104DC0002496CDBFDEBFCF91DF910895DF93CF93BF
:104DD000CDB7DEB780914524909146240E94A01B58
:104DE000CF91DF910895DF93CF9300D0CDB7DEB799
:104DF00080914524909146240E94941C8983898146
:104E0000882359F080914524909146240E940F1CDC
:104E10008A839B838A819B816CD08091A22490910C
:104E2000A32401968093A2249093A3248091A2248A
:104E30009091A32480709074009721F087E260E045
:104E4000A1DF03C087E261E09DDF2396CDBFDEBF17
:104E5000CF91DF910895DF93CF930F920F92CDB74B
:104E6000DEB780914524909146240E94941C8E3197
:104E700091051CF080E090E01DC088E490E00E9465
:104E80002A4989839A8389819A819C012E5F3F4FA9
:104E900089819A818E5B9F4FFC01208331838091B1
:104EA00045249091462429813A81B9010E94E21B50
:104EB00089819A810F900F90CF91DF910895DF93B0
:104EC000CF930F920F92CDB7DEB789839A838091EB
:104ED00045249091462429813A81B9010E943A1CC7
:104EE00089819A810E94C4490F900F90CF91DF91E0
:104EF0000895DF93CF930F920F92CDB7DEB78983DA
:104F00009A8389819A818A5B9F4FFC018081882FD7
:104F100090E08130910569F0823091051CF4009792
:104F200041F115C08230910549F08330910559F067
:104F30000EC089819A810E946C1F1CC089819A8150
:104F40000E947D1E17C089819A811CD013C000D099
:104F50008DB79EB7019625E0FC01208327EB30E258
:104F6000FC01218332830E94F71D0F900F900F9058
:104F700001C0000089819A81A2DF0F900F90CF912C
:104F8000DF910895DF93CF930F920F92CDB7DEB7E5
:104F900089839A8389819A81895B9F4FFC018081F3
:104FA000882F90E08130910521F08230910591F0B9
:104FB0002DC089819A818C5B9F4FFC018081882F55
:104FC00090E08230910521F084309105F1F401C028
:104FD00000001CC089819A818C5B9F4FFC018081FD
:104FE000882F90E08330910559F08430910521F0AD
:104FF0008230910539F00AC089819A8109D903C0AC
:10500000000001C00000000001C000000F900F90E0
:10501000CF91DF910895DF93CF93CDB7DEB725977A
:10502000CDBFDEBF8B839C836D8315DF89839A831D
:1050300089819A818B5B9F4F2D81FC01208389811F
:105040009A819C012E5F3F4F89819A818E5B9F4F91
:10505000FC01208331831FC089819A818E5B9F4F21
:10506000FC01808191812B813C81F9012081FC012F
:1050700020839C012F5F3F4F89819A818E5B9F4FD8
:10508000FC01208331838B819C8101968B839C83DF
:105090008D8181508D838D818823F1F689819A815C
:1050A0008C5B9F4F24E0FC01208389819A818A5B7D
:1050B0009F4F23E0FC01208389819A81895B9F4F68
:1050C00022E0FC0120832596CDBFDEBFCF91DF918A
:1050D0000895DF93CF93CDB7DEB7809147249091A9
:1050E00048240E94A01BCF91DF910895DF93CF93B6
:1050F0000F920F92CDB7DEB780914724909148244C
:105100000E94941C8A3091053CF485E190E00E9455
:105110002A4989839A8311C000D08DB79EB7019622
:1051200025E0FC0120832BED30E2FC01218332835A
:105130000E94F71D0F900F900F9089819A810F9018
:105140000F90CF91DF910895DF93CF9300D00F920E
:10515000CDB7DEB78B839C838B819C818330910597
:10516000B1F18430910538F48130910561F08230DD
:105170009105D9F06AC084309105D9F18530910547
:1051800009F44DC062C087E190E00E942A498983FA
:105190009A8389819A8129813A81FC01248B358BFC
:1051A00089819A81FC01168A50C087E190E00E94B3
:1051B0002A4989839A8389819A8129813A81FC01CC
:1051C000248B358B89819A81FC01168A3EC087E148
:1051D00090E00E942A4989839A8389819A81298152
:1051E0003A81FC01248B358B89819A81FC01168AD6
:1051F0002CC087E690E00E942A4989839A8389819E
:105200009A8129813A818C599F4FFC0120833183F7
:1052100089819A818A599F4FFC01108216C083E8C8
:1052200090E00E942A4989839A8389819A81298101
:105230003A8180589F4FFC012083318389819A8174
:105240008E579F4FFC011082000089819A8124961D
:10525000CDBFDEBFCF91DF910895DF93CF930F9243
:105260000F92CDB7DEB789839A83809147249091BE
:10527000482429813A81B9010E943A1C89819A8186
:105280000E94C4490F900F90CF91DF910895DF9352
:10529000CF93CDB7DEB7C358D040CDBFDEBF9E01A0
:1052A0002E573F4FF90180839183CE018E579F4F38
:1052B000FC0180819181FC01818992899C012C599A
:1052C0003F4FF90120813181F90110822F5F3F4F5B
:1052D0008C599F4FFC0120833183CE018E579F4F05
:1052E000FC0180819181FC01818992899C012C596A
:1052F0003F4FF90120813181F90110822F5F3F4F2B
:105300008C599F4FFC0120833183CE018E579F4FD4
:10531000FC0180819181FC01818992899E012E5737
:105320003F4FF90120813181F901218932892A59C0
:105330003F4FF90120812E5F8A599F4FFC01208346
:105340009E012E5F3F4F8981B9010E941B45CE010E
:105350008E579F4FFC0180819181FC01838594854C
:10536000009759F0CE018E579F4FFC0180819181AB
:10537000FC01838594850E94C449CE018E579F4FBE
:10538000FC0180819181FC0185859685009759F00B
:10539000CE018E579F4FFC0180819181FC01858554
:1053A00096850E94C449CE018E579F4FFC01808193
:1053B0009181FC0187859089009759F0CE018E5725
:1053C0009F4FFC0180819181FC01878590890E941B
:1053D000C449CE018E579F4FFC0180819181FC0111
:1053E00081899289009759F0CE018E579F4FFC0119
:1053F00080819181FC01818992890E94C449CE01FA
:105400008E579F4FFC018081918127DFCD57DF4F61
:10541000CDBFDEBFCF91DF910895DF93CF930F9281
:10542000CDB7DEB789838981869586958695882F45
:1054300090E0C096880F991F82959295907F98274B
:10544000807F98270F90CF91DF910895DF93CF93BE
:105450000F92CDB7DEB789838981882F90E09C01B8
:105460002770307081E090E0022E02C0880F991FF3
:105470000A94E2F70F90CF91DF9108951F93DF9385
:10548000CF9300D0CDB7DEB78B838B81C6DF898306
:105490009A8389819A81FC0110858B81D7DF912FB6
:1054A000982381E0992309F480E02396CDBFDEBFE5
:1054B000CF91DF911F910895AF92BF92CF92DF926B
:1054C000EF92FF920F931F93DF93CF93CDB7DEB789
:1054D0006C97CDBFDEBF0E94A64A809361251982DA
:1054E0001A821092A6241B821C821D821E821F8299
:1054F000188619861A868FEF9FEF8B879C878FEF10
:105500009FEF8D879E878FEF9FEF8F87988B8EED14
:10551000898B8FEE8A8B87E18B8B8FEF8C8B1D8A2B
:105520001E8A1F8A188E8FEF9FEF898F9A8F8B8527
:105530009C85C6D1AB80BC80CD80DE80EF80F884B6
:1055400009851A852A2D3B2D4C2D5D2D6E2D7F2D25
:10555000802F912FC8D18D859E8599D1898D9A8D67
:1055600018D1A988BA88CB88DC88ED88FE880F8995
:10557000188D2A2D3B2D4C2D5D2D6E2D7F2D802FCE
:10558000912F36D18F859889E1D084E590E0A0E015
:10559000B0E08093A8249093A924A093AA24B09368
:1055A000AB241092AC2481E08093AE241092AF24FF
:1055B00084E18093B0241092B3248FE08093B424CC
:1055C0001092B5241092B6241092B7241092B824E9
:1055D0000E94A64A8093B9240E94A64A8093D024B0
:1055E00081E08093D12485E08093D22484E080936D
:1055F000D32488E28093D42483E08093D52410922E
:10560000D62484E18093D72484E18093D824109217
:10561000DB2480E290E0A0E0B0E08093DC24909373
:10562000DD24A093DE24B093DF241092E0241092B6
:10563000E12482E08093E22483E08093ED2482E001
:105640008093C52483E08093BA248FE08093F8246C
:1056500080E590E08093F9249093FA2481E0809390
:10566000FB2484EF91E08093FC249093FD248BE055
:10567000A7D00E94D64587E001DF882389F019D59D
:1056800023E433E449E858E863E272E280E090E022
:10569000AFD081E08093A72481E08093AC2403C045
:1056A00080E00E94E2458091D6240E94054686E172
:1056B00090E060E00E942D4381E06FE140E00E94B5
:1056C000C046882F90E08B8F9C8F00D00F920F9256
:1056D0008DB79EB7019629E0FC0120832CEF30E2C4
:1056E000FC01218332832B8D3C8DFC012383348389
:1056F0000E94F71D0F900F900F900F900F908981CF
:105700009A816C96CDBFDEBFCF91DF911F910F9133
:10571000FF90EF90DF90CF90BF90AF900895DF9310
:10572000CF93CDB7DEB780916125982F8F5F80939F
:105730006125892FCF91DF910895DF93CF93CDB766
:10574000DEB788EA94E2CF91DF910895DF93CF939B
:105750000F920F92CDB7DEB789839A8389819A81A0
:105760008093EB249093EC2489819A818093F62492
:105770009093F72489819A818093D9249093DA2495
:1057800089819A810E9462450F900F90CF91DF919D
:105790000895DF93CF930F920F92CDB7DEB7898331
:1057A0009A8389819A818093E3249093E424898168
:1057B0009A810E9449450F900F90CF91DF910895F3
:1057C000DF93CF9300D0CDB7DEB78B830E94244206
:1057D00089839A838B810E94F14289819A812B81EE
:1057E000FC0120832396CDBFDEBFCF91DF910895CA
:1057F000AF92BF92CF92DF92EF92FF920F931F93DF
:10580000DF93CF93CDB7DEB72897CDBFDEBF298317
:105810003A834B835C836D837E838F8398878981F2
:105820008093EE248A818093EF248B818093F024EF
:105830008C818093F1248D818093F2248E818093DA
:10584000F3248F818093F42488858093F524A980A4
:10585000BA80CB80DC80ED80FE800F8118852A2DF8
:105860003B2D4C2D5D2D6E2D7F2D802F912F0E9475
:105870007B452896CDBFDEBFCF91DF911F910F9161
:10588000FF90EF90DF90CF90BF90AF900895DF939F
:10589000CF930F920F92CDB7DEB789839A83898118
:1058A0009A818093CE249093CF2489819A8180938A
:1058B000C3249093C4240F900F90CF91DF9108954B
:1058C000DF93CF930F920F92CDB7DEB789839A8380
:1058D00089819A818093C6249093C7240F900F905A
:1058E000CF91DF910895DF93CF93CDB7DEB728979F
:1058F000CDBFDEBF29833A834B835C836D837E8378
:105900008F83988789818093BB248A818093BC246C
:105910008B818093BD248C818093BE248D81809364
:10592000BF248E818093C0248F818093C124888579
:105930008093C2242896CDBFDEBFCF91DF9108951A
:10594000DF93CF930F92CDB7DEB7898389818093A0
:10595000A62481E09981992309F480E08093AC2406
:105960000F90CF91DF910895DF93CF93CDB7DEB73E
:105970008091A724CF91DF910895DF93CF930F9269
:10598000CDB7DEB789838091FE24882F90E08A58B6
:105990009A4D2981FC0120838091FE248F5F8093A2
:1059A000FE240F90CF91DF910895DF93CF9300D025
:1059B0000F92CDB7DEB789839A836B837C8324965D
:1059C000CDBFDEBFCF91DF910895DF93CF9300D09D
:1059D0000F92CDB7DEB782E490E00E942A49898316
:1059E0009A8384DB8B839C8384E090E0ADDB9C0115
:1059F0008B819C81FC01218B328B89819A81FC01F6
:105A00002081287F2360FC01208389819A81FC0109
:105A10002181237F2860FC01218389819A81FC01F7
:105A200021812F73FC01218389819A81FC012081CE
:105A30002F7BFC01208389819A81FC0120812F7EAC
:105A4000FC01208389819A81FC0120812F7DFC014A
:105A5000208389819A81FC012081277FFC0120839A
:105A600089819A8122E0FC01238389819A812FEF29
:105A70003FEFFC012487358789819A812FEF3FEF23
:105A8000FC012483358389819A812B813C81B90172
:105A900093D38B819C81FC01818992899C012C5933
:105AA0003F4FF9012081318147E0F90140832F5FA9
:105AB0003F4F8C599F4FFC01208331838B819C8108
:105AC000FC01818992899C012A593F4FF90120816B
:105AD0002F5F8A599F4FFC0120838B819C81D7DBEC
