:10000000F9C000001CC100000C94202618C100009B
:1000100016C1000014C1000012C1000010C1000090
:100020000EC100000CC100000C94B80C0C94DD0C47
:1000300006C1000004C100000C94A20E0C94EE0E48
:100040000C943A0F0C94860F0C94D20F0C941E1043
:100050000C946A100C94B6100C9402110C944E116E
:10006000EEC00000ECC00000EAC00000E8C00000E4
:10007000E6C00000E4C00000E2C00000E0C00000F4
:10008000DEC00000DCC00000DAC00000D8C0000004
:10009000D6C00000D4C00000D2C00000D0C0000014
:1000A000CEC00000CCC00000CAC00000C8C0000024
:1000B000C6C00000C4C00000C2C000000C9492146E
:1000C0000C94DE140C942A150C9476150C94C2151D
:1000D0000C940E160C945A160C94A6160C94F21648
:1000E0000C943E17ACC00000AAC00000A8C00000DD
:1000F000A6C00000A4C00000A2C00000A0C0000074
:100100009EC000009CC000009AC0000098C0000083
:1001100096C0000094C0000092C0000090C0000093
:100120008EC000008CC000008AC0000088C00000A3
:1001300086C000000C949A110C94E6110C943212B3
:100140000C947E120C94CA120C9416130C94621325
:100150000C94AE130C94FA130C94461470C0000067
:100160006EC000006CC000006AC0000068C00000E3
:1001700066C0000064C0000062C0000060C00000F3
:100180005EC000005CC000005AC0000058C0000003
:1001900056C0000054C0000052C0000050C0000013
:1001A0004EC000004CC000004AC0000048C0000023
:1001B0000C948A170C94D6170C9422180C946E1871
:1001C0000C94BA180C9406190C9452190C949E199C
:1001D0000C94EA190C94361A32C0000030C00000AA
:1001E0002EC000002CC000002AC0000028C0000063
:1001F00026C0000011241FBECFEFDFE3DEBFCDBF5E
:1002000000E00CBF18BE19BE1ABE1BBE11E2A0E072
:10021000B0E2E0EBF0E800E00BBF02C007900D9207
:10022000A434B107D9F713E2A4E4B1E201C01D92EE
:10023000AA34B107E1F70E94691C0C945640E0CE45
:100240000F93DF93CF93CDB7DEB76097CDBFDEBFFF
:10025000002309F459C029833A834B835C836D835F
:100260007E838F839887E0E2E01B2D813E814F8162
:1002700058851E16BCF01D861E861F86188A8E2F76
:10028000992787FD9095909581959F4F04C056952D
:100290004795379527958A95D2F729873A874B87CF
:1002A0005C872AC0CA01B901002E04C096958795C3
:1002B000779567950A94D2F76D877E878F87988B9D
:1002C000DA01C90104C0880F991FAA1FBB1FEA9554
:1002D000D2F729813A814B815C8104C056954795BC
:1002E000379527950A95D2F7822B932BA42BB52B04
:1002F00089879A87AB87BC8729853A854B855C853A
:100300006D857E858F8598896096CDBFDEBFCF9144
:10031000DF910F910895EF92FF920F931F937B014E
:100320008C0120E030E040E05FE48CD387FD0FC01B
:10033000C801B70120E030E040E05FE487D1DCD3C2
:100340009B01AC01205030404040504805C0C801DE
:10035000B701D2D39B01AC01B901CA011F910F9122
:10036000FF90EF900895A0E0B0E0E9EBF1E00C948D
:10037000A63BFC01EA018081823008F438C1DB0130
:100380009C91923008F430C1843059F4943009F0D3
:100390002EC1918111968C911197981709F021C166
:1003A00026C1943009F420C19230B1F4823009F0B2
:1003B0001EC1CA01AF0128E0DA010D90AD01DC01D8
:1003C0000D92CD012150C1F7DB0111968C9111974F
:1003D0009181892389830AC1823009F405C1C280D1
:1003E000D380DB0112966D907C9013972481358128
:1003F000468157811496ED90FD900D911C911797B1
:10040000C601861997095C0197FF04C0AA24BB2482
:10041000A81AB90AB0E2AB16B1040CF061C0181604
:1004200019066CF5370148010A2C04C0969487948C
:10043000779467940A94D2F781E090E0A0E0B0E06E
:100440000A2C04C0880F991FAA1FBB1F0A94D2F759
:100450000197A109B1098E219F21A023B123EE2488
:10046000FF248701E3940097A105B10519F4EE2458
:10047000FF248701E628F728082919293CC000979E
:10048000D1F1CA0CDB1C39014A010A2C04C0969434
:100490008794779467940A94D2F781E090E0A0E083
:1004A000B0E00A2C04C0880F991FAA1FBB1F0A9432
:1004B000D2F70197A109B10982239323A423B5237D
:1004C00021E030E040E050E00097A105B10519F4CB
:1004D00020E030E0A90126293729482959290BC0F5
:1004E0006C147D0424F4EE24FF24870104C063010E
:1004F00020E030E0A9018181FB019181891709F495
:1005000045C0882349F0D801C701821B930BA40B77
:10051000B50B9C01AD0104C02E193F09400B510BD6
:1005200057FD04C01982CA82DB820BC081E0898337
:10053000CA82DB8250954095309521953F4F4F4FB1
:100540005F4F2C833D834E835F830DC0880F991FBF
:10055000AA1FBB1F8C839D83AE83BF838A819B812F
:1005600001978A839B838C819D81AE81BF819C0191
:10057000AD0121503040404050402F3FEFEF3E074B
:10058000EFEF4E07EFE35E0708F30BC08983CA82E3
:10059000DB822E0D3F1D401F511F2C833D834E8358
:1005A0005F8383E088832C813D814E815F8157FF8B
:1005B0001DC0DA01C90181709070A070B0705695AD
:1005C000479537952795822B932BA42BB52B8C839E
:1005D0009D83AE83BF838A819B8101968A839B839F
:1005E00005C0E6E2F1E203C0FB0101C0FE01CF015C
:1005F000CDB7DEB7EEE00C94BF3BA0E2B0E0E3E0A5
:10060000F3E00C94AE3B69837A838B839C832D83C8
:100610003E834F83588789E0E82EF12CEC0EFD1EB7
:10062000CE010196B70187D38E010F5E1F4FCE0119
:100630000596B80180D3C701B801AE01475E5F4F90
:1006400092DEABD2A096E6E00C94C73BA0E2B0E00D
:10065000ECE2F3E00C94AE3B69837A838B839C835A
:100660002D833E834F8358878E01075F1F4FCE0136
:100670000196B80160D391E1E92EF12CEC0EFD1E3C
:10068000CE010596B70157D38A8991E089278A8BD5
:10069000C801B701AE01475E5F4F65DE7ED2A0960E
:1006A000E6E00C94C73BA0E2B0E0E9E5F3E00C948F
:1006B000A23B69837A838B839C832D833E834F8304
:1006C0005887CE010196BE01675F7F4F34D3CE01BC
:1006D0000596BE016F5E7F4F2ED39985923078F0DC
:1006E00089898230C0F0943019F4823041F4CBC053
:1006F000843019F4923079F4C6C0923051F481E01C
:100700002A859A89291709F480E08A87CE010996FB
:10071000BCC0823051F481E02A859A89291709F4F6
:1007200080E08A8BCE014196B0C06D847E848F8438
:100730009888ED88FE880F89188DE0E2F0E080E06F
:1007400090E0DC01AA24BB24650120E030E0A9018F
:10075000B3016170707061157105D1F02E0D3F1DF0
:10076000401F511F15012601280E391E4A1E5B1E0F
:1007700081E090E0A0E0B0E02E153F054007510772
:1007800018F080E090E0DC01820D931DA41DB51DE2
:10079000AA0CBB1CCC1CDD1C17FF09C061E0262E77
:1007A000312C412C512CA228B328C428D5283197AC
:1007B00049F0EE0CFF1C001F111F9694879477944C
:1007C0006794C6CF6B897C89EB85FC856E0F7F1F94
:1007D0006E5F7F4F6B8F7C8F61E0EA857A89E717C8
:1007E00009F460E06A8F6B8D7C8D10C0FC01E170B4
:1007F000F070309729F056954795379527955068B2
:10080000B695A795979587956F5F7F4FB7FDEECF0C
:100810000CC0880F991FAA1FBB1F57FD8160220FB4
:10082000331F441F551F615070408030E0E09E0729
:10083000E0E0AE07E0E4BE0760F36B8F7C8F6FE70C
:10084000E62EF12C012D112DE822F9220A231B237B
:1008500060E4E616F1040105110561F487FD0AC0A4
:10086000211531054105510529F0805C9F4FAF4F9F
:10087000BF4F80788D8F9E8FAF8FB8A383E0898F15
:10088000CE01499602C086E291E287D1A096E2E1CC
:100890000C94BB3BA8E1B0E0E0E5F4E00C94AA3B8B
:1008A00069837A838B839C832D833E834F83588710
:1008B0008E01075F1F4FCE010196B8013CD281E146
:1008C000E82EF12CEC0EFD1ECE010596B70133D2B9
:1008D0009985923008F483C08989823008F47BC0FE
:1008E0002A853A8923272A87943011F0923021F4FF
:1008F000981709F06CC071C0843039F41D861E86CB
:100900001F86188A1B861C866AC0823019F484E010
:10091000898765C08B859C852B893C89821B930BBD
:100920008B879C872D853E854F855889ED88FE886D
:100930000F89188D2E153F054007510738F4220FF7
:10094000331F441F551F01978B879C876FE170E011
:10095000A12CB12CC12CA0E4DA2E80E090E0DC01C7
:100960002E153F054007510740F08A299B29AC29E5
:10097000BD292E193F09400B510BD694C794B7944B
:10098000A794220F331F441F551F6150704041F739
:100990006FE7E62EF12C012D112DE822F9220A2312
:1009A0001B2360E4E616F1040105110561F487FDDF
:1009B0000AC0211531054105510529F0805C9F4F82
:1009C000AF4FBF4F80788D879E87AF87B88B8E01E2
:1009D000075F1F4F04C0870102C006E211E2C80191
:1009E000DCD06896EAE00C94C33BA8E1B0E0EBEF02
:1009F000F4E00C94AE3B69837A838B839C832D83D4
:100A00003E834F8358878E01075F1F4FCE010196AB
:100A1000B80191D181E1E82EF12CEC0EFD1ECE0142
:100A20000596B70188D18985823038F0898982306E
:100A300020F0C801B701E8D101C08FEF6896E6E069
:100A40000C94C73BA8E1B0E0E8E2F5E00C94AE3BC3
:100A500069837A838B839C832D833E834F8358875E
:100A60008E01075F1F4FCE010196B80164D181E16D
:100A7000E82EF12CEC0EFD1ECE010596B7015BD1E0
:100A80008985823038F08989823020F0C801B70129
:100A9000BBD101C08FEF6896E6E00C94C73BA8E19C
:100AA000B0E0E5E5F5E00C94AE3B69837A838B8397
:100AB0009C832D833E834F8358878E01075F1F4F92
:100AC000CE010196B80137D181E1E82EF12CEC0E70
:100AD000FD1ECE010596B7012ED18985823038F0F2
:100AE0008989823020F0C801B7018ED101C081E030
:100AF0006896E6E00C94C73BACE0B0E0E2E8F5E0D5
:100B00000C94B23B69837A838B839C83CE010196DC
:100B1000BE016B5F7F4F0FD18D81823081F18230BA
:100B200070F1843021F48E81882369F10AC02F810D
:100B3000388537FD24C06E812F3131053CF06623A6
:100B400011F120E030E040E050E821C08EE190E07B
:100B5000821B930B29853A854B855C8504C056958D
:100B60004795379527958A95D2F7662381F050955A
:100B70004095309521953F4F4F4F5F4F08C020E083
:100B800030E0A90104C02FEF3FEF4FEF5FE7B9015D
:100B9000CA012C96E2E00C94CB3BEF92FF920F93AC
:100BA0001F93CF93DF93FC012481358146815781C8
:100BB00061818081823020F44061EFEFF0E0A3C0DA
:100BC000843009F49BC0823009F492C021153105AC
:100BD0004105510509F48FC00280F381E02D8FEFAC
:100BE000E238F8070CF05AC0C2E8DFEFCE1BDF0B8B
:100BF000CA31D1056CF579018A010C2E04C0169515
:100C00000795F794E7940A94D2F781E090E0A0E08A
:100C1000B0E00C2E04C0880F991FAA1FBB1F0A94B6
:100C2000D2F70197A109B10982239323A423B52305
:100C300021E030E040E050E00097A105B10519F453
:100C400020E030E0A9012E293F29402B512B03C081
:100C500020E030E0A901DA01C9018F779070A0701F
:100C6000B07080349105A105B10539F427FF09C0A2
:100C7000205C3F4F4F4F5F4F04C0215C3F4F4F4FB1
:100C80005F4FE1E0F0E0203080E0380780E0480787
:100C900080E4580728F5E0E0F0E022C0E038F105F4
:100CA0006CF5E158FF4FDA01C9018F779070A070A1
:100CB000B07080349105A105B10539F427FF09C052
:100CC000205C3F4F4F4F5F4F04C0215C3F4F4F4F61
:100CD0005F4F57FF05C05695479537952795319635
:100CE00087E056954795379527958A95D1F70BC09C
:100CF000E0E0F0E005C0E0E0F0E005C0EFEFF0E09C
:100D000020E030E0A9018E2F879588278795942FC2
:100D10009F77679566276795E695E22EA92FA82B02
:100D2000FE2FF62B622F732F8A2F9F2FCDB7DEB7A2
:100D3000E6E00C94C73BDC01FB012C9111963C9141
:100D4000119712968C911297482F4F7750E0982F59
:100D5000991F9927991F13966C911397862F880FC7
:100D6000892B90E0661F6627661F6183009739F51F
:100D7000211531054105510511F482E029C082E8B1
:100D80009FEF8283938367E0220F331F441F551F19
:100D90006A95D1F783E0808309C0220F331F441F77
:100DA000551F82819381019782839383203080E055
:100DB000380780E0480780E4580778F320C08F3F69
:100DC000910579F4211531054105510519F484E0A7
:100DD0008083089544FF03C081E0808310C01082A7
:100DE0000EC08F5790408283938383E0808387E097
:100DF000220F331F441F551F8A95D1F75064248357
:100E00003583468357830895FC01DB01908192303E
:100E100008F449C08C91823008F445C0943051F4F4
:100E200061818430B1F511962C91119730E0261B29
:100E3000310941C0843021F0923041F48230B1F167
:100E400011968C9111978823A1F12DC06181823078
:100E500001F111968C9111976817D9F42281338191
:100E600012968D919C9113978217930794F02817EF
:100E70003907BCF0248135814681578114968D91C4
:100E80009D910D90BC91A02D82179307A407B507E3
:100E900018F4662341F00DC0281739074A075B078D
:100EA00028F4662331F021E030E005C020E030E096
:100EB00002C02FEF3FEFC9010895DF93CF930F9248
:100EC000CDB7DEB78FE390E0FC0180818983F89491
:100ED00089810F90CF91DF910895DF93CF930F9287
:100EE000CDB7DEB789838FE390E02981FC012083B1
:100EF0000F90CF91DF910895DF93CF930F920F92D0
:100F0000CDB7DEB78A83D9DF898380E590E020E51D
:100F100030E0F90130812A81232BFC012083898173
:100F2000DCDF0F900F90CF91DF910895DF93CF9387
:100F30000F920F92CDB7DEB78A838A81883009F08D
:100F4000FFCF80E590E022E0FC012283B6DF8983B9
:100F500080E590E020E530E0F90130812A81232B03
:100F6000FC0120838981B9DF0F900F90CF91DF9131
:100F70000895DF93CF930F920F92CDB7DEB78A8398
:100F80009CDF898380E590E020E530E0F901208155
:100F9000322F2A8120952323FC01208389819DDF24
:100FA0000F900F90CF91DF910895DF93CF930F9221
:100FB000CDB7DEB789838981883019F089819CDFBC
:100FC00002C08981B3DF0F90CF91DF910895DF9345
:100FD000CF930F92CDB7DEB7898380E590E0FC0117
:100FE00091818981982381E0992309F480E00F9011
:100FF000CF91DF910895DF93CF9300D0CDB7DEB7C7
:101000008A836B835ADF89838A81882F90E08130BD
:10101000910521F08230910541F14EC08B818430E1
:1010200021F08B81883009F0FFCF8B81883051F41B
:1010300080E590E020E530E0F90126812160FC01A7
:10104000268309C080E590E020E530E0F9012681A3
:101050002E7FFC01268388E690E028E630E0F90147
:1010600020812160FC01208328C08B81843021F005
:101070008B81883009F0FFCF8B81883051F480E577
:1010800090E020E530E0F90126812260FC01268312
:1010900009C080E590E020E530E0F90126812D7F50
:1010A000FC01268380E690E020E630E0F901208113
:1010B0002160FC01208301C0FFCF89810EDF2396D0
:1010C000CDBFDEBFCF91DF910895DF93CF930F9215
:1010D000CDB7DEB789830000898179DF982F81E061
:1010E00089278823C9F70F90CF91DF910895DF9367
:1010F000CF930F920F92CDB7DEB789836A83998120
:101100008A81292F282B81E490E0622FD1D30F9080
:101110000F90CF91DF910895DF93CF9300D00F927E
:10112000CDB7DEB780E790E089839A831B820DC03C
:1011300089819A812FEFFC01208389819A81019610
:1011400089839A838B818F5F8B838B81873080F338
:1011500084E060E0CCDF1C8282E027DF82E0B5DF44
:1011600080E490E061E0A4D380E490E0FC01808121
:10117000813009F0FFCF82E068E03DDF9C8181E0B3
:101180008927882311F081E0F4DE2496CDBFDEBFED
:10119000CF91DF910895DF93CF9300D00F92CDB719
:1011A000DEB78A839B836C8388DE89838A819B81F7
:1011B00080599F4F2A813B8120593F4FF90120815F
:1011C000322F2C8120952323FC012083898185DE09
:1011D0002496CDBFDEBFCF91DF910895DF93CF93EB
:1011E0000F92CDB7DEB789838981869586958695DE
:1011F000882F90E0C096880F991F82959295907FD6
:101200009827807F98270F90CF91DF910895DF93E3
:10121000CF930F92CDB7DEB789838981882F90E075
:101220009C012770307081E090E0022E02C0880F90
:10123000991F0A94E2F70F90CF91DF910895DF9301
:10124000CF9300D0CDB7DEB78B838B81C7DF898387
:101250009A838B81DCDF282F89819A81FC01268388
:101260002396CDBFDEBFCF91DF910895DF93CF935B
:1012700000D0CDB7DEB78B838B81B0DF89839A83B3
:101280008B81C5DF282F89819A81FC0125832396D4
:10129000CDBFDEBFCF91DF910895DF93CF9300D014
:1012A000CDB7DEB789839A836B8389819A812B813D
:1012B000FC0123832396CDBFDEBFCF91DF9108953C
:1012C000DF93CF930F920F92CDB7DEB789839A83C6
:1012D00089819A81FC0183810F900F90CF91DF91DA
:1012E0000895DF93CF930F920F92CDB7DEB7898326
:1012F0009A8389819A81FC018281881F8827881FAF
:101300000F900F90CF91DF910895DF93CF930F92BD
:101310000F92CDB7DEB789839A8389819A81FC01C8
:101320008081282F206189819A81FC0120830F9080
:101330000F90CF91DF910895DF93CF9300D00F925C
:10134000CDB7DEB789839A836B837C8389819A8149
:10135000B7DF282F8B819C81FC0120832496CDBF91
:10136000DEBFCF91DF910895DF93CF930F920F925D
:10137000CDB7DEB789839A8389819A81B2DF0F90D6
:101380000F90CF91DF910895DF93CF93CDB7DEB764
:1013900080E098E4A8EEB1E0BC01CD01CF91DF91EF
:1013A0000895DF93CF930F92CDB7DEB7198281E016
:1013B0008983EADFDC01CB012981222F30E0022E74
:1013C00004C0B695A795979587950A94D2F7BC0166
:1013D000CD010F90CF91DF910895DF93CF93CDB7DB
:1013E000DEB7DFDFDC01CB01BC01CD01CF91DF91A6
:1013F0000895DF93CF93CDB7DEB7EFDFDC01CB01EC
:10140000BC01CD01CF91DF910895DF93CF93CDB78C
:10141000DEB7EFDFDC01CB01BC01CD01CF91DF9165
:101420000895DF93CF930F920F92CDB7DEB78983E4
:101430009A8389819A8128E0803C920721F483E095
:1014400090E068E0A8DE89819A8129E0803C9207DB
:1014500021F484E090E068E09EDE89819A812AE0B0
:10146000803C920721F485E090E068E094DE898179
:101470009A812BE0803C920721F486E090E068E0BE
:101480008ADE89819A8141DF0F900F90CF91DF91A1
:101490000895CF92DF92EF92FF920F931F93DF9305
:1014A000CF93CDB7DEB72D97CDBFDEBF89839A83AB
:1014B0006B837C834D830E831F8328873987CA867D
:1014C000DB86EC86FD8689819A812B813C81B9017E
:1014D00004D19BDF8B019C0189819A814E815F81C0
:1014E000688579851FD389819A81FC018081282FA5
:1014F0008D81882F90E0880F991F880F991F8C701D
:10150000822B282F89819A81FC0120832D96CDBFC3
:10151000DEBFCF91DF911F910F91FF90EF90DF9091
:10152000CF900895DF93CF93CDB7DEB72A97CDBF85
:10153000DEBF8E839F83688779874A8719821A82E4
:1015400022C02885398589819A81820F931FFC01E9
:1015500020818E819F818B839C832D838B819C81B5
:101560006D819BDE00008E819F81FEDE982F81E0E1
:1015700089278823C1F78A8581508A8789819A8142
:10158000019689839A838A858823D9F680E090E042
:101590002A96CDBFDEBFCF91DF910895DF93CF9321
:1015A00000D000D0CDB7DEB78C839D836E838C8155
:1015B0009D8189839A838E818B8389819A816B81B6
:1015C0006CDE00008C819D81CFDE982F81E0892721
:1015D0008823C1F780E090E02696CDBFDEBFCF9193
:1015E000DF910895DF93CF9300D000D0CDB7DEB761
:1015F0008D839E838D819E8189839A838FEF8B83D8
:1016000089819A816B8149DE00008D819E81ACDEEB
:10161000982F81E089278823C1F78D819E819E01C3
:101620002C5F3F4FB90188DE8C812696CDBFDEBF8F
:10163000CF91DF910895DF93CF93CDB7DEB7299790
:10164000CDBFDEBF8C839D836E837F8348875987A0
:1016500023C08C819D8189839A838FEF8B838981BD
:101660009A816B811ADE00008C819D817DDE982F2E
:1016700081E089278823C1F78C819D812E813F815C
:10168000B9015ADE888599850197888799878E8167
:101690009F8101968E839F83888599850097C9F6DF
:1016A00080E090E02996CDBFDEBFCF91DF91089515
:1016B000DF93CF9300D00F92CDB7DEB789839A83A3
:1016C0006B837C838B819C81FC018081B8DD2496B7
:1016D000CDBFDEBFCF91DF910895DF93CF9300D0D0
:1016E0000F92CDB7DEB789839A836B837C838B811E
:1016F0009C81FC018081BADD2496CDBFDEBFCF91F5
:10170000DF910895DF93CF930F92CDB7DEB7898332
:101710008981869586958695882F90E0C096880F5A
:10172000991F82959295907F9827807F98270F9098
:10173000CF91DF910895DF93CF930F92CDB7DEB7AE
:1017400089838981882F90E09C012770307081E027
:1017500090E0022E02C0880F991F0A94E2F70F90C2
:10176000CF91DF9108950F931F93DF93CF9300D014
:10177000CDB7DEB789836A837B838981C3DF8C0120
:101780008981D9DF482F2A813B81C801642FA901B3
:1017900095D02396CDBFDEBFCF91DF911F910F91E2
:1017A0000895DF93CF93CDB7DEB780E260E073E0BA
:1017B000DADF81E260E073E0D6DF82E260E073E0CE
:1017C000D2DF83E260E073E0CEDF84E260E073E0CA
:1017D000CADF85E260E073E0C6DF86E260E073E0C6
:1017E000C2DF87E260E073E0BEDF88E268E170E0BC
:1017F000BADF89E268E170E0B6DF8AE268E170E0B2
:10180000B2DF8BE268E170E0AEDF8CE268E170E0AD
:10181000AADF8DE268E170E0A6DF8EE268E170E0A9
:10182000A2DF8FE268E170E09EDF83E160E070E0BC
:101830009ADF84E160E073E096DF87E160E073E0C7
:1018400092DF85E160E073E08EDF86E160E070E0CA
:101850008ADF83E160E070E086DF8CE160E073E0C6
:1018600082DF8FE160E073E07EDF8DE160E073E0B6
:101870007ADF88E160E071E076DF89E160E073E0C3
:1018800072DF8EE160E070E06EDF8BE160E070E0BF
:101890006ADF80E060E070E066DF82E060E070E0D8
:1018A00062DF89E060E070E05EDFCF91DF91089554
:1018B0001BBEFC0128ED24BF60830895DF93CF9306
:1018C00000D000D0CDB7DEB78A839B836C834D8375
:1018D0005E8319821EC08C81882F90E02981222F7F
:1018E00030E0022E02C0959587950A94E2F7817048
:1018F0009070882359F02A813B818981882F90E05C
:101900004096820F931F2D81FC01208389818F5F78
:10191000898389818830F8F28D819E8180709170F1
:101920000097D1F08D819E8180709270009739F080
:101930008A819B8105962C81FC01208306C08A81C7
:101940009B8106962C81FC0120838A819B810196D4
:101950002C81FC01208306C08A819B8102962C8108
:10196000FC0120832696CDBFDEBFCF91DF91089585
:101970001F920F920FB60F92009038000F92112411
:10198000109238008F939F93DF93CF93CDB7DEB73C
:1019900080910222909103220196809302229093DB
:1019A0000322CF91DF919F918F910F900092380089
:1019B0000F900FBE0F901F9018951F920F920FB6A9
:1019C0000F92009038000F92009039000F92009013
:1019D0003B000F921124109238001092390010929F
:1019E0003B002F933F934F935F936F937F938F931E
:1019F0009F93AF93BF93EF93FF93DF93CF93CDB7B5
:101A0000DEB72897CDBFDEBF20910222309103229E
:101A100080910422909105222817390708F463C0A9
:101A200080E094E021E0FC012283809108229091E3
:101A30000922009709F457C0809102229091032255
:101A4000CC01A0E0B0E0AC013327222780E094E095
:101A5000FC0180859185CC01A0E0B0E0822B932B26
:101A6000A42BB52B89839A83AB83BC8380910422FA
:101A700090910522CC01A0E0B0E0AC0133272227F1
:101A80008091062290910722CC01A0E0B0E0822B49
:101A9000932BA42BB52B8D839E83AF83B8872D8189
:101AA0003E814F81588589819A81AB81BC812817FD
:101AB00039074A075B0758F08D819E81AF81B88551
:101AC0000196A11DB11D89839A83AB83BC832091AC
:101AD00008223091092289819A81AB81BC81BC01A5
:101AE000CD01F90119952896CDBFDEBFCF91DF91C9
:101AF000FF91EF91BF91AF919F918F917F916F91E6
:101B00005F914F913F912F910F9000923B000F906A
:101B1000009239000F90009238000F900FBE0F9086
:101B20001F9018950F931F93DF93CF93CDB7DEB718
:101B30006297CDBFDEBF89879A874B875C876D87A9
:101B40007E870F87188B298B3A8B8F859889A98977
:101B5000BA8928EE33E040E050E0BC01CD010E949C
:101B6000803B29833A834B835C838B859C85AD8541
:101B7000BE8528EE33E040E050E0BC01CD010E947C
:101B8000803B2D833E834F83588789819A81AB8127
:101B9000BC812D813E814F815885BC01CD010E94C1
:101BA000803BDA01C90180319105A105B10509F435
:101BB00049C081319105A105B10580F484309105BA
:101BC000A105B10549F188309105A105B10571F173
:101BD00082309105A105B10599F064C0803491056A
:101BE000A105B10509F446C080389105A105B105EC
:101BF00009F44CC080329105A105B10579F152C0BC
:101C000089859A85FC018081282F206889859A859D
:101C1000FC01208381E047C089859A85FC012081F1
:101C200089859A85FC01208381E03DC089859A855C
:101C3000FC018081282F216889859A85FC012083F9
:101C400081E031C089859A85FC018081282F21603F
:101C500089859A85FC01208381E025C089859A8544
:101C6000FC018081282F226889859A85FC012083C8
:101C700081E019C089859A85FC018081282F226026
:101C800089859A85FC01208381E00DC089859A852C
:101C9000FC018081282F236089859A85FC0120839F
:101CA00081E001C08FEF6296CDBFDEBFCF91DF91A3
:101CB0001F910F910895DF93CF930F92CDB7DEB7A9
:101CC0008FE390E0FC0180818983F89489810F90F3
:101CD000CF91DF910895DF93CF930F92CDB7DEB709
:101CE00089838FE390E02981FC0120830F90CF91BD
:101CF000DF910895DF93CF9300D0CDB7DEB78A830D
:101D00009B838A819B8184509E4DFC0180818F3F03
:101D100009F4FFCFD0DF89838A819B8184509E4D57
:101D2000FC018081282F2F5F8A819B8184509E4DEA
:101D3000FC0120838981CFDF2396CDBFDEBFCF9109
:101D4000DF9108951F920F920FB60F920090380006
:101D50000F92009039000F9200903B000F921124D7
:101D6000109238001092390010923B002F933F934D
:101D70004F935F936F937F938F939F93AF93BF9393
:101D8000EF93FF93DF93CF93CDB7DEB780914421DC
:101D900090914521009731F0809144219091452107
:101DA000FC011995CF91DF91FF91EF91BF91AF9118
:101DB0009F918F917F916F915F914F913F912F9163
:101DC0000F9000923B000F90009239000F9000920C
:101DD00038000F900FBE0F901F9018951F920F9212
:101DE0000FB60F92009038000F92009039000F92BA
:101DF00000903B000F92112410923800109239008D
:101E000010923B002F933F934F935F936F937F9379
:101E10008F939F93AF93BF93EF93FF93DF93CF93F2
:101E2000CDB7DEB78091462190914721009731F0E0
:101E30008091462190914721FC011995CF91DF9126
:101E4000FF91EF91BF91AF919F918F917F916F9192
:101E50005F914F913F912F910F9000923B000F9017
:101E6000009239000F90009238000F900FBE0F9033
:101E70001F9018951F920F920FB60F920090380086
:101E80000F92009039000F9200903B000F921124A6
:101E9000109238001092390010923B002F933F931C
:101EA0004F935F936F937F938F939F93AF93BF9362
:101EB000EF93FF93DF93CF93CDB7DEB780914821A7
:101EC00090914921009731F08091482190914921CA
:101ED000FC011995CF91DF91FF91EF91BF91AF91E7
:101EE0009F918F917F916F915F914F913F912F9132
:101EF0000F9000923B000F90009239000F900092DB
:101F000038000F900FBE0F901F9018951F920F92E0
:101F10000FB60F92009038000F92009039000F9288
:101F200000903B000F92112410923800109239005B
:101F300010923B002F933F934F935F936F937F9348
:101F40008F939F93AF93BF93EF93FF93DF93CF93C1
:101F5000CDB7DEB780914A2190914B21009731F0A7
:101F600080914A2190914B21FC011995CF91DF91ED
:101F7000FF91EF91BF91AF919F918F917F916F9161
:101F80005F914F913F912F910F9000923B000F90E6
:101F9000009239000F90009238000F900FBE0F9002
:101FA0001F9018951F920F920FB60F920090380055
:101FB0000F92009039000F9200903B000F92112475
:101FC000109238001092390010923B002F933F93EB
:101FD0004F935F936F937F938F939F93AF93BF9331
:101FE000EF93FF93DF93CF93CDB7DEB780914C2172
:101FF00090914D21009731F080914C2190914D218D
:10200000FC011995CF91DF91FF91EF91BF91AF91B5
:102010009F918F917F916F915F914F913F912F9100
:102020000F9000923B000F90009239000F900092A9
:1020300038000F900FBE0F901F9018951F920F92AF
:102040000FB60F92009038000F92009039000F9257
:1020500000903B000F92112410923800109239002A
:1020600010923B002F933F934F935F936F937F9317
:102070008F939F93AF93BF93EF93FF93DF93CF9390
:10208000CDB7DEB780914E2190914F21009731F06E
:1020900080914E2190914F21FC011995CF91DF91B4
:1020A000FF91EF91BF91AF919F918F917F916F9130
:1020B0005F914F913F912F910F9000923B000F90B5
:1020C000009239000F90009238000F900FBE0F90D1
:1020D0001F9018951F920F920FB60F920090380024
:1020E0000F92009039000F9200903B000F92112444
:1020F000109238001092390010923B002F933F93BA
:102100004F935F936F937F938F939F93AF93BF93FF
:10211000EF93FF93DF93CF93CDB7DEB7809150213C
:1021200090915121009731F080915021909151214F
:10213000FC011995CF91DF91FF91EF91BF91AF9184
:102140009F918F917F916F915F914F913F912F91CF
:102150000F9000923B000F90009239000F90009278
:1021600038000F900FBE0F901F9018951F920F927E
:102170000FB60F92009038000F92009039000F9226
:1021800000903B000F9211241092380010923900F9
:1021900010923B002F933F934F935F936F937F93E6
:1021A0008F939F93AF93BF93EF93FF93DF93CF935F
:1021B000CDB7DEB78091522190915321009731F035
:1021C0008091522190915321FC011995CF91DF917B
:1021D000FF91EF91BF91AF919F918F917F916F91FF
:1021E0005F914F913F912F910F9000923B000F9084
:1021F000009239000F90009238000F900FBE0F90A0
:102200001F9018951F920F920FB60F9200903800F2
:102210000F92009039000F9200903B000F92112412
:10222000109238001092390010923B002F933F9388
:102230004F935F936F937F938F939F93AF93BF93CE
:10224000EF93FF93DF93CF93CDB7DEB78091542107
:1022500090915521009731F0809154219091552112
:10226000FC011995CF91DF91FF91EF91BF91AF9153
:102270009F918F917F916F915F914F913F912F919E
:102280000F9000923B000F90009239000F90009247
:1022900038000F900FBE0F901F9018951F920F924D
:1022A0000FB60F92009038000F92009039000F92F5
:1022B00000903B000F9211241092380010923900C8
:1022C00010923B002F933F934F935F936F937F93B5
:1022D0008F939F93AF93BF93EF93FF93DF93CF932E
:1022E000CDB7DEB78091562190915721009731F0FC
:1022F0008091562190915721FC011995CF91DF9142
:10230000FF91EF91BF91AF919F918F917F916F91CD
:102310005F914F913F912F910F9000923B000F9052
:10232000009239000F90009238000F900FBE0F906E
:102330001F9018951F920F920FB60F9200903800C1
:102340000F92009039000F9200903B000F921124E1
:10235000109238001092390010923B002F933F9357
:102360004F935F936F937F938F939F93AF93BF939D
:10237000EF93FF93DF93CF93CDB7DEB780915821D2
:1023800090915921009731F08091582190915921D5
:10239000FC011995CF91DF91FF91EF91BF91AF9122
:1023A0009F918F917F916F915F914F913F912F916D
:1023B0000F9000923B000F90009239000F90009216
:1023C00038000F900FBE0F901F9018951F920F921C
:1023D0000FB60F92009038000F92009039000F92C4
:1023E00000903B000F921124109238001092390097
:1023F00010923B002F933F934F935F936F937F9384
:102400008F939F93AF93BF93EF93FF93DF93CF93FC
:10241000CDB7DEB780915A2190915B21009731F0C2
:1024200080915A2190915B21FC011995CF91DF9108
:10243000FF91EF91BF91AF919F918F917F916F919C
:102440005F914F913F912F910F9000923B000F9021
:10245000009239000F90009238000F900FBE0F903D
:102460001F9018951F920F920FB60F920090380090
:102470000F92009039000F9200903B000F921124B0
:10248000109238001092390010923B002F933F9326
:102490004F935F936F937F938F939F93AF93BF936C
:1024A000EF93FF93DF93CF93CDB7DEB780915C219D
:1024B00090915D21009731F080915C2190915D2198
:1024C000FC011995CF91DF91FF91EF91BF91AF91F1
:1024D0009F918F917F916F915F914F913F912F913C
:1024E0000F9000923B000F90009239000F900092E5
:1024F00038000F900FBE0F901F9018951F920F92EB
:102500000FB60F92009038000F92009039000F9292
:1025100000903B000F921124109238001092390065
:1025200010923B002F933F934F935F936F937F9352
:102530008F939F93AF93BF93EF93FF93DF93CF93CB
:10254000CDB7DEB780915E2190915F21009731F089
:1025500080915E2190915F21FC011995CF91DF91CF
:10256000FF91EF91BF91AF919F918F917F916F916B
:102570005F914F913F912F910F9000923B000F90F0
:10258000009239000F90009238000F900FBE0F900C
:102590001F9018951F920F920FB60F92009038005F
:1025A0000F92009039000F9200903B000F9211247F
:1025B000109238001092390010923B002F933F93F5
:1025C0004F935F936F937F938F939F93AF93BF933B
:1025D000EF93FF93DF93CF93CDB7DEB78091602168
:1025E00090916121009731F080916021909161215B
:1025F000FC011995CF91DF91FF91EF91BF91AF91C0
:102600009F918F917F916F915F914F913F912F910A
:102610000F9000923B000F90009239000F900092B3
:1026200038000F900FBE0F901F9018951F920F92B9
:102630000FB60F92009038000F92009039000F9261
:1026400000903B000F921124109238001092390034
:1026500010923B002F933F934F935F936F937F9321
:102660008F939F93AF93BF93EF93FF93DF93CF939A
:10267000CDB7DEB78091622190916321009731F050
:102680008091622190916321FC011995CF91DF9196
:10269000FF91EF91BF91AF919F918F917F916F913A
:1026A0005F914F913F912F910F9000923B000F90BF
:1026B000009239000F90009238000F900FBE0F90DB
:1026C0001F9018951F920F920FB60F92009038002E
:1026D0000F92009039000F9200903B000F9211244E
:1026E000109238001092390010923B002F933F93C4
:1026F0004F935F936F937F938F939F93AF93BF930A
:10270000EF93FF93DF93CF93CDB7DEB78091642132
:1027100090916521009731F080916421909165211D
:10272000FC011995CF91DF91FF91EF91BF91AF918E
:102730009F918F917F916F915F914F913F912F91D9
:102740000F9000923B000F90009239000F90009282
:1027500038000F900FBE0F901F9018951F920F9288
:102760000FB60F92009038000F92009039000F9230
:1027700000903B000F921124109238001092390003
:1027800010923B002F933F934F935F936F937F93F0
:102790008F939F93AF93BF93EF93FF93DF93CF9369
:1027A000CDB7DEB78091662190916721009731F017
:1027B0008091662190916721FC011995CF91DF915D
:1027C000FF91EF91BF91AF919F918F917F916F9109
:1027D0005F914F913F912F910F9000923B000F908E
:1027E000009239000F90009238000F900FBE0F90AA
:1027F0001F9018951F920F920FB60F9200903800FD
:102800000F92009039000F9200903B000F9211241C
:10281000109238001092390010923B002F933F9392
:102820004F935F936F937F938F939F93AF93BF93D8
:10283000EF93FF93DF93CF93CDB7DEB780916821FD
:1028400090916921009731F08091682190916921E0
:10285000FC011995CF91DF91FF91EF91BF91AF915D
:102860009F918F917F916F915F914F913F912F91A8
:102870000F9000923B000F90009239000F90009251
:1028800038000F900FBE0F901F9018951F920F9257
:102890000FB60F92009038000F92009039000F92FF
:1028A00000903B000F9211241092380010923900D2
:1028B00010923B002F933F934F935F936F937F93BF
:1028C0008F939F93AF93BF93EF93FF93DF93CF9338
:1028D000CDB7DEB780916A2190916B21009731F0DE
:1028E00080916A2190916B21FC011995CF91DF9124
:1028F000FF91EF91BF91AF919F918F917F916F91D8
:102900005F914F913F912F910F9000923B000F905C
:10291000009239000F90009238000F900FBE0F9078
:102920001F9018951F920F920FB60F9200903800CB
:102930000F92009039000F9200903B000F921124EB
:10294000109238001092390010923B002F933F9361
:102950004F935F936F937F938F939F93AF93BF93A7
:10296000EF93FF93DF93CF93CDB7DEB780916C21C8
:1029700090916D21009731F080916C2190916D21A3
:10298000FC011995CF91DF91FF91EF91BF91AF912C
:102990009F918F917F916F915F914F913F912F9177
:1029A0000F9000923B000F90009239000F90009220
:1029B00038000F900FBE0F901F9018951F920F9226
:1029C0000FB60F92009038000F92009039000F92CE
:1029D00000903B000F9211241092380010923900A1
:1029E00010923B002F933F934F935F936F937F938E
:1029F0008F939F93AF93BF93EF93FF93DF93CF9307
:102A0000CDB7DEB780916E2190916F21009731F0A4
:102A100080916E2190916F21FC011995CF91DF91EA
:102A2000FF91EF91BF91AF919F918F917F916F91A6
:102A30005F914F913F912F910F9000923B000F902B
:102A4000009239000F90009238000F900FBE0F9047
:102A50001F9018951F920F920FB60F92009038009A
:102A60000F92009039000F9200903B000F921124BA
:102A7000109238001092390010923B002F933F9330
:102A80004F935F936F937F938F939F93AF93BF9376
:102A9000EF93FF93DF93CF93CDB7DEB78091702193
:102AA00090917121009731F0809170219091712166
:102AB000FC011995CF91DF91FF91EF91BF91AF91FB
:102AC0009F918F917F916F915F914F913F912F9146
:102AD0000F9000923B000F90009239000F900092EF
:102AE00038000F900FBE0F901F9018951F920F92F5
:102AF0000FB60F92009038000F92009039000F929D
:102B000000903B000F92112410923800109239006F
:102B100010923B002F933F934F935F936F937F935C
:102B20008F939F93AF93BF93EF93FF93DF93CF93D5
:102B3000CDB7DEB78091722190917321009731F06B
:102B40008091722190917321FC011995CF91DF91B1
:102B5000FF91EF91BF91AF919F918F917F916F9175
:102B60005F914F913F912F910F9000923B000F90FA
:102B7000009239000F90009238000F900FBE0F9016
:102B80001F9018951F920F920FB60F920090380069
:102B90000F92009039000F9200903B000F92112489
:102BA000109238001092390010923B002F933F93FF
:102BB0004F935F936F937F938F939F93AF93BF9345
:102BC000EF93FF93DF93CF93CDB7DEB7809174215E
:102BD00090917521009731F0809174219091752129
:102BE000FC011995CF91DF91FF91EF91BF91AF91CA
:102BF0009F918F917F916F915F914F913F912F9115
:102C00000F9000923B000F90009239000F900092BD
:102C100038000F900FBE0F901F9018951F920F92C3
:102C20000FB60F92009038000F92009039000F926B
:102C300000903B000F92112410923800109239003E
:102C400010923B002F933F934F935F936F937F932B
:102C50008F939F93AF93BF93EF93FF93DF93CF93A4
:102C6000CDB7DEB78091762190917721009731F032
:102C70008091762190917721FC011995CF91DF9178
:102C8000FF91EF91BF91AF919F918F917F916F9144
:102C90005F914F913F912F910F9000923B000F90C9
:102CA000009239000F90009238000F900FBE0F90E5
:102CB0001F9018951F920F920FB60F920090380038
:102CC0000F92009039000F9200903B000F92112458
:102CD000109238001092390010923B002F933F93CE
:102CE0004F935F936F937F938F939F93AF93BF9314
:102CF000EF93FF93DF93CF93CDB7DEB78091782129
:102D000090917921009731F08091782190917921EB
:102D1000FC011995CF91DF91FF91EF91BF91AF9198
:102D20009F918F917F916F915F914F913F912F91E3
:102D30000F9000923B000F90009239000F9000928C
:102D400038000F900FBE0F901F9018951F920F9292
:102D50000FB60F92009038000F92009039000F923A
:102D600000903B000F92112410923800109239000D
:102D700010923B002F933F934F935F936F937F93FA
:102D80008F939F93AF93BF93EF93FF93DF93CF9373
:102D9000CDB7DEB780917A2190917B21009731F0F9
:102DA00080917A2190917B21FC011995CF91DF913F
:102DB000FF91EF91BF91AF919F918F917F916F9113
:102DC0005F914F913F912F910F9000923B000F9098
:102DD000009239000F90009238000F900FBE0F90B4
:102DE0001F9018951F920F920FB60F920090380007
:102DF0000F92009039000F9200903B000F92112427
:102E0000109238001092390010923B002F933F939C
:102E10004F935F936F937F938F939F93AF93BF93E2
:102E2000EF93FF93DF93CF93CDB7DEB780917C21F3
:102E300090917D21009731F080917C2190917D21AE
:102E4000FC011995CF91DF91FF91EF91BF91AF9167
:102E50009F918F917F916F915F914F913F912F91B2
:102E60000F9000923B000F90009239000F9000925B
:102E700038000F900FBE0F901F9018951F920F9261
:102E80000FB60F92009038000F92009039000F9209
:102E900000903B000F9211241092380010923900DC
:102EA00010923B002F933F934F935F936F937F93C9
:102EB0008F939F93AF93BF93EF93FF93DF93CF9342
:102EC000CDB7DEB780917E2190917F21009731F0C0
:102ED00080917E2190917F21FC011995CF91DF9106
:102EE000FF91EF91BF91AF919F918F917F916F91E2
:102EF0005F914F913F912F910F9000923B000F9067
:102F0000009239000F90009238000F900FBE0F9082
:102F10001F9018951F920F920FB60F9200903800D5
:102F20000F92009039000F9200903B000F921124F5
:102F3000109238001092390010923B002F933F936B
:102F40004F935F936F937F938F939F93AF93BF93B1
:102F5000EF93FF93DF93CF93CDB7DEB780918021BE
:102F600090918121009731F0809180219091812171
:102F7000FC011995CF91DF91FF91EF91BF91AF9136
:102F80009F918F917F916F915F914F913F912F9181
:102F90000F9000923B000F90009239000F9000922A
:102FA00038000F900FBE0F901F9018951F920F9230
:102FB0000FB60F92009038000F92009039000F92D8
:102FC00000903B000F9211241092380010923900AB
:102FD00010923B002F933F934F935F936F937F9398
:102FE0008F939F93AF93BF93EF93FF93DF93CF9311
:102FF000CDB7DEB78091822190918321009731F087
:103000008091822190918321FC011995CF91DF91CC
:10301000FF91EF91BF91AF919F918F917F916F91B0
:103020005F914F913F912F910F9000923B000F9035
:10303000009239000F90009238000F900FBE0F9051
:103040001F9018951F920F920FB60F9200903800A4
:103050000F92009039000F9200903B000F921124C4
:10306000109238001092390010923B002F933F933A
:103070004F935F936F937F938F939F93AF93BF9380
:10308000EF93FF93DF93CF93CDB7DEB78091842189
:1030900090918521009731F0809184219091852134
:1030A000FC011995CF91DF91FF91EF91BF91AF9105
:1030B0009F918F917F916F915F914F913F912F9150
:1030C0000F9000923B000F90009239000F900092F9
:1030D00038000F900FBE0F901F9018951F920F92FF
:1030E0000FB60F92009038000F92009039000F92A7
:1030F00000903B000F92112410923800109239007A
:1031000010923B002F933F934F935F936F937F9366
:103110008F939F93AF93BF93EF93FF93DF93CF93DF
:10312000CDB7DEB78091862190918721009731F04D
:103130008091862190918721FC011995CF91DF9193
:10314000FF91EF91BF91AF919F918F917F916F917F
:103150005F914F913F912F910F9000923B000F9004
:10316000009239000F90009238000F900FBE0F9020
:103170001F9018951F920F920FB60F920090380073
:103180000F92009039000F9200903B000F92112493
:10319000109238001092390010923B002F933F9309
:1031A0004F935F936F937F938F939F93AF93BF934F
:1031B000EF93FF93DF93CF93CDB7DEB78091882154
:1031C00090918921009731F08091882190918921F7
:1031D000FC011995CF91DF91FF91EF91BF91AF91D4
:1031E0009F918F917F916F915F914F913F912F911F
:1031F0000F9000923B000F90009239000F900092C8
:1032000038000F900FBE0F901F9018951F920F92CD
:103210000FB60F92009038000F92009039000F9275
:1032200000903B000F921124109238001092390048
:1032300010923B002F933F934F935F936F937F9335
:103240008F939F93AF93BF93EF93FF93DF93CF93AE
:10325000CDB7DEB780918A2190918B21009731F014
:1032600080918A2190918B21FC011995CF91DF915A
:10327000FF91EF91BF91AF919F918F917F916F914E
:103280005F914F913F912F910F9000923B000F90D3
:10329000009239000F90009238000F900FBE0F90EF
:1032A0001F9018951F920F920FB60F920090380042
:1032B0000F92009039000F9200903B000F92112462
:1032C000109238001092390010923B002F933F93D8
:1032D0004F935F936F937F938F939F93AF93BF931E
:1032E000EF93FF93DF93CF93CDB7DEB780918C211F
:1032F00090918D21009731F080918C2190918D21BA
:10330000FC011995CF91DF91FF91EF91BF91AF91A2
:103310009F918F917F916F915F914F913F912F91ED
:103320000F9000923B000F90009239000F90009296
:1033300038000F900FBE0F901F9018951F920F929C
:103340000FB60F92009038000F92009039000F9244
:1033500000903B000F921124109238001092390017
:1033600010923B002F933F934F935F936F937F9304
:103370008F939F93AF93BF93EF93FF93DF93CF937D
:10338000CDB7DEB780918E2190918F21009731F0DB
:1033900080918E2190918F21FC011995CF91DF9121
:1033A000FF91EF91BF91AF919F918F917F916F911D
:1033B0005F914F913F912F910F9000923B000F90A2
:1033C000009239000F90009238000F900FBE0F90BE
:1033D0001F9018951F920F920FB60F920090380011
:1033E0000F92009039000F9200903B000F92112431
:1033F000109238001092390010923B002F933F93A7
:103400004F935F936F937F938F939F93AF93BF93EC
:10341000EF93FF93DF93CF93CDB7DEB780919021E9
:1034200090919121009731F080919021909191217C
:10343000FC011995CF91DF91FF91EF91BF91AF9171
:103440009F918F917F916F915F914F913F912F91BC
:103450000F9000923B000F90009239000F90009265
:1034600038000F900FBE0F901F9018951F920F926B
:103470000FB60F92009038000F92009039000F9213
:1034800000903B000F9211241092380010923900E6
:1034900010923B002F933F934F935F936F937F93D3
:1034A0008F939F93AF93BF93EF93FF93DF93CF934C
:1034B000CDB7DEB78091922190919321009731F0A2
:1034C0008091922190919321FC011995CF91DF91E8
:1034D000FF91EF91BF91AF919F918F917F916F91EC
:1034E0005F914F913F912F910F9000923B000F9071
:1034F000009239000F90009238000F900FBE0F908D
:103500001F901895DF93CF9300D0CDB7DEB78A8395
:103510009B830E945B0E89838A819B8128E0803097
:10352000920759F483E090E061E00E94CB0883E0C9
:1035300090E064E00E94CB087BC08A819B8128E0F8
:103540008034920759F483E090E062E00E94CB0857
:1035500083E090E064E00E94CB086AC08A819B818E
:1035600029E08030920759F484E090E061E00E9405
:10357000CB0884E090E064E00E94CB0859C08A81C7
:103580009B8129E08034920759F484E090E062E066
:103590000E94CB0884E090E064E00E94CB0848C021
:1035A0008A819B812AE08030920759F485E090E07F
:1035B00061E00E94CB0885E090E064E00E94CB08C7
:1035C00037C08A819B812AE08034920759F485E0D4
:1035D00090E062E00E94CB0885E090E064E00E9409
:1035E000CB0826C08A819B812BE08030920759F45A
:1035F00086E090E061E00E94CB0886E090E064E025
:103600000E94CB0815C08A819B812BE080349207F1
:1036100059F486E090E062E00E94CB0886E090E0FA
:1036200064E00E94CB0804C089810E946B0E07C031
:1036300081E090E00E947A0E89810E946B0E2396B1
:10364000CDBFDEBFCF91DF910895DF93CF930F926F
:103650000F92CDB7DEB789839A8389819A81FC0165
:10366000108211820F900F90CF91DF910895DF9318
:10367000CF930F920F92CDB7DEB789839A8389815A
:103680009A81FC01808191810F900F90CF91DF9101
:103690000895DF93CF9300D00F92CDB7DEB78B8321
:1036A0009C838B819C81FC0180819181009719F41E
:1036B00080E090E018C08B819C81FC018081918129
:1036C00089839A8307C089819A81FC0180819181D5
:1036D00089839A8389819A81FC01808191810097F5
:1036E00091F789819A812496CDBFDEBFCF91DF917A
:1036F0000895DF93CF9300D000D0CDB7DEB78B8392
:103700009C836D837E838D819E81FC01108211825A
:103710008B819C81BEDF89839A8389819A810097FE
:1037200041F48B819C812D813E81FC01208331837A
:1037300007C02D813E8189819A81FC0120833183DC
:103740002696CDBFDEBFCF91DF910895DF93CF9353
:1037500000D00F92CDB7DEB78B839C838B819C8189
:10376000FC018081918189839A838B819C81FC01FA
:1037700080819181009769F08B819C81FC0180811F
:103780009181FC01208131818B819C81FC0120830E
:10379000318389819A812496CDBFDEBFCF91DF919D
:1037A0000895DF93CF93CDB7DEB72897CDBFDEBFA7
:1037B0008D839E836F8378878D819E81FC018081BC
:1037C0009181009709F440C01B821C828D819E81EB
:1037D000FC018081918189839A8331C029813A815A
:1037E0008F81988528173907F9F48B819C81009780
:1037F00059F489819A81FC01208131818D819E81DA
:10380000FC01208331830AC089819A81FC012081D7
:1038100031818B819C81FC012083318389819A8154
:10382000FC011082118211C089819A818B839C8353
:1038300089819A81FC018081918189839A83898120
:103840009A81009759F601C000002896CDBFDEBFCF
:10385000CF91DF910895DF93CF9300D000D0CDB703
:10386000DEB78D839E831B821C828D819E81FC012D
:103870008081918189839A8314C08B819C81853159
:1038800091051CF08B819C8112C08B819C810196DB
:103890008B839C8389819A81FC01808191818983BA
:1038A0009A8389819A81009741F78B819C81269622
:1038B000CDBFDEBFCF91DF910895DF93CF93CDB71A
:1038C000DEB780EA90E027E0FC012283CF91DF9110
:1038D0000895DF93CF93CDB7DEB70E94D10B0E943E
:1038E0008C08EBDF48D027D00E946B3B80E496E049
:1038F00020E436E0F90122852860FC01228780E47B
:1039000096E020E436E0F90121852160FC01218761
:1039100080E496E020E436E0F90123892260FC018E
:10392000238B78941BD40E94E72A16D080E090E085
:10393000CF91DF910895DF93CF93CDB7DEB70E948B
:10394000AB26CF91DF910895DF93CF93CDB7DEB74C
:103950000BD00E94B826FDCFDF93CF93CDB7DEB753
:10396000F3DFCF91DF910895DF93CF93CDB7DEB72B
:10397000CF91DF910895DF93CF93CDB7DEB78091DC
:1039800038219091392161DE00D08DB79EB7019624
:1039900025E0FC01208320E030E2FC01218332831A
:1039A00006D00F900F900F90CF91DF910895DF9385
:1039B000CF9300D000D0CDB7DEB7CE010F968D8368
:1039C0009E838C858B3008F05CC08D859E85FC01C4
:1039D0008081882309F455C0BAD18B839C838B8165
:1039E0009C81009709F44DC08B819C818E5B9F4F19
:1039F000FC0110828B819C81029689839A838B8142
:103A00009C8102962D813E814D855E85BA01A9017A
:103A10000E945D3D13C08B819C818E5B9F4FFC019A
:103A20008081282F2F5F8B819C818E5B9F4FFC01B3
:103A3000208389819A81019689839A8389819A81D9
:103A4000FC018081882339F78B819C818E5B9F4F9D
:103A5000FC018081882F90E02B813C81820F931F95
:103A60000296FC0110828B819C818E5B9F4FFC0132
:103A70008081282F2F5F8B819C818E5B9F4FFC0163
:103A800020832696CDBFDEBFCF91DF910895DF93CF
:103A9000CF930F920F92CDB7DEB789839A8380912F
:103AA00038219091392129813A81B9017ADE8981C1
:103AB0009A810E946D3C0F900F90CF91DF910895F5
:103AC000DF93CF93CDB7DEB72597CDBFDEBF76C0EE
:103AD0008091382190913921CADD8A839B838A8124
:103AE0009B81009789F400D08DB79EB7019625E0A1
:103AF000FC01208321E230E2FC012183328357DF85
:103B00000F900F900F905AC08A819B818E5B9F4FC0
:103B1000FC018081882309F451C00E94EB268C832C
:103B20009D838C819D81009709F448C08C819D8183
:103B30008C5B9F4F24E0FC0120838C819D818A5BFC
:103B40009F4F22E0FC0120838C819D81895B9F4FE8
:103B500022E0FC0120838A819B818E5B9F4FFC01C8
:103B600020818C819D818B5B9F4FFC01208319827A
:103B700019C08981882F90E02981222F30E04A8165
:103B80005B81240F351F2E5F3F4FF9012081422FAB
:103B90002C813D81820F931F0296FC014083898115
:103BA0008F5F89838A819B818E5B9F4FFC0190810F
:103BB00089818917F0F28A819B8169DF80913821A0
:103BC0009091392148DE009709F082CF2596CDBF2C
:103BD000DEBFCF91DF910895DF93CF930F920F92C5
:103BE000CDB7DEB70E94EB2689839A8389819A81BB
:103BF0008C5B9F4F24E0FC01208389819A818A5B42
:103C00009F4F22E0FC01208389819A81895B9F4F2D
:103C100021E0FC01208389819A818B5B9F4F21E009
:103C2000FC012083809138219091392114DE282FC6
:103C300089819A81FC0122830F900F90CF91DF91AF
:103C40000895DF93CF930F920F92CDB7DEB789839C
:103C50009A8389819A81895B9F4FFC018081882F9B
:103C600090E08230910551F18330910509F448C00C
:103C70008130910509F055C089819A818C5B9F4FF5
:103C8000FC018081882F90E08230910579F08330AB
:103C9000910524F48130910541F054C083309105A1
:103CA00039F08430910529F04DC007C095DF05C07B
:103CB00004C089819A817BD2000044C089819A81A5
:103CC0008C5B9F4FFC018081882F90E082309105B2
:103CD00079F08330910524F48130910541F032C0B0
:103CE0008330910539F08430910529F02BC007C04D
:103CF000E7DE05C004C089819A8159D2000022C044
:103D000000D08DB79EB7019625E0FC0120832EE4FC
:103D100030E2FC01218332834ADE0F900F900F9036
:103D200011C000D08DB79EB7019625E0FC0120831D
:103D300025E730E2FC012183328339DE0F900F90BA
:103D40000F9000000F900F90CF91DF910895DF93B7
:103D5000CF930F920F92CDB7DEB78091382190911B
:103D6000392179DD843191058CF485E490E00E945D
:103D7000D33B89839A83809138219091392129817D
:103D80003A81B901B6DC89819A8102C089819A8120
:103D90000F900F90CF91DF910895DF93CF930F9203
:103DA000CDB7DEB789838981869586958695882FDC
:103DB00090E0C096880F991F82959295907F9827E2
:103DC000807F98270F90CF91DF910895DF93CF9355
:103DD0000F92CDB7DEB789838981882F90E09C014F
:103DE0002770307081E090E0022E02C0880F991F8A
:103DF0000A94E2F70F90CF91DF910895DF93CF936C
:103E000000D00F92CDB7DEB78B836C838B81C5DF7B
:103E100089839A838C81882341F08B81D7DF282F77
:103E200089819A81FC01258307C08B81CFDF282FF0
:103E300089819A81FC0126832496CDBFDEBFCF9174
:103E4000DF910895DF93CF9300D00F92CDB7DEB707
:103E50008C838C81BBDF89838C819FDF8A839B83EA
:103E60008A819B812981FC0127832496CDBFDEBFF7
:103E7000CF91DF910895DF93CF930F920F92CDB73B
:103E8000DEB789839A8389819A81895B9F4FFC0180
:103E90008081882F90E08230910509F454C08330EE
:103EA00091050CF074C0009721F08130910531F13B
:103EB0006FC089819A81FC0182816FD061E09EDFB1
:103EC00089819A81FC018281282F30E000D00F92F5
:103ED0000F928DB79EB7019645E0FC0140834CE8F8
:103EE00050E2FC0141835283FC01238334835FDD74
:103EF0000F900F900F900F900F904AC089819A8178
:103F0000FC0182814AD060E079DF89819A81FC01DD
:103F10008281282F30E000D00F920F928DB79EB78C
:103F2000019645E0FC01408345EA50E2FC014183F3
:103F30005283FC01238334833ADD0F900F900F905E
:103F40000F900F9025C089819A81FC01828125D034
:103F500079DF89819A81FC018281282F30E000D0AD
:103F60000F920F928DB79EB7019645E0FC014083FA
:103F70004DEB50E2FC0141835283FC0123833483E7
:103F800016DD0F900F900F900F900F9001C0000062
:103F90000F900F90CF91DF910895DF93CF930F9201
:103FA0000F92CDB7DEB78A838A81805E898389814B
:103FB0000F900F90CF91DF910895DF93CF930F92E1
:103FC000CDB7DEB789838981869586958695882FBA
:103FD00090E0C096880F991F82959295907F9827C0
:103FE000807F98270F90CF91DF910895DF93CF9333
:103FF0000F92CDB7DEB789838981882F90E09C012D
:104000002770307081E090E0022E02C0880F991F67
:104010000A94E2F70F90CF91DF910895DF93CF9349
:1040200000D00F92CDB7DEB78B836C838B81C5DF59
:1040300089839A838C81882341F08B81D7DF282F55
:1040400089819A81FC01258307C08B81CFDF282FCE
:1040500089819A81FC0126832496CDBFDEBFCF9152
:10406000DF9108950F931F93DF93CF9300D0CDB7C7
:10407000DEB78B838B81A1DF89839A8389819A81C3
:10408000FC018085882F90E08C01009510958B8134
:10409000ADDF882F90E08023912321E0009709F481
:1040A00020E0822F2396CDBFDEBFCF91DF911F91FD
:1040B0000F910895DF93CF9300D00F92CDB7DEB765
:1040C0008C838C8193DF89838C8177DF8A839B83C8
:1040D0008A819B812981FC0127832496CDBFDEBF85
:1040E000CF91DF910895DF93CF930F920F92CDB7C9
:1040F000DEB789839A8389819A81FC018081282F88
:10410000206489819A81FC0120830F900F90CF91C8
:10411000DF910895DF93CF930F920F92CDB7DEB763
:1041200089839A8389819A81FC018281881F8827EB
:10413000881F0F900F90CF91DF910895DF93CF9359
:104140000F920F92CDB7DEB789839A8389819A81C6
:10415000E1DF0F900F90CF91DF910895CF92DF9222
:10416000EF92FF920F931F93DF93CF93CDB7DEB7FC
:1041700080EC98E00E94110A2AE331E280EC98E09A
:10418000B90140E008E418EE21E030E0CC24DD2461
:1041900076010E94490A80EC98E0A5DFCF91DF917B
:1041A0001F910F91FF90EF90DF90CF900895DF93D4
:1041B000CF9300D0CDB7DEB78A839B83F8948AEA89
:1041C00089838A819B81009709F44EC02AE331E2FA
:1041D00080EC98E0B9010E94580B80EC98E02981AE
:1041E000FC012383000080EC98E0A8DF982F81E099
:1041F00089278823C1F78A819B819C012B5B3F4FD4
:1042000080EC98E0B90141E00E94920A8A819B818A
:104210009C012A5B3F4F80EC98E0B90141E00E948D
:10422000920A8A819B819C01295B3F4F80EC98E038
:10423000B90141E00E94920A8A819B819C012E5F14
:104240003F4F8A819B818B5B9F4FFC01408180ECBB
:1042500098E0B9010E94920A2AE331E280EC98E0EA
:10426000B9010E946D0B03C086E260E0D7DE78944E
:104270002396CDBFDEBFCF91DF9108950F931F939B
:10428000DF93CF93CDB7DEB7C456D040CDBFDEBFEE
:10429000F894CE018C599F4F28E8FC0120839BD5D0
:1042A00089839A8389819A81009721F485E202DFCC
:1042B0007894B1C42AE331E280EC98E0B9010E941D
:1042C000580B1B829E012C593F4F80EC98E0B9019E
:1042D00041E00E94920A80E090E0A0E2B1E48C8389
:1042E0009D83AE83BF836C817D818E819F812BEA0C
:1042F0003AEA4AEA5EE30E945303DC01CB01888775
:104300009987AA87BB8711E0688579858A859B850F
:1043100020E030E040E85FE30E944F0588230CF086
:1043200010E0112319F081E08C87A3C011E06885AB
:1043300079858A859B8520E030E04FE753E40E9431
:10434000F50418160CF010E0112309F489C06C81F3
:104350007D818E819F8120E030E04AE754E40E9415
:104360004A04DC01CB018D879E87AF87B88B6D85B2
:104370007E858F85988920E030E04AE753E40E94EB
:104380005303DC01CB01898B9A8BAB8BBC8B11E087
:1043900069897A898B899C8920E030E040E85FE375
:1043A0000E944F0588230CF010E0112329F081E0D2
:1043B00090E08D8B9E8B46C011E069897A898B894C
:1043C0009C8920E03FEF4FE757E40E94F504181660
:1043D0000CF010E0112361F16D857E858F85988941
:1043E00020E030E040E251E40E945303DC01CB01C5
:1043F000BC01CD010E948B01DC01CB018D8B9E8B1A
:1044000012C089E190E08F8B988F8F89988D8C01F5
:10441000C8010197F1F78C010F8B188F8D899E8948
:1044200001978D8B9E8B8D899E89009751F728C0AF
:1044300069897A898B899C890E948B01DC01CB0177
:104440008D8B9E8B8D899E89898F9A8F898D9A8D70
:104450008C01F8013197F1F78F01098F1A8F10C085
:10446000688579858A859B850E948B01DC01CB015B
:104470008C878C858B8F8B8D182F1A95F1F71B8F5E
:1044800089819A819C012B5B3F4F80EC98E0B901B8
:1044900041E050E00E941B0B80E090E0A0E2B1E41C
:1044A0008C8F9D8FAE8FBF8F6C8D7D8D8E8D9F8DF0
:1044B0002BEA3AEA4AEA5EE30E945303DC01CB01AD
:1044C00088A399A3AAA3BBA311E068A179A18AA19B
:1044D0009BA120E030E040E85FE30E944F05882385
:1044E0000CF010E0112319F081E08CA3A3C011E0BF
:1044F00068A179A18AA19BA120E030E04FE753E4B5
:104500000E94F50418160CF010E0112309F489C07C
:104510006C8D7D8D8E8D9F8D20E030E04AE754E4D8
:104520000E944A04DC01CB018DA39EA3AFA3B8A7D0
:104530006DA17EA18FA198A520E030E04AE753E469
:104540000E945303DC01CB0189A79AA7ABA7BCA7A4
:1045500011E069A57AA58BA59CA520E030E040E894
:104560005FE30E944F0588230CF010E0112329F02F
:1045700081E090E08DA79EA746C011E069A57AA5CD
:104580008BA59CA520E03FEF4FE757E40E94F50480
:1045900018160CF010E0112361F16DA17EA18FA11E
:1045A00098A520E030E040E251E40E945303DC0192
:1045B000CB01BC01CD010E948B01DC01CB018DA799
:1045C0009EA712C089E190E08FA798AB8FA598A90C
:1045D0008C01C8010197F1F78C010FA718AB8DA5CD
:1045E0009EA501978DA79EA78DA59EA5009751F723
:1045F00028C069A57AA58BA59CA50E948B01DC012A
:10460000CB018DA79EA78DA59EA589AB9AAB89A945
:104610009AA98C01F8013197F1F78F0109AB1AAB18
:1046200010C068A179A18AA19BA10E948B01DC0125
:10463000CB018CA38CA18BAB8BA9182F1A95F1F70A
:104640001BAB89819A818B5B9F4FFC0180818B839F
:104650008B81882319F08B81883870F02AE331E24E
:1046600080EC98E0B9010E946D0B789484E222DD21
:1046700089819A81E4D3CFC289819A819C012A5B86
:104680003F4F80EC98E0B90141E050E00E941B0BE5
:1046900080E090E0A0E2B1E48CAB9DABAEABBFABF1
:1046A0006CA97DA98EA99FA92BEA3AEA4AEA5EE3A2
:1046B0000E945303DC01CB0188AF99AFAAAFBBAF17
:1046C00011E068AD79AD8AAD9BAD20E030E040E807
:1046D0005FE30E944F0588230CF010E0112319F0CE
:1046E00081E08CAFF3C011E068AD79AD8AAD9BADD0
:1046F00020E030E04FE753E40E94F50418160CF078
:1047000010E0112309F4D9C06CA97DA98EA99FA935
:1047100020E030E04AE754E40E944A04DC01CB0187
:104720009E01235C3F4FF90180839183A283B38371
:104730008E010F5B1F4FCE01CD96FC016081718110
:104740008281938120E030E04AE753E40E945303E2
:10475000DC01CB01F80180839183A283B383CE0176
:104760008F5B9F4F11E0FC01608171818281938199
:1047700020E030E040E85FE30E944F0588230CF022
:1047800010E0112349F0CE018B5B9F4F21E030E018
:10479000FC012083318373C0CE018F5B9F4F11E0FA
:1047A000FC01608171818281938120E03FEF4FE7BE
:1047B00057E40E94F50418160CF010E0112309F4D8
:1047C0004CC0CE01CD96FC016081718182819381C4
:1047D00020E030E040E251E40E945303DC01CB01D1
:1047E0008E010B5B1F4FBC01CD010E948B01DC01D0
:1047F000CB01F8018083918327C0CE01895B9F4F55
:1048000029E130E0FC0120833183CE01895B9F4F99
:10481000FC01808191818C01C8010197F1F78C0125
:10482000CE01895B9F4FFC0100831183CE018B5B1E
:104830009F4F9E012B5B3F4FF90120813181215019
:104840003040FC0120833183CE018B5B9F4FFC0104
:1048500080819181009789F64CC08E010B5B1F4FC0
:10486000CE018F5B9F4FFC016081718182819381BA
:104870000E948B01DC01CB01F80180839183CE0182
:10488000875B9F4F9E012B5B3F4FF9012081318158
:10489000FC0120833183CE01875B9F4FFC01808127
:1048A00091818C01C8010197F1F78C01CE01875BE2
:1048B0009F4FFC01008311831CC068AD79AD8AADA8
:1048C0009BAD0E948B01DC01CB018CAFCE01855BDF
:1048D0009F4F2CADFC012083CE01855B9F4FFC01D7
:1048E0008081182F1A95F1F7CE01855B9F4FFC014F
:1048F000108389819A819C01295B3F4F80EC98E06D
:10490000B90141E050E00E941B0B89819A819C0112
:104910002E5F3F4F89819A818E5B9F4FFC012083E0
:1049200031839E01245B3F4F80E090E0A0E2B1E440
:10493000F90180839183A283B3838E01005B1F4FB3
:10494000CE01845B9F4FFC016081718182819381E4
:104950002BEA3AEA4AEA5EE30E945303DC01CB0108
:10496000F80180839183A283B383CE01805B9F4F44
:1049700011E0FC01608171818281938120E030E04F
:1049800040E85FE30E944F0588230CF010E01123FC
:1049900039F0CE018C5A9F4F21E0FC01208305C1E4
:1049A000CE01805B9F4F11E0FC01608171818281AB
:1049B000938120E030E04FE753E40E94F50418169D
:1049C0000CF010E0112309F4DFC0CE01845B9F4F8F
:1049D000FC01608171818281938120E030E04AE7AF
:1049E00054E40E944A04DC01CB019E012B5A3F4F44
:1049F000F90180839183A283B3838E01075A1F4FED
:104A0000CE018B5A9F4FFC0160817181828193811D
:104A100020E030E04AE753E40E945303DC01CB017D
:104A2000F80180839183A283B383CE01875A9F4F7D
:104A300011E0FC01608171818281938120E030E08E
:104A400040E85FE30E944F0588230CF010E011233B
:104A500049F0CE01835A9F4F21E030E0FC012083D2
:104A6000318374C0CE01875A9F4F11E0FC016081F1
:104A700071818281938120E03FEF4FE757E40E94EC
:104A8000F50418160CF010E0112309F44DC0CE0106
:104A90008B5A9F4FFC01608171818281938120E05C
:104AA00030E040E251E40E945303DC01CB018E016F
:104AB000035A1F4FBC01CD010E948B01DC01CB01C9
:104AC000F8018083918327C0CE01815A9F4F29E14D
:104AD00030E0FC0120833183CE01815A9F4FFC01DD
:104AE000808191818C01C8010197F1F78C01CE0181
:104AF000815A9F4FFC0100831183CE01835A9F4F3F
:104B00009E01235A3F4FF9012081318121503040CD
:104B1000FC0120833183CE01835A9F4FFC018081A9
:104B20009181009789F658C08E01035A1F4FCE011C
:104B3000875A9F4FFC0160817181828193810E941D
:104B40008B01DC01CB01F80180839183CE018F5969
:104B50009F4F9E01235A3F4FF90120813181FC0173
:104B600020833183CE018F599F4FFC018081918139
:104B70008C01C8010197F1F78C01CE018F599F4F2D
:104B8000FC010083118328C08E010C5A1F4FCE01F7
:104B9000805B9F4FFC0160817181828193810E94C3
:104BA0008B01DC01CB01F8018083CE018D599F4F31
:104BB0009E012C5A3F4FF9012081FC012083CE0138
:104BC0008D599F4FFC018081182F1A95F1F7CE0166
:104BD0008D599F4FFC01108389819A818E5B9F4F75
:104BE000FC01408151818B81282F30E080EC98E0DE
:104BF000BA01A9010E941B0B789489819A818C5B70
:104C00009F4F22E0FC0120832AE331E280EC98E010
:104C1000B9010E946D0BCC59DF4FCDBFDEBFCF91E4
:104C2000DF911F910F910895DF93CF93CDB7DEB73A
:104C300083E118DA882309F021DBCF91DF91089511
:104C40001F920F920FB60F92009038000F920090B3
:104C500039000F9200903B000F92112410923800FF
:104C60001092390010923B002F933F934F935F9324
:104C70006F937F938F939F93AF93BF93EF93FF9324
:104C8000DF93CF93CDB7DEB7CFDFCF91DF91FF9129
:104C9000EF91BF91AF919F918F917F916F915F91B4
:104CA0004F913F912F910F9000923B000F900092F7
:104CB00039000F90009238000F900FBE0F901F9098
:104CC0001895DF93CF930F92CDB7DEB78983898193
:104CD000869586958695882F90E0C096880F991FB7
:104CE00082959295907F9827807F98270F90CF91FB
:104CF000DF910895DF93CF930F92CDB7DEB789830D
:104D00008981882F90E09C012770307081E090E0CD
:104D1000022E02C0880F991F0A94E2F70F90CF91DC
:104D2000DF910895DF93CF9300D00F92CDB7DEB718
:104D30008C838C81DFDF89838C81C3DF8A839B83B3
:104D40008A819B812981FC0127832496CDBFDEBF08
:104D5000CF91DF910895DF93CF93CDB7DEB78091E8
:104D60003B2190913C210E94251BCF91DF9108951A
:104D7000DF93CF9300D0CDB7DEB780913B219091E8
:104D80003C210E942B1C89838981882359F08091C2
:104D90003B2190913C210E94A61B8A839B838A81A0
:104DA0009B8167D080919821909199210196809361
:104DB00098219093992180919821909199218070C8
:104DC0009870009711F087E2ADDF2396CDBFDEBF6C
:104DD000CF91DF910895DF93CF930F920F92CDB7CC
:104DE000DEB780913B2190913C210E942B1C8E319B
:104DF00091051CF080E090E01DC088E490E00E94E6
:104E0000D33B89839A8389819A819C012E5F3F4F8E
:104E100089819A818E5B9F4FFC0120833183809131
:104E20003B2190913C2129813A81B9010E94791B53
:104E300089819A810F900F90CF91DF910895DF9330
:104E4000CF930F920F92CDB7DEB789839A8380916B
:104E50003B2190913C2129813A81B9010E94D11BCB
:104E600089819A810E946D3C0F900F90CF91DF91C4
:104E70000895DF93CF930F920F92CDB7DEB789835A
:104E80009A8389819A818A5B9F4FFC018081882F58
:104E900090E08130910569F0823091051CF4009713
:104EA00041F115C08230910549F08330910559F0E8
:104EB0000EC089819A810E943B1F1CC089819A8102
:104EC0000E94211E17C089819A811CD013C000D076
:104ED0008DB79EB7019625E0FC01208323ED30E2DB
:104EE000FC01218332830E94D71C0F900F900F90FA
:104EF00001C0000089819A81A2DF0F900F90CF91AD
:104F0000DF910895DF93CF930F920F92CDB7DEB765
:104F100089839A8389819A81895B9F4FFC01808173
:104F2000882F90E08130910521F082309105A9F021
:104F300030C089819A818C5B9F4FFC018081882FD2
:104F400090E08230910539F08430910509F589812E
:104F50009A812DD901C000001CC089819A818C5B87
:104F60009F4FFC018081882F90E08330910559F09C
:104F70008430910521F08230910539F00AC0898191
:104F80009A8115D903C0000001C00000000001C0D3
:104F900000000F900F90CF91DF910895DF93CF9392
:104FA000CDB7DEB72597CDBFDEBF8B839C836D83E6
:104FB00012DF89839A8389819A818B5B9F4F2D8130
:104FC000FC01208389819A819C012E5F3F4F89815A
:104FD0009A818E5B9F4FFC01208331831FC08981A2
:104FE0009A818E5B9F4FFC01808191812B813C8156
:104FF000F9012081FC0120839C012F5F3F4F8981B3
:105000009A818E5B9F4FFC01208331838B819C8131
:1050100001968B839C838D8181508D838D81882324
:10502000F1F689819A818C5B9F4F24E0FC012083FB
:1050300089819A818A5B9F4F23E0FC0120838981CB
:105040009A81895B9F4F22E0FC0120832596CDBF8A
:10505000DEBFCF91DF910895DF93CF93CDB7DEB759
:1050600080913D2190913E210E94251BCF91DF919F
:105070000895DF93CF930F920F92CDB7DEB7809153
:105080003D2190913E210E942B1C8A3091058CF489
:105090008EE890E00E94D33B89839A8389819A812C
:1050A0009C01255F3F4F89819A81FC0120873187D0
:1050B00011C000D08DB79EB7019625E0FC0120837A
:1050C00027EF30E2FC01218332830E94D71C0F902E
:1050D0000F900F9089819A810F900F90CF91DF915F
:1050E0000895DF93CF930F920F92CDB7DEB78983E8
:1050F0009A8380913D2190913E2129813A81B90185
:105100000E94D11B89819A810E946D3C0F900F9063
:10511000CF91DF910895DF93CF930F920F92CDB788
:10512000DEB789839A8389819A81FC018085918584
:10513000FC0110829C012F5F3F4F89819A81FC0105
:105140002087318789819A81FC0180859185FC01C6
:1051500010829C012F5F3F4F89819A81FC0120873B
:10516000318789819A81FC018781282F2E5F89816F
:105170009A81FC01278389819A81FC014781898179
:105180009A819C01255F3F4F842FB9010E94FD3712
:1051900089819A81A6DF0F900F90CF91DF910895BA
:1051A000AF92BF92CF92DF92EF92FF920F931F9335
:1051B000DF93CF93CDB7DEB76A97CDBFDEBF0E9436
:1051C0004F3D8093432219821A8210929C211B82A8
:1051D0001C821D821E821F82188619861A868FEFF6
:1051E0009FEF8B879C878FEF9FEF8D879E878FEF39
:1051F0009FEF8F87988B83E3898B83E38A8B83E38D
:105200008B8B83E38C8B83E38D8B83E38E8B83E3A8
:105210008F8B83E3888F8FEF9FEF898F9A8F8B859A
:105220009C8595D1AB80BC80CD80DE80EF80F884FA
:1052300009851A852A2D3B2D4C2D5D2D6E2D7F2D38
:10524000802F912F97D18D859E8568D1898D9A8DDC
:10525000E7D0A988BA88CB88DC88ED88FE880F89DA
:10526000188D2A2D3B2D4C2D5D2D6E2D7F2D802FE1
:10527000912F05D18F859889B0D084E590E0A0E08A
:10528000B0E080939D2190939E21A0939F21B093A5
:10529000A0211092A12181E08093A3211092A4214A
:1052A00084E18093A5211092A8218FE08093A92109
:1052B0001092AA211092AB211092AC211092AD2134
:1052C0000E944F3D8093AE210E944F3D8093C721A5
:1052D00081E08093C82185E08093C92184E0809398
:1052E000CA2188E28093CB2183E08093CC21109265
:1052F000CD2184E18093CE2184E18093CF2110924F
:10530000D22180E290E0A0E0B0E08093D32190939E
:10531000D421A093D521B093D6211092D7211092F9
:10532000D82182E090E08093D9219093DA2183E024
:1053300090E08093E5219093E62182E090E08093D5
:10534000BB219093BC2183E090E08093AF219093A8
:10535000B0218FE08093F12180E590E08093F221ED
:105360009093F32181E08093F42184EF91E0809386
:10537000F5219093F6218BE06AD00E94B83880E046
:105380000E94C4388091CD210E94E73889819A819A
:105390006A96CDBFDEBFCF91DF911F910F91FF9035
:1053A000EF90DF90CF90BF90AF900895DF93CF93B1
:1053B000CDB7DEB780914322982F8F5F8093432231
:1053C000892FCF91DF910895DF93CF93CDB7DEB7CB
:1053D0008DE991E2CF91DF910895DF93CF930F9202
:1053E0000F92CDB7DEB789839A8389819A818093A2
:1053F000E3219093E42189819A818093EF21909316
:10540000F02189819A818093D0219093D121898143
:105410009A810E9444380F900F90CF91DF910895A8
:10542000DF93CF930F920F92CDB7DEB789839A8324
:1054300089819A818093DB219093DC2189819A81F3
:105440000E942B380F900F90CF91DF910895DF933A
:10545000CF9300D0CDB7DEB78B830E948C35898384
:105460009A838B810E942F3689819A812B81FC013E
:1054700020832396CDBFDEBFCF91DF910895AF92F9
:10548000BF92CF92DF92EF92FF920F931F93DF9321
:10549000CF93CDB7DEB72897CDBFDEBF29833A8340
:1054A0004B835C836D837E838F8398878981809310
:1054B000E7218A818093E8218B818093E9218C8187
:1054C0008093EA218D818093EB218E818093EC2162
:1054D0008F818093ED2188858093EE21A980BA8009
:1054E000CB80DC80ED80FE800F8118852A2D3B2D3E
:1054F0004C2D5D2D6E2D7F2D802F912F0E945D38BC
:105500002896CDBFDEBFCF91DF911F910F91FF9005
:10551000EF90DF90CF90BF90AF900895DF93CF933F
:105520000F920F92CDB7DEB789839A8389819A81D2
:105530008093C5219093C62189819A818093B92156
:105540009093BA210F900F90CF91DF910895DF9340
:10555000CF930F920F92CDB7DEB789839A8389815B
:105560009A818093BD219093BE210F900F90CF918F
:10557000DF910895DF93CF93CDB7DEB72897CDBFE6
:10558000DEBF29833A834B835C836D837E838F8365
:10559000988789818093B1218A818093B2218B8100
:1055A0008093B3218C818093B4218D818093B52128
:1055B0008E818093B6218F818093B72188858093D7
:1055C000B8212896CDBFDEBFCF91DF910895DF933C
:1055D000CF93CDB7DEB72797CDBFDEBF4ADD898336
:1055E0009A8389E390E00E94D33B8B839C83ECDE1B
:1055F0008D839E838B819C81FC012081287F236089
:10560000FC0120838B819C81FC012181237F286008
:10561000FC0121838B819C81FC012181206CFC0198
:1056200021838B819C81FC0120812064FC012083EB
:105630008B819C81FC0120812F7EFC0120838B814A
:105640009C81FC0120812062FC0120838B819C8154
:10565000FC012081277FFC0120838B819C812FEF1F
:105660003FEFFC01258736878B819C812FEF3FEF31
:10567000FC01258336838B819C8122E030E0FC0194
:10568000238334838B819C812D813E81285B3F4F16
:105690000F964CE0F90100802F5F3F4FFC01008224
:1056A000019641504423B1F78B819C8129813A8135
:1056B000B90135D089819A81FC018085918526E0E8
:1056C000FC0120839C012F5F3F4F89819A81FC015F
:1056D0002087318789819A81FC018781282F2F5F5C
:1056E00089819A81FC01278389819A8114DD8B81CC
:1056F0009C810E946D3C8F812796CDBFDEBFCF91EC
:10570000DF910895DF93CF930F920F92CDB7DEB75D
:1057100089839A830F900F90CF91DF9108958F9294
:105720009F92AF92BF92CF92DF92EF92FF920F9330
:105730001F93DF93CF93CDB7DEB72897CDBFDEBFE2
:105740008D839E836F83788719821A828D819E81D3
:105750008B839C838F819885FC01808591852B812B
:105760003C81F90120813181FC0120839C012F5F64
:105770003F4F8F819885FC01208731878F819885E5
:10578000FC01808591852B813C81F901208131814B
:10579000232F3327FC0120839C012F5F3F4F8F81F4
:1057A0009885FC01208731878F819885FC0187814E
:1057B000282F2E5F8F819885FC0127838D819E8104
:1057C000FC0180818770823031F0F0DD282F8D81DF
:1057D0009E81FC0122838F819885FC0180859185C3
:1057E0002D813E81F9012281FC0120839C012F5FE4
:1057F0003F4F8F819885FC01208731878F81988565
:10580000FC018781282F2F5F8F819885FC012783DA
:105810008D819E81FC018181869586958370882F7C
:1058200090E08230910529F08330910509F46AC037
:105830006CC28F819885FC01808591852D813E8188
:10584000F90125853685FC0120839C012F5F3F4FA0
:105850008F819885FC01208731878F819885FC0195
:10586000808591852D813E81F90125853685232FFF
:105870003327FC0120839C012F5F3F4F8F81988548
:10588000FC01208731878F819885FC018781282F33
:105890002E5F8F819885FC0127838F819885FC017D
:1058A000808591852D813E81F90125813681FC011C
:1058B00020839C012F5F3F4F8F819885FC012087BB
:1058C00031878F819885FC01808591852D813E816E
:1058D000F90125813681232F3327FC0120839C0188
:1058E0002F5F3F4F8F819885FC01208731878F8103
:1058F0009885FC018781282F2E5F8F819885FC0178
:10590000278303C28F819885FC01808591852D8135
:105910003E81F90125853685FC0120839C012F5F9E
:105920003F4F8F819885FC01208731878F81988533
:10593000FC01808591852D813E81F9012585368583
:10594000232F3327FC0120839C012F5F3F4F8F8142
:105950009885FC01208731878F819885FC0187819C
:10596000282F2E5F8F819885FC0127838F81988552
:10597000FC01A085B185ED81FE81258136814781BD
:1059800050856185728583859485822F8C939D01D6
:105990002F5F3F4F8F819885FC01208731878F8152
:1059A0009885FC01808491848D819E81FC01A58075
:1059B000FC01B680FC01C780FC01D084FC01E184BD
:1059C000FC01F284FC010385FC0114852A2D3B2D8A
:1059D0004C2D5D2D6E2D7F2D802F912F08E00E9484
:1059E0002001A22EB32EC42ED52EE62EF72E082F80
:1059F000192F2A2D3B2D4C2D5D2D6E2D7F2D802FA7
:105A0000912F822FF401808394012F5F3F4F8F816C
:105A10009885FC01208731878F819885FC018084DF
:105A200091848D819E81FC01A580FC01B680FC01E2
:105A3000C780FC01D084FC01E184FC01F284FC01FC
:105A40000385FC0114852A2D3B2D4C2D5D2D6E2DDB
:105A50007F2D802F912F00E10E942001A22EB32ED6
:105A6000C42ED52EE62EF72E082F192F2A2D3B2DCA
:105A70004C2D5D2D6E2D7F2D802F912F822FF401C7
:105A8000808394012F5F3F4F8F819885FC01208791
:105A900031878F819885FC01808491848D819E81DE
:105AA000FC01A580FC01B680FC01C780FC01D0840C
:105AB000FC01E184FC01F284FC010385FC011485F6
:105AC0002A2D3B2D4C2D5D2D6E2D7F2D802F912F5E
:105AD00008E10E942001A22EB32EC42ED52EE62E60
