:10000000F9C000001CC100000C945B2518C1000061
:1000100016C1000014C1000012C1000010C1000090
:100020000EC100000CC100000C94B80C0C94DD0C47
:1000300006C1000004C100000C94A20E0C94EE0E48
:100040000C943A0F0C94860F0C94D20F0C941E1043
:100050000C946A100C94B6100C9402110C944E116E
:10006000EEC00000ECC00000EAC00000E8C00000E4
:10007000E6C00000E4C00000E2C00000E0C00000F4
:10008000DEC00000DCC00000DAC00000D8C0000004
:10009000D6C00000D4C00000D2C00000D0C0000014
:1000A000CEC00000CCC00000CAC00000C8C0000024
:1000B000C6C00000C4C00000C2C000000C9492146E
:1000C0000C94DE140C942A150C9476150C94C2151D
:1000D0000C940E160C945A160C94A6160C94F21648
:1000E0000C943E17ACC00000AAC00000A8C00000DD
:1000F000A6C00000A4C00000A2C00000A0C0000074
:100100000C94913C9CC000009AC0000098C0000074
:1001100096C0000094C0000092C0000090C0000093
:100120008EC000008CC000008AC0000088C00000A3
:1001300086C000000C949A110C94E6110C943212B3
:100140000C947E120C94CA120C9416130C94621325
:100150000C94AE130C94FA130C94461470C0000067
:100160006EC000006CC000006AC0000068C00000E3
:1001700066C0000064C0000062C0000060C00000F3
:100180005EC000005CC000005AC0000058C0000003
:1001900056C0000054C0000052C0000050C0000013
:1001A0004EC000004CC000004AC0000048C0000023
:1001B0000C948A170C94D6170C9422180C946E1871
:1001C0000C94BA180C9406190C9452190C949E199C
:1001D0000C94EA190C94361A32C0000030C00000AA
:1001E0002EC000002CC000002AC0000028C0000063
:1001F00026C0000011241FBECFEFDFE3DEBFCDBF5E
:1002000000E00CBF18BE19BE1ABE1BBE12E2A0E071
:10021000B0E2E0EDFEE900E00BBF02C007900D92F6
:10022000A83FB107D9F716E2A8EFB2E201C01D92CC
:10023000A736B107E1F70E94CE1C0C94664FE0CEC2
:100240000F93DF93CF93CDB7DEB76097CDBFDEBFFF
:10025000002309F459C029833A834B835C836D835F
:100260007E838F839887E0E2E01B2D813E814F8162
:1002700058851E16BCF01D861E861F86188A8E2F76
:10028000992787FD9095909581959F4F04C056952D
:100290004795379527958A95D2F729873A874B87CF
:1002A0005C872AC0CA01B901002E04C096958795C3
:1002B000779567950A94D2F76D877E878F87988B9D
:1002C000DA01C90104C0880F991FAA1FBB1FEA9554
:1002D000D2F729813A814B815C8104C056954795BC
:1002E000379527950A95D2F7822B932BA42BB52B04
:1002F00089879A87AB87BC8729853A854B855C853A
:100300006D857E858F8598896096CDBFDEBFCF9144
:10031000DF910F910895EF92FF920F931F937B014E
:100320008C0120E030E040E05FE48CD387FD0FC01B
:10033000C801B70120E030E040E05FE487D1DCD3C2
:100340009B01AC01205030404040504805C0C801DE
:10035000B701D2D39B01AC01B901CA011F910F9122
:10036000FF90EF900895A0E0B0E0E9EBF1E00C948D
:10037000B64AFC01EA018081823008F438C1DB0111
:100380009C91923008F430C1843059F4943009F0D3
:100390002EC1918111968C911197981709F021C166
:1003A00026C1943009F420C19230B1F4823009F0B2
:1003B0001EC1CA01AF0128E0DA010D90AD01DC01D8
:1003C0000D92CD012150C1F7DB0111968C9111974F
:1003D0009181892389830AC1823009F405C1C280D1
:1003E000D380DB0112966D907C9013972481358128
:1003F000468157811496ED90FD900D911C911797B1
:10040000C601861997095C0197FF04C0AA24BB2482
:10041000A81AB90AB0E2AB16B1040CF061C0181604
:1004200019066CF5370148010A2C04C0969487948C
:10043000779467940A94D2F781E090E0A0E0B0E06E
:100440000A2C04C0880F991FAA1FBB1F0A94D2F759
:100450000197A109B1098E219F21A023B123EE2488
:10046000FF248701E3940097A105B10519F4EE2458
:10047000FF248701E628F728082919293CC000979E
:10048000D1F1CA0CDB1C39014A010A2C04C0969434
:100490008794779467940A94D2F781E090E0A0E083
:1004A000B0E00A2C04C0880F991FAA1FBB1F0A9432
:1004B000D2F70197A109B10982239323A423B5237D
:1004C00021E030E040E050E00097A105B10519F4CB
:1004D00020E030E0A90126293729482959290BC0F5
:1004E0006C147D0424F4EE24FF24870104C063010E
:1004F00020E030E0A9018181FB019181891709F495
:1005000045C0882349F0D801C701821B930BA40B77
:10051000B50B9C01AD0104C02E193F09400B510BD6
:1005200057FD04C01982CA82DB820BC081E0898337
:10053000CA82DB8250954095309521953F4F4F4FB1
:100540005F4F2C833D834E835F830DC0880F991FBF
:10055000AA1FBB1F8C839D83AE83BF838A819B812F
:1005600001978A839B838C819D81AE81BF819C0191
:10057000AD0121503040404050402F3FEFEF3E074B
:10058000EFEF4E07EFE35E0708F30BC08983CA82E3
:10059000DB822E0D3F1D401F511F2C833D834E8358
:1005A0005F8383E088832C813D814E815F8157FF8B
:1005B0001DC0DA01C90181709070A070B0705695AD
:1005C000479537952795822B932BA42BB52B8C839E
:1005D0009D83AE83BF838A819B8101968A839B839F
:1005E00005C0EBEDF2E203C0FB0101C0FE01CF014B
:1005F000CDB7DEB7EEE00C94CF4AA0E2B0E0E3E086
:10060000F3E00C94BE4A69837A838B839C832D83A9
:100610003E834F83588789E0E82EF12CEC0EFD1EB7
:10062000CE010196B70187D38E010F5E1F4FCE0119
:100630000596B80180D3C701B801AE01475E5F4F90
:1006400092DEABD2A096E6E00C94D74AA0E2B0E0EE
:10065000ECE2F3E00C94BE4A69837A838B839C833B
:100660002D833E834F8358878E01075F1F4FCE0136
:100670000196B80160D391E1E92EF12CEC0EFD1E3C
:10068000CE010596B70157D38A8991E089278A8BD5
:10069000C801B701AE01475E5F4F65DE7ED2A0960E
:1006A000E6E00C94D74AA0E2B0E0E9E5F3E00C9470
:1006B000B24A69837A838B839C832D833E834F83E5
:1006C0005887CE010196BE01675F7F4F34D3CE01BC
:1006D0000596BE016F5E7F4F2ED39985923078F0DC
:1006E00089898230C0F0943019F4823041F4CBC053
:1006F000843019F4923079F4C6C0923051F481E01C
:100700002A859A89291709F480E08A87CE010996FB
:10071000BCC0823051F481E02A859A89291709F4F6
:1007200080E08A8BCE014196B0C06D847E848F8438
:100730009888ED88FE880F89188DE0E2F0E080E06F
:1007400090E0DC01AA24BB24650120E030E0A9018F
:10075000B3016170707061157105D1F02E0D3F1DF0
:10076000401F511F15012601280E391E4A1E5B1E0F
:1007700081E090E0A0E0B0E02E153F054007510772
:1007800018F080E090E0DC01820D931DA41DB51DE2
:10079000AA0CBB1CCC1CDD1C17FF09C061E0262E77
:1007A000312C412C512CA228B328C428D5283197AC
:1007B00049F0EE0CFF1C001F111F9694879477944C
:1007C0006794C6CF6B897C89EB85FC856E0F7F1F94
:1007D0006E5F7F4F6B8F7C8F61E0EA857A89E717C8
:1007E00009F460E06A8F6B8D7C8D10C0FC01E170B4
:1007F000F070309729F056954795379527955068B2
:10080000B695A795979587956F5F7F4FB7FDEECF0C
:100810000CC0880F991FAA1FBB1F57FD8160220FB4
:10082000331F441F551F615070408030E0E09E0729
:10083000E0E0AE07E0E4BE0760F36B8F7C8F6FE70C
:10084000E62EF12C012D112DE822F9220A231B237B
:1008500060E4E616F1040105110561F487FD0AC0A4
:10086000211531054105510529F0805C9F4FAF4F9F
:10087000BF4F80788D8F9E8FAF8FB8A383E0898F15
:10088000CE01499602C08BED92E287D1A096E2E1BB
:100890000C94CB4AA8E1B0E0E0E5F4E00C94BA4A4D
:1008A00069837A838B839C832D833E834F83588710
:1008B0008E01075F1F4FCE010196B8013CD281E146
:1008C000E82EF12CEC0EFD1ECE010596B70133D2B9
:1008D0009985923008F483C08989823008F47BC0FE
:1008E0002A853A8923272A87943011F0923021F4FF
:1008F000981709F06CC071C0843039F41D861E86CB
:100900001F86188A1B861C866AC0823019F484E010
:10091000898765C08B859C852B893C89821B930BBD
:100920008B879C872D853E854F855889ED88FE886D
:100930000F89188D2E153F054007510738F4220FF7
:10094000331F441F551F01978B879C876FE170E011
:10095000A12CB12CC12CA0E4DA2E80E090E0DC01C7
:100960002E153F054007510740F08A299B29AC29E5
:10097000BD292E193F09400B510BD694C794B7944B
:10098000A794220F331F441F551F6150704041F739
:100990006FE7E62EF12C012D112DE822F9220A2312
:1009A0001B2360E4E616F1040105110561F487FDDF
:1009B0000AC0211531054105510529F0805C9F4F82
:1009C000AF4FBF4F80788D879E87AF87B88B8E01E2
:1009D000075F1F4F04C0870102C00BED12E2C80180
:1009E000DCD06896EAE00C94D34AA8E1B0E0EBEFE3
:1009F000F4E00C94BE4A69837A838B839C832D83B5
:100A00003E834F8358878E01075F1F4FCE010196AB
:100A1000B80191D181E1E82EF12CEC0EFD1ECE0142
:100A20000596B70188D18985823038F0898982306E
:100A300020F0C801B701E8D101C08FEF6896E6E069
:100A40000C94D74AA8E1B0E0E8E2F5E00C94BE4A85
:100A500069837A838B839C832D833E834F8358875E
:100A60008E01075F1F4FCE010196B80164D181E16D
:100A7000E82EF12CEC0EFD1ECE010596B7015BD1E0
:100A80008985823038F08989823020F0C801B70129
:100A9000BBD101C08FEF6896E6E00C94D74AA8E17D
:100AA000B0E0E5E5F5E00C94BE4A69837A838B8378
:100AB0009C832D833E834F8358878E01075F1F4F92
:100AC000CE010196B80137D181E1E82EF12CEC0E70
:100AD000FD1ECE010596B7012ED18985823038F0F2
:100AE0008989823020F0C801B7018ED101C081E030
:100AF0006896E6E00C94D74AACE0B0E0E2E8F5E0B6
:100B00000C94C24A69837A838B839C83CE010196BD
:100B1000BE016B5F7F4F0FD18D81823081F18230BA
:100B200070F1843021F48E81882369F10AC02F810D
:100B3000388537FD24C06E812F3131053CF06623A6
:100B400011F120E030E040E050E821C08EE190E07B
:100B5000821B930B29853A854B855C8504C056958D
:100B60004795379527958A95D2F7662381F050955A
:100B70004095309521953F4F4F4F5F4F08C020E083
:100B800030E0A90104C02FEF3FEF4FEF5FE7B9015D
:100B9000CA012C96E2E00C94DB4AEF92FF920F938D
:100BA0001F93CF93DF93FC012481358146815781C8
:100BB00061818081823020F44061EFEFF0E0A3C0DA
:100BC000843009F49BC0823009F492C021153105AC
:100BD0004105510509F48FC00280F381E02D8FEFAC
:100BE000E238F8070CF05AC0C2E8DFEFCE1BDF0B8B
:100BF000CA31D1056CF579018A010C2E04C0169515
:100C00000795F794E7940A94D2F781E090E0A0E08A
:100C1000B0E00C2E04C0880F991FAA1FBB1F0A94B6
:100C2000D2F70197A109B10982239323A423B52305
:100C300021E030E040E050E00097A105B10519F453
:100C400020E030E0A9012E293F29402B512B03C081
:100C500020E030E0A901DA01C9018F779070A0701F
:100C6000B07080349105A105B10539F427FF09C0A2
:100C7000205C3F4F4F4F5F4F04C0215C3F4F4F4FB1
:100C80005F4FE1E0F0E0203080E0380780E0480787
:100C900080E4580728F5E0E0F0E022C0E038F105F4
:100CA0006CF5E158FF4FDA01C9018F779070A070A1
:100CB000B07080349105A105B10539F427FF09C052
:100CC000205C3F4F4F4F5F4F04C0215C3F4F4F4F61
:100CD0005F4F57FF05C05695479537952795319635
:100CE00087E056954795379527958A95D1F70BC09C
:100CF000E0E0F0E005C0E0E0F0E005C0EFEFF0E09C
:100D000020E030E0A9018E2F879588278795942FC2
:100D10009F77679566276795E695E22EA92FA82B02
:100D2000FE2FF62B622F732F8A2F9F2FCDB7DEB7A2
:100D3000E6E00C94D74ADC01FB012C9111963C9122
:100D4000119712968C911297482F4F7750E0982F59
:100D5000991F9927991F13966C911397862F880FC7
:100D6000892B90E0661F6627661F6183009739F51F
:100D7000211531054105510511F482E029C082E8B1
:100D80009FEF8283938367E0220F331F441F551F19
:100D90006A95D1F783E0808309C0220F331F441F77
:100DA000551F82819381019782839383203080E055
:100DB000380780E0480780E4580778F320C08F3F69
:100DC000910579F4211531054105510519F484E0A7
:100DD0008083089544FF03C081E0808310C01082A7
:100DE0000EC08F5790408283938383E0808387E097
:100DF000220F331F441F551F8A95D1F75064248357
:100E00003583468357830895FC01DB01908192303E
:100E100008F449C08C91823008F445C0943051F4F4
:100E200061818430B1F511962C91119730E0261B29
:100E3000310941C0843021F0923041F48230B1F167
:100E400011968C9111978823A1F12DC06181823078
:100E500001F111968C9111976817D9F42281338191
:100E600012968D919C9113978217930794F02817EF
:100E70003907BCF0248135814681578114968D91C4
:100E80009D910D90BC91A02D82179307A407B507E3
:100E900018F4662341F00DC0281739074A075B078D
:100EA00028F4662331F021E030E005C020E030E096
:100EB00002C02FEF3FEFC9010895DF93CF930F9248
:100EC000CDB7DEB78FE390E0FC0180818983F89491
:100ED00089810F90CF91DF910895DF93CF930F9287
:100EE000CDB7DEB789838FE390E02981FC012083B1
:100EF0000F90CF91DF910895DF93CF930F920F92D0
:100F0000CDB7DEB78A83D9DF898380E590E020E51D
:100F100030E0F90130812A81232BFC012083898173
:100F2000DCDF0F900F90CF91DF910895DF93CF9387
:100F30000F920F92CDB7DEB78A838A81883009F08D
:100F4000FFCF80E590E022E0FC012283B6DF8983B9
:100F500080E590E020E530E0F90130812A81232B03
:100F6000FC0120838981B9DF0F900F90CF91DF9131
:100F70000895DF93CF930F920F92CDB7DEB78A8398
:100F80009CDF898380E590E020E530E0F901208155
:100F9000322F2A8120952323FC01208389819DDF24
:100FA0000F900F90CF91DF910895DF93CF930F9221
:100FB000CDB7DEB789838981883019F089819CDFBC
:100FC00002C08981B3DF0F90CF91DF910895DF9345
:100FD000CF930F92CDB7DEB7898380E590E0FC0117
:100FE00091818981982381E0992309F480E00F9011
:100FF000CF91DF910895DF93CF9300D0CDB7DEB7C7
:101000008A836B835ADF89838A81882F90E08130BD
:10101000910521F08230910541F14EC08B818430E1
:1010200021F08B81883009F0FFCF8B81883051F41B
:1010300080E590E020E530E0F90126812160FC01A7
:10104000268309C080E590E020E530E0F9012681A3
:101050002E7FFC01268388E690E028E630E0F90147
:1010600020812160FC01208328C08B81843021F005
:101070008B81883009F0FFCF8B81883051F480E577
:1010800090E020E530E0F90126812260FC01268312
:1010900009C080E590E020E530E0F90126812D7F50
:1010A000FC01268380E690E020E630E0F901208113
:1010B0002160FC01208301C0FFCF89810EDF2396D0
:1010C000CDBFDEBFCF91DF910895DF93CF930F9215
:1010D000CDB7DEB789830000898179DF982F81E061
:1010E00089278823C9F70F90CF91DF910895DF9367
:1010F000CF930F920F92CDB7DEB789836A83998120
:101100008A81292F282B81E490E0622FD1D30F9080
:101110000F90CF91DF910895DF93CF9300D00F927E
:10112000CDB7DEB780E790E089839A831B820DC03C
:1011300089819A812FEFFC01208389819A81019610
:1011400089839A838B818F5F8B838B81873080F338
:1011500084E060E0CCDF1C8282E027DF82E0B5DF44
:1011600080E490E061E0A4D380E490E0FC01808121
:10117000813009F0FFCF82E068E03DDF9C8181E0B3
:101180008927882311F081E0F4DE2496CDBFDEBFED
:10119000CF91DF910895DF93CF9300D00F92CDB719
:1011A000DEB78A839B836C8388DE89838A819B81F7
:1011B00080599F4F2A813B8120593F4FF90120815F
:1011C000322F2C8120952323FC012083898185DE09
:1011D0002496CDBFDEBFCF91DF910895DF93CF93EB
:1011E0000F92CDB7DEB789838981869586958695DE
:1011F000882F90E0C096880F991F82959295907FD6
:101200009827807F98270F90CF91DF910895DF93E3
:10121000CF930F92CDB7DEB789838981882F90E075
:101220009C012770307081E090E0022E02C0880F90
:10123000991F0A94E2F70F90CF91DF910895DF9301
:10124000CF9300D0CDB7DEB78B838B81C7DF898387
:101250009A838B81DCDF282F89819A81FC01268388
:101260002396CDBFDEBFCF91DF910895DF93CF935B
:1012700000D0CDB7DEB78B838B81B0DF89839A83B3
:101280008B81C5DF282F89819A81FC0125832396D4
:10129000CDBFDEBFCF91DF910895DF93CF9300D014
:1012A000CDB7DEB789839A836B8389819A812B813D
:1012B000FC0123832396CDBFDEBFCF91DF9108953C
:1012C000DF93CF930F920F92CDB7DEB789839A83C6
:1012D00089819A81FC0183810F900F90CF91DF91DA
:1012E0000895DF93CF930F920F92CDB7DEB7898326
:1012F0009A8389819A81FC018281881F8827881FAF
:101300000F900F90CF91DF910895DF93CF930F92BD
:101310000F92CDB7DEB789839A8389819A81FC01C8
:101320008081282F206189819A81FC0120830F9080
:101330000F90CF91DF910895DF93CF9300D00F925C
:10134000CDB7DEB789839A836B837C8389819A8149
:10135000B7DF282F8B819C81FC0120832496CDBF91
:10136000DEBFCF91DF910895DF93CF930F920F925D
:10137000CDB7DEB789839A8389819A81B2DF0F90D6
:101380000F90CF91DF910895DF93CF93CDB7DEB764
:1013900080E098E4A8EEB1E0BC01CD01CF91DF91EF
:1013A0000895DF93CF930F92CDB7DEB7198281E016
:1013B0008983EADFDC01CB012981222F30E0022E74
:1013C00004C0B695A795979587950A94D2F7BC0166
:1013D000CD010F90CF91DF910895DF93CF93CDB7DB
:1013E000DEB7DFDFDC01CB01BC01CD01CF91DF91A6
:1013F0000895DF93CF93CDB7DEB7EFDFDC01CB01EC
:10140000BC01CD01CF91DF910895DF93CF93CDB78C
:10141000DEB7EFDFDC01CB01BC01CD01CF91DF9165
:101420000895DF93CF930F920F92CDB7DEB78983E4
:101430009A8389819A8128E0803C920721F483E095
:1014400090E068E0A8DE89819A8129E0803C9207DB
:1014500021F484E090E068E09EDE89819A812AE0B0
:10146000803C920721F485E090E068E094DE898179
:101470009A812BE0803C920721F486E090E068E0BE
:101480008ADE89819A8141DF0F900F90CF91DF91A1
:101490000895CF92DF92EF92FF920F931F93DF9305
:1014A000CF93CDB7DEB72D97CDBFDEBF89839A83AB
:1014B0006B837C834D830E831F8328873987CA867D
:1014C000DB86EC86FD8689819A812B813C81B9017E
:1014D00004D19BDF8B019C0189819A814E815F81C0
:1014E000688579851FD389819A81FC018081282FA5
:1014F0008D81882F90E0880F991F880F991F8C701D
:10150000822B282F89819A81FC0120832D96CDBFC3
:10151000DEBFCF91DF911F910F91FF90EF90DF9091
:10152000CF900895DF93CF93CDB7DEB72A97CDBF85
:10153000DEBF8E839F83688779874A8719821A82E4
:1015400022C02885398589819A81820F931FFC01E9
:1015500020818E819F818B839C832D838B819C81B5
:101560006D819BDE00008E819F81FEDE982F81E0E1
:1015700089278823C1F78A8581508A8789819A8142
:10158000019689839A838A858823D9F680E090E042
:101590002A96CDBFDEBFCF91DF910895DF93CF9321
:1015A00000D000D0CDB7DEB78C839D836E838C8155
:1015B0009D8189839A838E818B8389819A816B81B6
:1015C0006CDE00008C819D81CFDE982F81E0892721
:1015D0008823C1F780E090E02696CDBFDEBFCF9193
:1015E000DF910895DF93CF9300D000D0CDB7DEB761
:1015F0008D839E838D819E8189839A838FEF8B83D8
:1016000089819A816B8149DE00008D819E81ACDEEB
:10161000982F81E089278823C1F78D819E819E01C3
:101620002C5F3F4FB90188DE8C812696CDBFDEBF8F
:10163000CF91DF910895DF93CF93CDB7DEB7299790
:10164000CDBFDEBF8C839D836E837F8348875987A0
:1016500023C08C819D8189839A838FEF8B838981BD
:101660009A816B811ADE00008C819D817DDE982F2E
:1016700081E089278823C1F78C819D812E813F815C
:10168000B9015ADE888599850197888799878E8167
:101690009F8101968E839F83888599850097C9F6DF
:1016A00080E090E02996CDBFDEBFCF91DF91089515
:1016B000DF93CF9300D00F92CDB7DEB789839A83A3
:1016C0006B837C838B819C81FC018081B8DD2496B7
:1016D000CDBFDEBFCF91DF910895DF93CF9300D0D0
:1016E0000F92CDB7DEB789839A836B837C838B811E
:1016F0009C81FC018081BADD2496CDBFDEBFCF91F5
:10170000DF910895DF93CF930F92CDB7DEB7898332
:101710008981869586958695882F90E0C096880F5A
:10172000991F82959295907F9827807F98270F9098
:10173000CF91DF910895DF93CF930F92CDB7DEB7AE
:1017400089838981882F90E09C012770307081E027
:1017500090E0022E02C0880F991F0A94E2F70F90C2
:10176000CF91DF9108950F931F93DF93CF9300D014
:10177000CDB7DEB789836A837B838981C3DF8C0120
:101780008981D9DF482F2A813B81C801642FA901B3
:1017900095D02396CDBFDEBFCF91DF911F910F91E2
:1017A0000895DF93CF93CDB7DEB780E260E073E0BA
:1017B000DADF81E260E073E0D6DF82E260E073E0CE
:1017C000D2DF83E260E073E0CEDF84E260E073E0CA
:1017D000CADF85E260E073E0C6DF86E260E073E0C6
:1017E000C2DF87E260E073E0BEDF88E268E170E0BC
:1017F000BADF89E268E170E0B6DF8AE268E170E0B2
:10180000B2DF8BE268E170E0AEDF8CE268E170E0AD
:10181000AADF8DE268E170E0A6DF8EE268E170E0A9
:10182000A2DF8FE268E170E09EDF83E160E070E0BC
:101830009ADF84E160E073E096DF87E160E073E0C7
:1018400092DF85E160E073E08EDF86E160E070E0CA
:101850008ADF83E160E070E086DF8CE160E073E0C6
:1018600082DF8FE160E073E07EDF8DE160E073E0B6
:101870007ADF88E160E073E076DF8BE160E073E0BF
:1018800072DF8EE160E070E06EDF8AE169E170E0B6
:101890006ADF80E060E070E066DF82E060E070E0D8
:1018A00062DF89E060E070E05EDFCF91DF91089554
:1018B0001BBEFC0128ED24BF60830895DF93CF9306
:1018C00000D000D0CDB7DEB78A839B836C834D8375
:1018D0005E8319821EC08C81882F90E02981222F7F
:1018E00030E0022E02C0959587950A94E2F7817048
:1018F0009070882359F02A813B818981882F90E05C
:101900004096820F931F2D81FC01208389818F5F78
:10191000898389818830F8F28D819E8180709170F1
:101920000097D1F08D819E8180709270009739F080
:101930008A819B8105962C81FC01208306C08A81C7
:101940009B8106962C81FC0120838A819B810196D4
:101950002C81FC01208306C08A819B8102962C8108
:10196000FC0120832696CDBFDEBFCF91DF91089585
:101970001F920F920FB60F92009038000F92112411
:10198000109238008F939F93DF93CF93CDB7DEB73C
:101990008091C0239091C12301968093C02390939E
:1019A000C123CF91DF919F918F910F9000923800CA
:1019B0000F900FBE0F901F9018951F920F920FB6A9
:1019C0000F92009038000F92009039000F92009013
:1019D0003B000F921124109238001092390010929F
:1019E0003B002F933F934F935F936F937F938F931E
:1019F0009F93AF93BF93EF93FF93DF93CF93CDB7B5
:101A0000DEB72897CDBFDEBF2091C0233091C12320
:101A10008091C2239091C3232817390708F463C02B
:101A200080E094E021E0FC0122838091C623909124
:101A3000C723009709F457C08091C0239091C12318
:101A4000CC01A0E0B0E0AC013327222780E094E095
:101A5000FC0180859185CC01A0E0B0E0822B932B26
:101A6000A42BB52B89839A83AB83BC838091C2233B
:101A70009091C323CC01A0E0B0E0AC013327222732
:101A80008091C4239091C523CC01A0E0B0E0822BCB
:101A9000932BA42BB52B8D839E83AF83B8872D8189
:101AA0003E814F81588589819A81AB81BC812817FD
:101AB00039074A075B0758F08D819E81AF81B88551
:101AC0000196A11DB11D89839A83AB83BC832091AC
:101AD000C6233091C72389819A81AB81BC81BC0127
:101AE000CD01F90119952896CDBFDEBFCF91DF91C9
:101AF000FF91EF91BF91AF919F918F917F916F91E6
:101B00005F914F913F912F910F9000923B000F906A
:101B1000009239000F90009238000F900FBE0F9086
:101B20001F9018950F931F93DF93CF93CDB7DEB718
:101B30006297CDBFDEBF89879A874B875C876D87A9
:101B40007E870F87188B298B3A8B8F859889A98977
:101B5000BA8928EE33E040E050E0BC01CD010E949C
:101B6000904A29833A834B835C838B859C85AD8522
:101B7000BE8528EE33E040E050E0BC01CD010E947C
:101B8000904A2D833E834F83588789819A81AB8108
:101B9000BC812D813E814F815885BC01CD010E94C1
:101BA000904ADA01C90180319105A105B10509F416
:101BB00049C081319105A105B10580F484309105BA
:101BC000A105B10549F188309105A105B10571F173
:101BD00082309105A105B10599F064C0803491056A
:101BE000A105B10509F446C080389105A105B105EC
:101BF00009F44CC080329105A105B10579F152C0BC
:101C000089859A85FC018081282F206889859A859D
:101C1000FC01208381E047C089859A85FC012081F1
:101C200089859A85FC01208381E03DC089859A855C
:101C3000FC018081282F216889859A85FC012083F9
:101C400081E031C089859A85FC018081282F21603F
:101C500089859A85FC01208381E025C089859A8544
:101C6000FC018081282F226889859A85FC012083C8
:101C700081E019C089859A85FC018081282F226026
:101C800089859A85FC01208381E00DC089859A852C
:101C9000FC018081282F236089859A85FC0120839F
:101CA00081E001C08FEF6296CDBFDEBFCF91DF91A3
:101CB0001F910F910895DF93CF930F92CDB7DEB7A9
:101CC0008FE390E0FC0180818983F89489810F90F3
:101CD000CF91DF910895DF93CF930F92CDB7DEB709
:101CE00089838FE390E02981FC0120830F90CF91BD
:101CF000DF910895DF93CF9300D0CDB7DEB78A830D
:101D00009B838A819B8186549C4DFC0180818F3FFF
:101D100009F4FFCFD0DF89838A819B8186549C4D53
:101D2000FC018081282F2F5F8A819B8186549C4DE6
:101D3000FC0120838981CFDF2396CDBFDEBFCF9109
:101D4000DF9108951F920F920FB60F920090380006
:101D50000F92009039000F9200903B000F921124D7
:101D6000109238001092390010923B002F933F934D
:101D70004F935F936F937F938F939F93AF93BF9393
:101D8000EF93FF93DF93CF93CDB7DEB78091F82227
:101D90009091F922009731F08091F8229091F922E8
:101DA000FC011995CF91DF91FF91EF91BF91AF9118
:101DB0009F918F917F916F915F914F913F912F9163
:101DC0000F9000923B000F90009239000F9000920C
:101DD00038000F900FBE0F901F9018951F920F9212
:101DE0000FB60F92009038000F92009039000F92BA
:101DF00000903B000F92112410923800109239008D
:101E000010923B002F933F934F935F936F937F9379
:101E10008F939F93AF93BF93EF93FF93DF93CF93F2
:101E2000CDB7DEB78091FA229091FB22009731F076
:101E30008091FA229091FB22FC011995CF91DF91BC
:101E4000FF91EF91BF91AF919F918F917F916F9192
:101E50005F914F913F912F910F9000923B000F9017
:101E6000009239000F90009238000F900FBE0F9033
:101E70001F9018951F920F920FB60F920090380086
:101E80000F92009039000F9200903B000F921124A6
:101E9000109238001092390010923B002F933F931C
:101EA0004F935F936F937F938F939F93AF93BF9362
:101EB000EF93FF93DF93CF93CDB7DEB78091FC22F2
:101EC0009091FD22009731F08091FC229091FD22AB
:101ED000FC011995CF91DF91FF91EF91BF91AF91E7
:101EE0009F918F917F916F915F914F913F912F9132
:101EF0000F9000923B000F90009239000F900092DB
:101F000038000F900FBE0F901F9018951F920F92E0
:101F10000FB60F92009038000F92009039000F9288
:101F200000903B000F92112410923800109239005B
:101F300010923B002F933F934F935F936F937F9348
:101F40008F939F93AF93BF93EF93FF93DF93CF93C1
:101F5000CDB7DEB78091FE229091FF22009731F03D
:101F60008091FE229091FF22FC011995CF91DF9183
:101F7000FF91EF91BF91AF919F918F917F916F9161
:101F80005F914F913F912F910F9000923B000F90E6
:101F9000009239000F90009238000F900FBE0F9002
:101FA0001F9018951F920F920FB60F920090380055
:101FB0000F92009039000F9200903B000F92112475
:101FC000109238001092390010923B002F933F93EB
:101FD0004F935F936F937F938F939F93AF93BF9331
:101FE000EF93FF93DF93CF93CDB7DEB780910023BC
:101FF00090910123009731F080910023909101236B
:10200000FC011995CF91DF91FF91EF91BF91AF91B5
:102010009F918F917F916F915F914F913F912F9100
:102020000F9000923B000F90009239000F900092A9
:1020300038000F900FBE0F901F9018951F920F92AF
:102040000FB60F92009038000F92009039000F9257
:1020500000903B000F92112410923800109239002A
:1020600010923B002F933F934F935F936F937F9317
:102070008F939F93AF93BF93EF93FF93DF93CF9390
:10208000CDB7DEB78091022390910323009731F002
:102090008091022390910323FC011995CF91DF9148
:1020A000FF91EF91BF91AF919F918F917F916F9130
:1020B0005F914F913F912F910F9000923B000F90B5
:1020C000009239000F90009238000F900FBE0F90D1
:1020D0001F9018951F920F920FB60F920090380024
:1020E0000F92009039000F9200903B000F92112444
:1020F000109238001092390010923B002F933F93BA
:102100004F935F936F937F938F939F93AF93BF93FF
:10211000EF93FF93DF93CF93CDB7DEB78091042386
:1021200090910523009731F080910423909105232D
:10213000FC011995CF91DF91FF91EF91BF91AF9184
:102140009F918F917F916F915F914F913F912F91CF
:102150000F9000923B000F90009239000F90009278
:1021600038000F900FBE0F901F9018951F920F927E
:102170000FB60F92009038000F92009039000F9226
:1021800000903B000F9211241092380010923900F9
:1021900010923B002F933F934F935F936F937F93E6
:1021A0008F939F93AF93BF93EF93FF93DF93CF935F
:1021B000CDB7DEB78091062390910723009731F0C9
:1021C0008091062390910723FC011995CF91DF910F
:1021D000FF91EF91BF91AF919F918F917F916F91FF
:1021E0005F914F913F912F910F9000923B000F9084
:1021F000009239000F90009238000F900FBE0F90A0
:102200001F9018951F920F920FB60F9200903800F2
:102210000F92009039000F9200903B000F92112412
:10222000109238001092390010923B002F933F9388
:102230004F935F936F937F938F939F93AF93BF93CE
:10224000EF93FF93DF93CF93CDB7DEB78091082351
:1022500090910923009731F08091082390910923F0
:10226000FC011995CF91DF91FF91EF91BF91AF9153
:102270009F918F917F916F915F914F913F912F919E
:102280000F9000923B000F90009239000F90009247
:1022900038000F900FBE0F901F9018951F920F924D
:1022A0000FB60F92009038000F92009039000F92F5
:1022B00000903B000F9211241092380010923900C8
:1022C00010923B002F933F934F935F936F937F93B5
:1022D0008F939F93AF93BF93EF93FF93DF93CF932E
:1022E000CDB7DEB780910A2390910B23009731F090
:1022F00080910A2390910B23FC011995CF91DF91D6
:10230000FF91EF91BF91AF919F918F917F916F91CD
:102310005F914F913F912F910F9000923B000F9052
:10232000009239000F90009238000F900FBE0F906E
:102330001F9018951F920F920FB60F9200903800C1
:102340000F92009039000F9200903B000F921124E1
:10235000109238001092390010923B002F933F9357
:102360004F935F936F937F938F939F93AF93BF939D
:10237000EF93FF93DF93CF93CDB7DEB780910C231C
:1023800090910D23009731F080910C2390910D23B3
:10239000FC011995CF91DF91FF91EF91BF91AF9122
:1023A0009F918F917F916F915F914F913F912F916D
:1023B0000F9000923B000F90009239000F90009216
:1023C00038000F900FBE0F901F9018951F920F921C
:1023D0000FB60F92009038000F92009039000F92C4
:1023E00000903B000F921124109238001092390097
:1023F00010923B002F933F934F935F936F937F9384
:102400008F939F93AF93BF93EF93FF93DF93CF93FC
:10241000CDB7DEB780910E2390910F23009731F056
:1024200080910E2390910F23FC011995CF91DF919C
:10243000FF91EF91BF91AF919F918F917F916F919C
:102440005F914F913F912F910F9000923B000F9021
:10245000009239000F90009238000F900FBE0F903D
:102460001F9018951F920F920FB60F920090380090
:102470000F92009039000F9200903B000F921124B0
:10248000109238001092390010923B002F933F9326
:102490004F935F936F937F938F939F93AF93BF936C
:1024A000EF93FF93DF93CF93CDB7DEB780911023E7
:1024B00090911123009731F0809110239091112376
:1024C000FC011995CF91DF91FF91EF91BF91AF91F1
:1024D0009F918F917F916F915F914F913F912F913C
:1024E0000F9000923B000F90009239000F900092E5
:1024F00038000F900FBE0F901F9018951F920F92EB
:102500000FB60F92009038000F92009039000F9292
:1025100000903B000F921124109238001092390065
:1025200010923B002F933F934F935F936F937F9352
:102530008F939F93AF93BF93EF93FF93DF93CF93CB
:10254000CDB7DEB78091122390911323009731F01D
:102550008091122390911323FC011995CF91DF9163
:10256000FF91EF91BF91AF919F918F917F916F916B
:102570005F914F913F912F910F9000923B000F90F0
:10258000009239000F90009238000F900FBE0F900C
:102590001F9018951F920F920FB60F92009038005F
:1025A0000F92009039000F9200903B000F9211247F
:1025B000109238001092390010923B002F933F93F5
:1025C0004F935F936F937F938F939F93AF93BF933B
:1025D000EF93FF93DF93CF93CDB7DEB780911423B2
:1025E00090911523009731F0809114239091152339
:1025F000FC011995CF91DF91FF91EF91BF91AF91C0
:102600009F918F917F916F915F914F913F912F910A
:102610000F9000923B000F90009239000F900092B3
:1026200038000F900FBE0F901F9018951F920F92B9
:102630000FB60F92009038000F92009039000F9261
:1026400000903B000F921124109238001092390034
:1026500010923B002F933F934F935F936F937F9321
:102660008F939F93AF93BF93EF93FF93DF93CF939A
:10267000CDB7DEB78091162390911723009731F0E4
:102680008091162390911723FC011995CF91DF912A
:10269000FF91EF91BF91AF919F918F917F916F913A
:1026A0005F914F913F912F910F9000923B000F90BF
:1026B000009239000F90009238000F900FBE0F90DB
:1026C0001F9018951F920F920FB60F92009038002E
:1026D0000F92009039000F9200903B000F9211244E
:1026E000109238001092390010923B002F933F93C4
:1026F0004F935F936F937F938F939F93AF93BF930A
:10270000EF93FF93DF93CF93CDB7DEB7809118237C
:1027100090911923009731F08091182390911923FB
:10272000FC011995CF91DF91FF91EF91BF91AF918E
:102730009F918F917F916F915F914F913F912F91D9
:102740000F9000923B000F90009239000F90009282
:1027500038000F900FBE0F901F9018951F920F9288
:102760000FB60F92009038000F92009039000F9230
:1027700000903B000F921124109238001092390003
:1027800010923B002F933F934F935F936F937F93F0
:102790008F939F93AF93BF93EF93FF93DF93CF9369
:1027A000CDB7DEB780911A2390911B23009731F0AB
:1027B00080911A2390911B23FC011995CF91DF91F1
:1027C000FF91EF91BF91AF919F918F917F916F9109
:1027D0005F914F913F912F910F9000923B000F908E
:1027E000009239000F90009238000F900FBE0F90AA
:1027F0001F9018951F920F920FB60F9200903800FD
:102800000F92009039000F9200903B000F9211241C
:10281000109238001092390010923B002F933F9392
:102820004F935F936F937F938F939F93AF93BF93D8
:10283000EF93FF93DF93CF93CDB7DEB780911C2347
:1028400090911D23009731F080911C2390911D23BE
:10285000FC011995CF91DF91FF91EF91BF91AF915D
:102860009F918F917F916F915F914F913F912F91A8
:102870000F9000923B000F90009239000F90009251
:1028800038000F900FBE0F901F9018951F920F9257
:102890000FB60F92009038000F92009039000F92FF
:1028A00000903B000F9211241092380010923900D2
:1028B00010923B002F933F934F935F936F937F93BF
:1028C0008F939F93AF93BF93EF93FF93DF93CF9338
:1028D000CDB7DEB780911E2390911F23009731F072
:1028E00080911E2390911F23FC011995CF91DF91B8
:1028F000FF91EF91BF91AF919F918F917F916F91D8
:102900005F914F913F912F910F9000923B000F905C
:10291000009239000F90009238000F900FBE0F9078
:102920001F9018951F920F920FB60F9200903800CB
:102930000F92009039000F9200903B000F921124EB
:10294000109238001092390010923B002F933F9361
:102950004F935F936F937F938F939F93AF93BF93A7
:10296000EF93FF93DF93CF93CDB7DEB78091202312
:1029700090912123009731F0809120239091212381
:10298000FC011995CF91DF91FF91EF91BF91AF912C
:102990009F918F917F916F915F914F913F912F9177
:1029A0000F9000923B000F90009239000F90009220
:1029B00038000F900FBE0F901F9018951F920F9226
:1029C0000FB60F92009038000F92009039000F92CE
:1029D00000903B000F9211241092380010923900A1
:1029E00010923B002F933F934F935F936F937F938E
:1029F0008F939F93AF93BF93EF93FF93DF93CF9307
:102A0000CDB7DEB78091222390912323009731F038
:102A10008091222390912323FC011995CF91DF917E
:102A2000FF91EF91BF91AF919F918F917F916F91A6
:102A30005F914F913F912F910F9000923B000F902B
:102A4000009239000F90009238000F900FBE0F9047
:102A50001F9018951F920F920FB60F92009038009A
:102A60000F92009039000F9200903B000F921124BA
:102A7000109238001092390010923B002F933F9330
:102A80004F935F936F937F938F939F93AF93BF9376
:102A9000EF93FF93DF93CF93CDB7DEB780912423DD
:102AA00090912523009731F0809124239091252344
:102AB000FC011995CF91DF91FF91EF91BF91AF91FB
:102AC0009F918F917F916F915F914F913F912F9146
:102AD0000F9000923B000F90009239000F900092EF
:102AE00038000F900FBE0F901F9018951F920F92F5
:102AF0000FB60F92009038000F92009039000F929D
:102B000000903B000F92112410923800109239006F
:102B100010923B002F933F934F935F936F937F935C
:102B20008F939F93AF93BF93EF93FF93DF93CF93D5
:102B3000CDB7DEB78091262390912723009731F0FF
:102B40008091262390912723FC011995CF91DF9145
:102B5000FF91EF91BF91AF919F918F917F916F9175
:102B60005F914F913F912F910F9000923B000F90FA
:102B7000009239000F90009238000F900FBE0F9016
:102B80001F9018951F920F920FB60F920090380069
:102B90000F92009039000F9200903B000F92112489
:102BA000109238001092390010923B002F933F93FF
:102BB0004F935F936F937F938F939F93AF93BF9345
:102BC000EF93FF93DF93CF93CDB7DEB780912823A8
:102BD00090912923009731F0809128239091292307
:102BE000FC011995CF91DF91FF91EF91BF91AF91CA
:102BF0009F918F917F916F915F914F913F912F9115
:102C00000F9000923B000F90009239000F900092BD
:102C100038000F900FBE0F901F9018951F920F92C3
:102C20000FB60F92009038000F92009039000F926B
:102C300000903B000F92112410923800109239003E
:102C400010923B002F933F934F935F936F937F932B
:102C50008F939F93AF93BF93EF93FF93DF93CF93A4
:102C6000CDB7DEB780912A2390912B23009731F0C6
:102C700080912A2390912B23FC011995CF91DF910C
:102C8000FF91EF91BF91AF919F918F917F916F9144
:102C90005F914F913F912F910F9000923B000F90C9
:102CA000009239000F90009238000F900FBE0F90E5
:102CB0001F9018951F920F920FB60F920090380038
:102CC0000F92009039000F9200903B000F92112458
:102CD000109238001092390010923B002F933F93CE
:102CE0004F935F936F937F938F939F93AF93BF9314
:102CF000EF93FF93DF93CF93CDB7DEB780912C2373
:102D000090912D23009731F080912C2390912D23C9
:102D1000FC011995CF91DF91FF91EF91BF91AF9198
:102D20009F918F917F916F915F914F913F912F91E3
:102D30000F9000923B000F90009239000F9000928C
:102D400038000F900FBE0F901F9018951F920F9292
:102D50000FB60F92009038000F92009039000F923A
:102D600000903B000F92112410923800109239000D
:102D700010923B002F933F934F935F936F937F93FA
:102D80008F939F93AF93BF93EF93FF93DF93CF9373
:102D9000CDB7DEB780912E2390912F23009731F08D
:102DA00080912E2390912F23FC011995CF91DF91D3
:102DB000FF91EF91BF91AF919F918F917F916F9113
:102DC0005F914F913F912F910F9000923B000F9098
:102DD000009239000F90009238000F900FBE0F90B4
:102DE0001F9018951F920F920FB60F920090380007
:102DF0000F92009039000F9200903B000F92112427
:102E0000109238001092390010923B002F933F939C
:102E10004F935F936F937F938F939F93AF93BF93E2
:102E2000EF93FF93DF93CF93CDB7DEB7809130233D
:102E300090913123009731F080913023909131238C
:102E4000FC011995CF91DF91FF91EF91BF91AF9167
:102E50009F918F917F916F915F914F913F912F91B2
:102E60000F9000923B000F90009239000F9000925B
:102E700038000F900FBE0F901F9018951F920F9261
:102E80000FB60F92009038000F92009039000F9209
:102E900000903B000F9211241092380010923900DC
:102EA00010923B002F933F934F935F936F937F93C9
:102EB0008F939F93AF93BF93EF93FF93DF93CF9342
:102EC000CDB7DEB78091322390913323009731F054
:102ED0008091322390913323FC011995CF91DF919A
:102EE000FF91EF91BF91AF919F918F917F916F91E2
:102EF0005F914F913F912F910F9000923B000F9067
:102F0000009239000F90009238000F900FBE0F9082
:102F10001F9018951F920F920FB60F9200903800D5
:102F20000F92009039000F9200903B000F921124F5
:102F3000109238001092390010923B002F933F936B
:102F40004F935F936F937F938F939F93AF93BF93B1
:102F5000EF93FF93DF93CF93CDB7DEB78091342308
:102F600090913523009731F080913423909135234F
:102F7000FC011995CF91DF91FF91EF91BF91AF9136
:102F80009F918F917F916F915F914F913F912F9181
:102F90000F9000923B000F90009239000F9000922A
:102FA00038000F900FBE0F901F9018951F920F9230
:102FB0000FB60F92009038000F92009039000F92D8
:102FC00000903B000F9211241092380010923900AB
:102FD00010923B002F933F934F935F936F937F9398
:102FE0008F939F93AF93BF93EF93FF93DF93CF9311
:102FF000CDB7DEB78091362390913723009731F01B
:103000008091362390913723FC011995CF91DF9160
:10301000FF91EF91BF91AF919F918F917F916F91B0
:103020005F914F913F912F910F9000923B000F9035
:10303000009239000F90009238000F900FBE0F9051
:103040001F9018951F920F920FB60F9200903800A4
:103050000F92009039000F9200903B000F921124C4
:10306000109238001092390010923B002F933F933A
:103070004F935F936F937F938F939F93AF93BF9380
:10308000EF93FF93DF93CF93CDB7DEB780913823D3
:1030900090913923009731F0809138239091392312
:1030A000FC011995CF91DF91FF91EF91BF91AF9105
:1030B0009F918F917F916F915F914F913F912F9150
:1030C0000F9000923B000F90009239000F900092F9
:1030D00038000F900FBE0F901F9018951F920F92FF
:1030E0000FB60F92009038000F92009039000F92A7
:1030F00000903B000F92112410923800109239007A
:1031000010923B002F933F934F935F936F937F9366
:103110008F939F93AF93BF93EF93FF93DF93CF93DF
:10312000CDB7DEB780913A2390913B23009731F0E1
:1031300080913A2390913B23FC011995CF91DF9127
:10314000FF91EF91BF91AF919F918F917F916F917F
:103150005F914F913F912F910F9000923B000F9004
:10316000009239000F90009238000F900FBE0F9020
:103170001F9018951F920F920FB60F920090380073
:103180000F92009039000F9200903B000F92112493
:10319000109238001092390010923B002F933F9309
:1031A0004F935F936F937F938F939F93AF93BF934F
:1031B000EF93FF93DF93CF93CDB7DEB780913C239E
:1031C00090913D23009731F080913C2390913D23D5
:1031D000FC011995CF91DF91FF91EF91BF91AF91D4
:1031E0009F918F917F916F915F914F913F912F911F
:1031F0000F9000923B000F90009239000F900092C8
:1032000038000F900FBE0F901F9018951F920F92CD
:103210000FB60F92009038000F92009039000F9275
:1032200000903B000F921124109238001092390048
:1032300010923B002F933F934F935F936F937F9335
:103240008F939F93AF93BF93EF93FF93DF93CF93AE
:10325000CDB7DEB780913E2390913F23009731F0A8
:1032600080913E2390913F23FC011995CF91DF91EE
:10327000FF91EF91BF91AF919F918F917F916F914E
:103280005F914F913F912F910F9000923B000F90D3
:10329000009239000F90009238000F900FBE0F90EF
:1032A0001F9018951F920F920FB60F920090380042
:1032B0000F92009039000F9200903B000F92112462
:1032C000109238001092390010923B002F933F93D8
:1032D0004F935F936F937F938F939F93AF93BF931E
:1032E000EF93FF93DF93CF93CDB7DEB78091402369
:1032F00090914123009731F0809140239091412398
:10330000FC011995CF91DF91FF91EF91BF91AF91A2
:103310009F918F917F916F915F914F913F912F91ED
:103320000F9000923B000F90009239000F90009296
:1033300038000F900FBE0F901F9018951F920F929C
:103340000FB60F92009038000F92009039000F9244
:1033500000903B000F921124109238001092390017
:1033600010923B002F933F934F935F936F937F9304
:103370008F939F93AF93BF93EF93FF93DF93CF937D
:10338000CDB7DEB78091422390914323009731F06F
:103390008091422390914323FC011995CF91DF91B5
:1033A000FF91EF91BF91AF919F918F917F916F911D
:1033B0005F914F913F912F910F9000923B000F90A2
:1033C000009239000F90009238000F900FBE0F90BE
:1033D0001F9018951F920F920FB60F920090380011
:1033E0000F92009039000F9200903B000F92112431
:1033F000109238001092390010923B002F933F93A7
:103400004F935F936F937F938F939F93AF93BF93EC
:10341000EF93FF93DF93CF93CDB7DEB78091442333
:1034200090914523009731F080914423909145235A
:10343000FC011995CF91DF91FF91EF91BF91AF9171
:103440009F918F917F916F915F914F913F912F91BC
:103450000F9000923B000F90009239000F90009265
:1034600038000F900FBE0F901F9018951F920F926B
:103470000FB60F92009038000F92009039000F9213
:1034800000903B000F9211241092380010923900E6
:1034900010923B002F933F934F935F936F937F93D3
:1034A0008F939F93AF93BF93EF93FF93DF93CF934C
:1034B000CDB7DEB78091462390914723009731F036
:1034C0008091462390914723FC011995CF91DF917C
:1034D000FF91EF91BF91AF919F918F917F916F91EC
:1034E0005F914F913F912F910F9000923B000F9071
:1034F000009239000F90009238000F900FBE0F908D
:103500001F901895DF93CF9300D0CDB7DEB78A8395
:103510009B830E945B0E89838A819B8128E0803097
:10352000920759F483E090E061E00E94CB0883E0C9
:1035300090E064E00E94CB087BC08A819B8128E0F8
:103540008034920759F483E090E062E00E94CB0857
:1035500083E090E064E00E94CB086AC08A819B818E
:1035600029E08030920759F484E090E061E00E9405
:10357000CB0884E090E064E00E94CB0859C08A81C7
:103580009B8129E08034920759F484E090E062E066
:103590000E94CB0884E090E064E00E94CB0848C021
:1035A0008A819B812AE08030920759F485E090E07F
:1035B00061E00E94CB0885E090E064E00E94CB08C7
:1035C00037C08A819B812AE08034920759F485E0D4
:1035D00090E062E00E94CB0885E090E064E00E9409
:1035E000CB0826C08A819B812BE08030920759F45A
:1035F00086E090E061E00E94CB0886E090E064E025
:103600000E94CB0815C08A819B812BE080349207F1
:1036100059F486E090E062E00E94CB0886E090E0FA
:1036200064E00E94CB0804C089810E946B0E07C031
:1036300081E090E00E947A0E89810E946B0E2396B1
:10364000CDBFDEBFCF91DF910895DF93CF9300D040
:103650000F92CDB7DEB789839A836B837C83898190
:103660009A8128E08030920739F48B819C81809385
:10367000FC229093FD225AC089819A8128E08034EF
:10368000920739F48B819C818093082390930923BE
:103690004DC089819A8129E08030920739F48B816D
:1036A0009C81809310239093112340C089819A813B
:1036B00029E08034920739F48B819C8180931C230C
:1036C00090931D2333C089819A812AE0803092072C
:1036D00039F48B819C81809324239093252326C0E9
:1036E00089819A812AE08034920739F48B819C8108
:1036F000809330239093312319C089819A812BE0E4
:103700008030920739F48B819C8180933823909389
:1037100039230CC089819A812BE08034920731F4DF
:103720008B819C8180934423909345232496CDBF25
:10373000DEBFCF91DF910895DF93CF930F920F9269
:10374000CDB7DEB789839A8389819A81FC01108283
:1037500011820F900F90CF91DF910895DF93CF9357
:1037600000D00F92CDB7DEB78B839C838B819C8179
:10377000FC0180819181009719F480E090E018C0ED
:103780008B819C81FC018081918189839A8307C010
:1037900089819A81FC018081918189839A838981C1
:1037A0009A81FC0180819181009791F789819A81AA
:1037B0002496CDBFDEBFCF91DF910895DF93CF93E5
:1037C00000D000D0CDB7DEB78B839C836D837E8322
:1037D0008D819E81FC01108211828B819C81BEDFD4
:1037E00089839A8389819A81009741F48B819C8196
:1037F0002D813E81FC012083318307C02D813E81D4
:1038000089819A81FC01208331832696CDBFDEBF5A
:10381000CF91DF910895DF93CF9300D00F92CDB772
:10382000DEB78B839C838B819C81FC01808191819D
:1038300089839A838B819C81FC018081918100978F
:1038400069F08B819C81FC0180819181FC01208148
:1038500031818B819C81FC012083318389819A8114
:103860002496CDBFDEBFCF91DF910895DF93CF9334
:10387000CDB7DEB72897CDBFDEBF8D839E836F8324
:1038800078878D819E81FC0180819181009709F468
:1038900040C01B821C828D819E81FC0180819181B0
:1038A00089839A8331C029813A818F81988528172D
:1038B0003907F9F48B819C81009759F489819A81A9
:1038C000FC01208131818D819E81FC012083318327
:1038D0000AC089819A81FC01208131818B819C8180
:1038E000FC012083318389819A81FC01108211823D
:1038F00011C089819A818B839C8389819A81FC0183
:103900008081918189839A8389819A81009759F670
:1039100001C000002896CDBFDEBFCF91DF91089592
:10392000DF93CF9300D000D0CDB7DEB78D839E83D9
:103930001B821C828D819E81FC0180819181898303
:103940009A8314C08B819C81853191051CF08B81F9
:103950009C8112C08B819C8101968B839C83898181
:103960009A81FC018081918189839A8389819A81DE
:10397000009741F78B819C812696CDBFDEBFCF910A
:10398000DF910895DF93CF93CDB7DEB780EA90E063
:1039900027E0FC012283CF91DF910895EF92FF92FF
:1039A0000F93DF93CF93CDB7DEB7A197CDBFDEBF27
:1039B0000E94D10B0E948C080CD3E4DF85D064D028
:1039C00000D08DB79EB7019625E0FC01208320E052
:1039D00030E2FC01218332838ED00F900F900F9044
:1039E0000E947A4A80E496E020E436E0F9012285DC
:1039F0002860FC01228780E496E020E436E0F901AB
:103A000021852160FC01218780E496E020E436E0F6
:103A1000F90123892260FC01238B78948EEB9AEBC9
:103A20008A879B871A821B8282E0898382E291E1E6
:103A30008D8B9E8B89E98D8789E98E8789E98F87B0
:103A400089E9888B89E9898B89E98A8B89E98B8B5C
:103A500089E98C8B83E08C87FE017796CE010196F5
:103A600040E050E0BA012BE00EE87F010E944E2DAD
:103A70001CD080E090E0A196CDBFDEBFCF91DF915A
:103A80000F91FF90EF900895DF93CF93CDB7DEB7FE
:103A90000E94F125CF91DF910895DF93CF93CDB7A9
:103AA000DEB70BD00E94FE25FDCFDF93CF93CDB7BD
:103AB000DEB7F3DFCF91DF910895DF93CF93CDB7DA
:103AC000DEB7CF91DF910895DF93CF93CDB7DEB707
:103AD00000D08DB79EB7019625E0FC01208321E13F
:103AE00030E2FC012183328306D00F900F900F90BB
:103AF000CF91DF910895DF93CF9300D000D0CDB761
:103B0000DEB7CE010F968D839E830E944C268B8359
:103B10009C838B819C818C5B9F4F24E0FC012083E4
:103B20008B819C818A5B9F4F22E0FC0120838B81EB
:103B30009C81895B9F4F22E0FC0120838C858B3028
:103B400008F059C08D859E85FC018081882309F489
:103B500052C08B819C81009709F44DC08B819C8160
:103B60008B5B9F4FFC0110828B819C810296898325
:103B70009A838B819C8102962D813E814D855E8545
:103B8000BA01A9010E946D4C13C08B819C818B5B93
:103B90009F4FFC018081282F2F5F8B819C818B5B45
:103BA0009F4FFC01208389819A81019689839A83A2
:103BB00089819A81FC018081882339F78B819C81DE
:103BC0008B5B9F4FFC018081882F90E02B813C8193
:103BD000820F931F0296FC0110828B819C818B5B6C
:103BE0009F4FFC018081282F2F5F8B819C818B5BF5
:103BF0009F4FFC0120838B819C810E9436268B8104
:103C00009C8110D22696CDBFDEBFCF91DF91089563
:103C1000DF93CF930F92CDB7DEB7898389818695E5
:103C200086958695882F90E0C096880F991F82957B
:103C30009295907F9827807F98270F90CF91DF9162
:103C40000895DF93CF930F92CDB7DEB78983898133
:103C5000882F90E09C012770307081E090E0022E68
:103C600002C0880F991F0A94E2F70F90CF91DF915D
:103C70000895DF93CF9300D00F92CDB7DEB78B833B
:103C80006C838B81C5DF89839A838C81882341F083
:103C90008B81D7DF282F89819A81FC01258307C07A
:103CA0008B81CFDF282F89819A81FC01268324967E
:103CB000CDBFDEBFCF91DF910895DF93CF9300D0CA
:103CC0000F92CDB7DEB78C838C81BBDF89838C816B
:103CD0009FDF8A839B838A819B812981FC012783C3
:103CE0002496CDBFDEBFCF91DF910895DF93CF93B0
:103CF0000F920F92CDB7DEB789839A8389819A811B
:103D0000895B9F4FFC018081882F90E08230910574
:103D100009F454C0833091050CF074C0009721F071
:103D20008130910531F16FC089819A81FC018281D6
:103D30006FD061E09EDF89819A81FC018281282F0A
:103D400030E000D00F920F928DB79EB7019644E1FC
:103D5000FC01408340E750E2FC0141835283FC01B7
:103D600023833483C8DE0F900F900F900F900F9035
:103D70004AC089819A81FC0182814AD060E079DF62
:103D800089819A81FC018281282F30E000D00F9236
:103D90000F928DB79EB7019644E1FC01408349E83C
:103DA00050E2FC0141835283FC0123833483A3DE70
:103DB0000F900F900F900F900F9025C089819A81DE
:103DC000FC01828125D079DF89819A81FC01828181
:103DD000282F30E000D00F920F928DB79EB701963A
:103DE00044E1FC01408341EA50E2FC0141835283FB
:103DF000FC01238334837FDE0F900F900F900F9090
:103E00000F9001C000000F900F90CF91DF910895A7
:103E1000DF93CF930F920F92CDB7DEB78A838A815B
:103E2000805E898389810F900F90CF91DF910895F3
:103E3000DF93CF930F92CDB7DEB7898389818695C3
:103E400086958695882F90E0C096880F991F829559
:103E50009295907F9827807F98270F90CF91DF9140
:103E60000895DF93CF930F92CDB7DEB78983898111
:103E7000882F90E09C012770307081E090E0022E46
:103E800002C0880F991F0A94E2F70F90CF91DF913B
:103E90000895DF93CF9300D00F92CDB7DEB78B8319
:103EA0006C838B81C5DF89839A838C81882341F061
:103EB0008B81D7DF282F89819A81FC01258307C058
:103EC0008B81CFDF282F89819A81FC01268324965C
:103ED000CDBFDEBFCF91DF9108950F931F93DF9386
:103EE000CF9300D0CDB7DEB78B838B81A1DF8983E1
:103EF0009A8389819A81FC018085882F90E08C01CA
:103F0000009510958B81ADDF882F90E08023912361
:103F100021E0009709F420E0822F2396CDBFDEBF79
:103F2000CF91DF911F910F910895DF93CF9300D030
:103F30000F92CDB7DEB78C838C8193DF89838C8120
:103F400077DF8A839B838A819B812981FC01278378
:103F50002496CDBFDEBFCF91DF910895DF93CF933D
:103F60000F920F92CDB7DEB789839A8389819A81A8
:103F7000FC018081282F206489819A81FC012083A3
:103F80000F900F90CF91DF910895DF93CF930F9211
:103F90000F92CDB7DEB789839A8389819A81FC011C
:103FA0008281881F8827881F0F900F90CF91DF9103
:103FB0000895DF93CF930F920F92CDB7DEB7898329
:103FC0009A8389819A81E1DF0F900F90CF91DF91E1
:103FD0000895CF92DF92EF92FF920F931F93DF939A
:103FE000CF93CDB7DEB780EC98E00E94110A2DEE9A
:103FF00032E280EC98E0B90140E008E418EE21E0FC
:1040000030E0CC24DD2476010E94490A80EC98E05F
:10401000A5DFCF91DF911F910F91FF90EF90DF907F
:10402000CF900895DF93CF9300D0CDB7DEB78A83CA
:104030009B83F8948AEA89838A819B81009709F49B
:104040004EC02DEE32E280EC98E0B9010E94580B90
:1040500080EC98E02981FC012383000080EC98E04B
:10406000A8DF982F81E089278823C1F78A819B8167
:104070009C012B5B3F4F80EC98E0B90141E00E942E
:10408000920A8A819B819C012A5B3F4F80EC98E0D9
:10409000B90141E00E94920A8A819B819C01295BBF
:1040A0003F4F80EC98E0B90141E00E94920A8A817A
:1040B0009B819C012E5F3F4F8A819B818B5B9F4F31
:1040C000FC01408180EC98E0B9010E94920A2DEE3B
:1040D00032E280EC98E0B9010E946D0B03C086E2E9
:1040E00060E0D7DE78942396CDBFDEBFCF91DF911D
:1040F00008950F931F93DF93CF93CDB7DEB7C456C8
:10410000D040CDBFDEBFF894CE018C599F4F28E838
:10411000FC012083C1D589839A8389819A81009784
:1041200021F485E202DF7894B1C42DEE32E280EC16
:1041300098E0B9010E94580B1B829E012C593F4FF9
:1041400080EC98E0B90141E00E94920A80E090E0A2
:10415000A0E2B1E48C839D83AE83BF836C817D81BB
:104160008E819F812BEA3AEA4AEA5EE30E9453037A
:10417000DC01CB0188879987AA87BB8711E0688516
:1041800079858A859B8520E030E040E85FE30E94E6
:104190004F0588230CF010E0112319F081E08C8783
:1041A000A3C011E0688579858A859B8520E030E091
:1041B0004FE753E40E94F50418160CF010E01123A9
:1041C00009F489C06C817D818E819F8120E030E07F
:1041D0004AE754E40E944A04DC01CB018D879E87A4
:1041E000AF87B88B6D857E858F85988920E030E01C
:1041F0004AE753E40E945303DC01CB01898B9A8B7D
:10420000AB8BBC8B11E069897A898B899C8920E012
:1042100030E040E85FE30E944F0588230CF010E097
:10422000112329F081E090E08D8B9E8B46C011E038
:1042300069897A898B899C8920E03FEF4FE757E4B1
:104240000E94F50418160CF010E0112361F16D8541
:104250007E858F85988920E030E040E251E40E941D
:104260005303DC01CB01BC01CD010E948B01DC01B9
:10427000CB018D8B9E8B12C089E190E08F8B988F44
:104280008F89988D8C01C8010197F1F78C010F8BF4
:10429000188F8D899E8901978D8B9E8B8D899E8924
:1042A000009751F728C069897A898B899C890E9477
:1042B0008B01DC01CB018D8B9E8B8D899E89898F33
:1042C0009A8F898D9A8D8C01F8013197F1F78F01C2
:1042D000098F1A8F10C0688579858A859B850E9411
:1042E0008B01DC01CB018C878C858B8F8B8D182FFC
:1042F0001A95F1F71B8F89819A819C012B5B3F4FA7
:1043000080EC98E0B90141E050E00E941B0B80E096
:1043100090E0A0E2B1E48C8F9D8FAE8FBF8F6C8D4B
:104320007D8D8E8D9F8D2BEA3AEA4AEA5EE30E94EC
:104330005303DC01CB0188A399A3AAA3BBA311E07B
:1043400068A179A18AA19BA120E030E040E85FE369
:104350000E944F0588230CF010E0112319F081E032
:104360008CA3A3C011E068A179A18AA19BA120E040
:1043700030E04FE753E40E94F50418160CF010E00B
:10438000112309F489C06C8D7D8D8E8D9F8D20E069
:1043900030E04AE754E40E944A04DC01CB018DA3DB
:1043A0009EA3AFA3B8A76DA17EA18FA198A520E081
:1043B00030E04AE753E40E945303DC01CB0189A7B4
:1043C0009AA7ABA7BCA711E069A57AA58BA59CA568
:1043D00020E030E040E85FE30E944F0588230CF0C6
:1043E00010E0112329F081E090E08DA79EA746C040
:1043F00011E069A57AA58BA59CA520E03FEF4FE7CA
:1044000057E40E94F50418160CF010E0112361F136
:104410006DA17EA18FA198A520E030E040E251E49B
:104420000E945303DC01CB01BC01CD010E948B0132
:10443000DC01CB018DA79EA712C089E190E08FA778
:1044400098AB8FA598A98C01C8010197F1F78C0151
:104450000FA718AB8DA59EA501978DA79EA78DA52B
:104460009EA5009751F728C069A57AA58BA59CA5A4
:104470000E948B01DC01CB018DA79EA78DA59EA577
:1044800089AB9AAB89A99AA98C01F8013197F1F708
:104490008F0109AB1AAB10C068A179A18AA19BA1B9
:1044A0000E948B01DC01CB018CA38CA18BAB8BA96F
:1044B000182F1A95F1F71BAB89819A818B5B9F4F5F
:1044C000FC0180818B838B81882319F08B81883854
:1044D00070F02DEE32E280EC98E0B9010E946D0B95
:1044E000789484E222DD89819A810AD4CFC28981BD
:1044F0009A819C012A5B3F4F80EC98E0B90141E032
:1045000050E00E941B0B80E090E0A0E2B1E48CAB95
:104510009DABAEABBFAB6CA97DA98EA99FA92BEAC1
:104520003AEA4AEA5EE30E945303DC01CB0188AF1A
:1045300099AFAAAFBBAF11E068AD79AD8AAD9BADC5
:1045400020E030E040E85FE30E944F0588230CF054
:1045500010E0112319F081E08CAFF3C011E068ADD9
:1045600079AD8AAD9BAD20E030E04FE753E40E9487
:10457000F50418160CF010E0112309F4D9C06CA949
:104580007DA98EA99FA920E030E04AE754E40E946B
:104590004A04DC01CB019E01235C3F4FF90180837B
:1045A0009183A283B3838E010F5B1F4FCE01CD9603
:1045B000FC01608171818281938120E030E04AE7D3
:1045C00053E40E945303DC01CB01F8018083918303
:1045D000A283B383CE018F5B9F4F11E0FC0160810A
:1045E00071818281938120E030E040E85FE30E94A6
:1045F0004F0588230CF010E0112349F0CE018B5BAE
:104600009F4F21E030E0FC012083318373C0CE0155
:104610008F5B9F4F11E0FC016081718182819381EA
:1046200020E03FEF4FE757E40E94F50418160CF026
:1046300010E0112309F44CC0CE01CD96FC0160813D
:1046400071818281938120E030E040E251E40E9458
:104650005303DC01CB018E010B5B1F4FBC01CD016D
:104660000E948B01DC01CB01F8018083918327C07C
:10467000CE01895B9F4F29E130E0FC01208331832B
:10468000CE01895B9F4FFC01808191818C01C80123
:104690000197F1F78C01CE01895B9F4FFC010083EC
:1046A0001183CE018B5B9F4F9E012B5B3F4FF90126
:1046B0002081318121503040FC0120833183CE01A3
:1046C0008B5B9F4FFC0180819181009789F64CC0E4
:1046D0008E010B5B1F4FCE018F5B9F4FFC016081F2
:1046E0007181828193810E948B01DC01CB01F801F1
:1046F00080839183CE01875B9F4F9E012B5B3F4F51
:10470000F90120813181FC0120833183CE01875B57
:104710009F4FFC01808191818C01C8010197F1F7C5
:104720008C01CE01875B9F4FFC01008311831CC06D
:1047300068AD79AD8AAD9BAD0E948B01DC01CB01E8
:104740008CAFCE01855B9F4F2CADFC012083CE0149
:10475000855B9F4FFC018081182F1A95F1F7CE01E0
:10476000855B9F4FFC01108389819A819C01295BA5
:104770003F4F80EC98E0B90141E050E00E941B0BF4
:1047800089819A819C012E5F3F4F89819A818E5B3E
:104790009F4FFC01208331839E01245B3F4F80E0CB
:1047A00090E0A0E2B1E4F90180839183A283B38316
:1047B0008E01005B1F4FCE01845B9F4FFC01608127
:1047C0007181828193812BEA3AEA4AEA5EE30E9490
:1047D0005303DC01CB01F80180839183A283B3836F
:1047E000CE01805B9F4F11E0FC016081718182816D
:1047F000938120E030E040E85FE30E944F0588238A
:104800000CF010E0112339F0CE018C5A9F4F21E0BB
:10481000FC01208305C1CE01805B9F4F11E0FC01AC
:10482000608171818281938120E030E04FE753E421
:104830000E94F50418160CF010E0112309F4DFC0F3
:10484000CE01845B9F4FFC016081718182819381E5
:1048500020E030E04AE754E40E944A04DC01CB0146
:104860009E012B5A3F4FF90180839183A283B3832A
:104870008E01075A1F4FCE018B5A9F4FFC0160815A
:1048800071818281938120E030E04AE753E40E9405
:104890005303DC01CB01F80180839183A283B383AE
:1048A000CE01875A9F4F11E0FC01608171818281A6
:1048B000938120E030E040E85FE30E944F058823C9
:1048C0000CF010E0112349F0CE01835A9F4F21E0F4
:1048D00030E0FC012083318374C0CE01875A9F4FA2
:1048E00011E0FC01608171818281938120E03FEFC2
:1048F0004FE757E40E94F50418160CF010E011235E
:1049000009F44DC0CE018B5A9F4FFC01608171812B
:104910008281938120E030E040E251E40E94530321
:10492000DC01CB018E01035A1F4FBC01CD010E9457
:104930008B01DC01CB01F8018083918327C0CE017C
:10494000815A9F4F29E130E0FC0120833183CE0161
:10495000815A9F4FFC01808191818C01C801019790
:10496000F1F78C01CE01815A9F4FFC010083118326
:10497000CE01835A9F4F9E01235A3F4FF901208158
:10498000318121503040FC0120833183CE01835A94
:104990009F4FFC0180819181009789F658C08E015C
:1049A000035A1F4FCE01875A9F4FFC0160817181CE
:1049B000828193810E948B01DC01CB01F80180830D
:1049C0009183CE018F599F4F9E01235A3F4FF9018A
:1049D00020813181FC0120833183CE018F599F4F8B
:1049E000FC01808191818C01C8010197F1F78C0154
:1049F000CE018F599F4FFC010083118328C08E0187
:104A00000C5A1F4FCE01805B9F4FFC01608171816A
:104A1000828193810E948B01DC01CB01F8018083AC
:104A2000CE018D599F4F9E012C5A3F4FF901208195
:104A3000FC012083CE018D599F4FFC018081182FEE
:104A40001A95F1F7CE018D599F4FFC011083898192
:104A50009A818E5B9F4FFC01408151818B81282F71
:104A600030E080EC98E0BA01A9010E941B0B789419
:104A700089819A818C5B9F4F22E0FC0120832DEE7F
:104A800032E280EC98E0B9010E946D0BCC59DF4F07
:104A9000CDBFDEBFCF91DF911F910F910895DF93BE
:104AA000CF93CDB7DEB783E118DA882309F021DB95
:104AB000CF91DF9108951F920F920FB60F92009041
:104AC00038000F92009039000F9200903B000F9237
:104AD0001124109238001092390010923B002F934D
:104AE0003F934F935F936F937F938F939F93AF9376
:104AF000BF93EF93FF93DF93CF93CDB7DEB7CFDFB5
:104B0000CF91DF91FF91EF91BF91AF919F918F91E5
:104B10007F916F915F914F913F912F910F900092F4
:104B20003B000F90009239000F90009238000F90D8
:104B30000FBE0F901F901895DF93CF930F92CDB7B4
:104B4000DEB789838981869586958695882F90E042
:104B5000C096880F991F82959295907F9827807FA5
:104B600098270F90CF91DF910895DF93CF930F9205
:104B7000CDB7DEB789838981882F90E09C012770AB
:104B8000307081E090E0022E02C0880F991F0A94D5
:104B9000E2F70F90CF91DF910895DF93CF9300D08C
:104BA0000F92CDB7DEB78B836C838B81C5DF898392
:104BB0009A838C81882341F08B81D7DF282F8981CC
:104BC0009A81FC01258307C08B81CFDF282F898143
:104BD0009A81FC0126832496CDBFDEBFCF91DF9161
:104BE0000895DF93CF93CDB7DEB78091EE229091F9
:104BF000EF220E949C1BCF91DF910895DF93CF930A
:104C000000D0CDB7DEB78091EE229091EF220E94C6
:104C1000901C89838981882359F08091EE2290919C
:104C2000EF220E940B1C8A839B838A819B8182D006
:104C300080914A2390914B23019680934A2390932D
:104C40004B2380914A2390914B238070907400975E
:104C500021F087E260E0A1DF03C087E261E09DDF31
:104C60002396CDBFDEBFCF91DF910895DF93CF9321
:104C70000F920F92CDB7DEB789839A838091EE228F
:104C80009091EF2229813A81B9010E94361C0F9040
:104C90000F90CF91DF910895DF93CF930F920F92F2
:104CA000CDB7DEB78091EE229091EF220E94901C4A
:104CB0008E3191051CF080E090E01DC088E490E00A
:104CC0000E94E34A89839A8389819A819C012E5F9D
:104CD0003F4F89819A818E5B9F4FFC0120833183F6
:104CE0008091EE229091EF2229813A81B9010E94B0
:104CF000DE1B89819A810F900F90CF91DF910895EB
:104D0000DF93CF930F920F92CDB7DEB789839A834B
:104D10008091EE229091EF2229813A81B9010E947F
:104D2000361C89819A810E947D4B0F900F90CF9104
:104D3000DF910895DF93CF930F920F92CDB7DEB737
:104D400089839A8389819A818A5B9F4FFC01808144
:104D5000882F90E08130910569F0823091051CF434
:104D60000097A9F122C08230910549F08330910566
:104D7000C1F01BC089819A810E94761E29C000D093
:104D80008DB79EB7019625E0FC01208327EB30E22A
:104D9000FC01218332830E947B1D0F900F900F90A6
:104DA00017C089819A811CD013C000D08DB79EB7DF
:104DB000019625E0FC0120832CEE30E2FC012183EA
:104DC00032830E947B1D0F900F900F9001C0000056
:104DD00089819A8195DF0F900F90CF91DF9108958F
:104DE000DF93CF930F920F92CDB7DEB789839A836B
:104DF00089819A81895B9F4FFC018081882F90E097
:104E00008130910521F082309105A9F030C089816F
:104E10009A818C5B9F4FFC018081882F90E08230CB
:104E2000910539F08430910509F589819A81FAD884
:104E300001C000001CC089819A818C5B9F4FFC01DE
:104E40008081882F90E08330910559F0843091055E
:104E500021F08230910539F00AC089819A81E2D827
:104E600003C0000001C00000000001C000000F905E
:104E70000F90CF91DF910895DF93CF93CDB7DEB739
:104E80002597CDBFDEBF8B839C836D8305DF898330
:104E90009A8389819A818B5B9F4F2D81FC012083AE
:104EA00089819A819C012E5F3F4F89819A818E5B17
:104EB0009F4FFC01208331831FC089819A818E5BC3
:104EC0009F4FFC01808191812B813C81F9012081E0
:104ED000FC0120839C012F5F3F4F89819A818E5B6B
:104EE0009F4FFC01208331838B819C8101968B83B2
:104EF0009C838D8181508D838D818823F1F68981FA
:104F00009A818C5B9F4F24E0FC01208389819A81E8
:104F10008A5B9F4F23E0FC01208389819A81895B12
:104F20009F4F22E0FC0120832596CDBFDEBFCF91AD
:104F3000DF910895DF93CF93CDB7DEB78091F02254
:104F40009091F1220E949C1BCF91DF910895DF93F5
:104F5000CF930F920F92CDB7DEB78091F022909150
:104F6000F1220E94901C8A309105ACF48EE890E00A
:104F70000E94E34A89839A8389819A819C01255FF3
:104F80003F4F89819A81FC012087318789819A81ED
:104F9000FC01178211C000D08DB79EB7019625E0A5
:104FA000FC01208320E131E2FC01218332830E9455
:104FB0007B1D0F900F900F9089819A810F900F9019
:104FC000CF91DF910895DF93CF930F920F92CDB7DA
:104FD000DEB789839A838091F0229091F122298112
:104FE0003A81B9010E94361C89819A810E947D4BC9
:104FF0000F900F90CF91DF910895DF93CF930F9291
:105000000F92CDB7DEB789839A8389819A81FC019B
:1050100080859185FC0110829C012F5F3F4F898123
:105020009A81FC012087318789819A81FC018085E2
:105030009185FC0110829C012F5F3F4F89819A81ED
:10504000FC012087318789819A81FC018781282F83
:105050002E5F89819A81FC01278389819A81FC01D5
:10506000478189819A819C01255F3F4F842FB90137
:105070000E94AD4689819A81A6DF0F900F90CF9153
:10508000DF910895AF92BF92CF92DF92EF92FF929D
:105090000F931F93DF93CF93CDB7DEB76A97CDBF42
:1050A000DEBF0E945F4C8093FF2319821A82109208
:1050B0004E231B821C821D821E821F821886198627
:1050C0001A868FEF9FEF8B879C878FEF9FEF8D87DF
:1050D0009E878FEF9FEF8F87988B8EED898B8FEE5A
:1050E0008A8B87E18B8B8FEF8C8B1D8A1E8A1F8AA0
:1050F000188E8FEF9FEF898F9A8F8B859C8589D132
:10510000AB80BC80CD80DE80EF80F88409851A8575
:105110002A2D3B2D4C2D5D2D6E2D7F2D802F912F17
:105120008BD18D859E855CD1898D9A8DDBD0A988A8
:10513000BA88CB88DC88ED88FE880F89188D2A2DE7
:105140003B2D4C2D5D2D6E2D7F2D802F912FF9D075
:105150008F859889A4D084E590E0A0E0B0E08093AA
:105160004F2390935023A0935123B0935223109236
:10517000532381E0809355231092562384E180933A
:10518000572310925A238FE080935B2310925C2365
:1051900010925D2310925E2310925F230E945F4C59
:1051A000809360230E945F4C8093772381E08093FB
:1051B000782385E08093792384E080937A2388E2C2
:1051C00080937B2383E080937C2310927D2384E172
:1051D00080937E2384E180937F231092822380E258
:1051E00090E0A0E0B0E08093832390938423A09389
:1051F0008523B0938623109287231092882382E020
:105200008093892383E08093942382E080936C23AE
:1052100083E0809361238FE080939F2380E590E07B
:105220008093A0239093A12381E08093A22384EF15
:1052300091E08093A3239093A4238BE06AD00E94F3
:10524000684780E00E94744780917D230E949747C1
:1052500089819A816A96CDBFDEBFCF91DF911F9180
:105260000F91FF90EF90DF90CF90BF90AF90089597
:10527000DF93CF93CDB7DEB78091FF23982F8F5F59
:105280008093FF23892FCF91DF910895DF93CF93F0
:10529000CDB7DEB78FE493E2CF91DF910895DF932E
:1052A000CF930F920F92CDB7DEB789839A8389810E
:1052B0009A81809392239093932389819A818093FA
:1052C0009D2390939E2389819A818093802390933C
:1052D000812389819A810E94F4460F900F90CF918B
:1052E000DF910895DF93CF930F920F92CDB7DEB782
:1052F00089839A8389819A8180938A2390938B23CF
:1053000089819A810E94DB460F900F90CF91DF91A7
:105310000895DF93CF9300D0CDB7DEB78B830E9483
:10532000D14389839A838B810E949E4489819A818B
:105330002B81FC0120832396CDBFDEBFCF91DF916F
:105340000895AF92BF92CF92DF92EF92FF920F93A8
:105350001F93DF93CF93CDB7DEB72897CDBFDEBFC6
:1053600029833A834B835C836D837E838F83988705
:105370008981809395238A81809396238B81809362
:1053800097238C81809398238D81809399238E819C
:1053900080939A238F8180939B23888580939C237D
:1053A000A980BA80CB80DC80ED80FE800F811885DB
:1053B0002A2D3B2D4C2D5D2D6E2D7F2D802F912F75
:1053C0000E940D472896CDBFDEBFCF91DF911F9180
:1053D0000F91FF90EF90DF90CF90BF90AF90089526
:1053E000DF93CF930F920F92CDB7DEB789839A8365
:1053F00089819A81809375239093762389819A81FC
:1054000080936A2390936B230F900F90CF91DF913D
:105410000895DF93CF930F920F92CDB7DEB78983B4
:105420009A8389819A8180936D2390936E230F9044
:105430000F90CF91DF910895DF93CF93CDB7DEB773
:105440002897CDBFDEBF29833A834B835C836D836E
:105450007E838F8398878981809362238A8180935A
:1054600063238B81809364238C81809365238D815A
:10547000809366238E81809367238F818093682336
:105480008885809369232896CDBFDEBFCF91DF91B9
:105490000895DF93CF93CDB7DEB780914E23CF91A0
:1054A000DF910895DF93CF930F92CDB7DEB7898355
:1054B0008091A523882F90E08C5E9B4D2981FC0173
:1054C00020838091A5238F5F8093A5230F90CF9198
:1054D000DF910895DF93CF93CDB7DEB72C97CDBF83
:1054E000DEBF89879A876B877C870E94D143898337
:1054F0009A838FE190E00E94E34A8B839C838B81A7
:105500009C8129853A85225F3F4F4BE0F90100805D
:105510002F5F3F4FFC010082019641504423B1F7B9
:1055200089819A81FC0120818B819C81FC012387E8
:1055300089819A818C579F4FFC0120818B819C81AE
:10554000FC0124878B819C81FC01138A8B859C85BF
:10555000FC0122858B819C81FC01248B8B859C85A1
:10556000FC0183819481A581B6812B813C81F90165
:10557000858B968BA78BB08F8B819C81FC01118EC4
:105580008B819C81FC01128E138E8B819C81FC018E
:10559000148E8B819C81FC01158E8B819C81FC017A
:1055A000168E8B859C85FC0180859185FC01208170
:1055B000222F30E02D833E839C012F5F3F4F8B8550
:1055C0009C85FC01208731878B859C85FC0180852B
:1055D0009185FC018081882F90E0892F990F990B8C
:1055E0002D813E81822B932B8D839E838B859C8581
:1055F000FC01808591859C012F5F3F4F8B859C85A9
:10560000FC01208731878B859C85FC0180859185F5
:10561000FC012081222F30E02F8338879C012F5FEF
:105620003F4F8B859C85FC01208731878B859C852E
:10563000FC0180859185FC018081882F90E0892F75
:10564000990F990B2F813885822B932B8F83988705
:105650008B859C85FC01808591859C012F5F3F4F48
:105660008B859C85FC01208731878F8198858827D1
:10567000990F881F9927282F21708B819C81FC010D
:10568000208B8F819885892F992782958F70282F5D
:1056900021708B819C81FC01228B8F81282F2F70A0
:1056A0008B819C81FC0126878F819885892F992782
:1056B000282F2F708B819C81FC0127878F819885F3
:1056C00084E0989F812D99271124282F21708B81A8
:1056D0009C81FC01218B8F819885929582958F709A
:1056E00089279F708927282F2F708B819C81FC012F
:1056F00025878B819C8149855A852B853C85BA01FC
:10570000A9010E9410412C96CDBFDEBFCF91DF9141
:105710000895DF93CF93CDB7DEB72C97CDBFDEBF13
:10572000888799876A874B875C87B0DD89839A83EE
:105730000EDC8B839C8387E390E00E94E34A8D8399
:105740009E83A7DE882309F0A8C08D819E812885CD
:10575000398503964BE0F90100802F5F3F4FFC0134
:105760000082019641504423B1F78D819E812981A9
:105770003A812B5B3F4F0E964BE0F90100802F5F83
:105780003F4FFC010082019641504423B1F78D81C7
:105790009E81FC012081287F2360FC012083888575
:1057A0009985FC018081282F23708D819E81237033
:1057B000220F220FFC013181337F232BFC01218337
:1057C0008D819E81FC012181206CFC0121838D81D2
:1057D0009E81FC0120812F7BFC0120838D819E8195
:1057E000FC0120812F7EFC0120838D819E81FC01A4
:1057F00020812062FC0120838D819E81FC0120811B
:10580000277FFC0120838D819E81FC0121812F7CDB
:10581000FC0121838D819E812B813C81B901DAD2EB
:105820008B819C81FC018085918521E0FC01208396
:105830009C012F5F3F4F8B819C81FC01208731872A
:105840008B819C81FC018781282F2F5F8B819C811C
:10585000FC0127838B819C81FC01808591852A85B1
:10586000FC0120839C012F5F3F4F8B819C81FC01B9
:10587000208731878B819C81FC018781282F2F5FB6
:105880008B819C81FC0127838B819C81B6DB8D8180
:105890009E810E947D4B8F8100C02C96CDBFDEBFC4
:1058A000CF91DF910895DF93CF93CDB7DEB72A97DD
:1058B000CDBFDEBF89879A874ADB89839A8387E3D6
:1058C00090E00E94E34A8B839C830E94D1438D83A6
:1058D0009E83DCDC8F8398878B819C81FC012081F7
:1058E000287F2360FC01208389859A85FC018081C3
:1058F000282F23708B819C812370220F220FFC01A3
:105900003181337F232BFC0121838B819C81FC011E
:105910002181206CFC01218389859A85FC0180818D
:10592000882341F48B819C81FC0120812F7BFC0129
:10593000208307C08B819C81FC0120812064FC01B5
:1059400020838B819C81FC0120812F7EFC012083A0
:105950008B819C81FC0120812062FC0120838B8152
:105960009C81FC012081277FFC0120838B819C810D
:1059700029853A8503964BE0F90100802F5F3F4F60
:10598000FC010082019641504423B1F78B819C8138
:105990002F8138852B5B3F4F0E964BE0F90100803D
:1059A0002F5F3F4FFC010082019641504423B1F725
:1059B0005FDC282F8B819C81FC0122838B819C8161
:1059C00029813A81B90106D289819A81FC018085B9
:1059D000918524E0FC0120839C012F5F3F4F89814A
:1059E0009A81FC012087318789819A81FC01878116
:1059F000282F2F5F89819A81FC01278389819A81D1
:105A0000FCDA8B819C810E947D4B8B819C81FC0107
:105A100082812A96CDBFDEBFCF91DF910895DF93BB
:105A2000CF9300D0CDB7DEB78A839B838A819B81D9
:105A3000FC0180859185FC01208129839C012F5FD9
:105A40003F4F8A819B81FC01208731878A819B811E
:105A5000FC018781282F2F5F8A819B81FC0127838E
:105A60008981882F90E08230910551F0873091052F
:105A700059F08130910561F48A819B8161D008C021
:105A80008A819B810ED104C08A819B8191D10000C3
:105A90002396CDBFDEBFCF91DF910895EF92FF92A5
:105AA0000F93DF93CF93CDB7DEB72A97CDBFDEBF7D
:105AB00089839A834B835C836D837E832F830887DE
:105AC000E986FA8600D08DB79EB7019629E0FC01E1
:105AD000208321E331E2FC01218332830E947B1D7C
